:1008000000380020110C00006D0C00003F3001008A
:1008100000000000000000000000000000000000D8
:100820000000000000000000000000006D0C00004F
:1008300000000000000000006D0C00009D2F010072
:10084000DDD30000E7D30000F1D30000FBD30000AC
:1008500005D400006D0C00006D0C00006D0C000054
:10086000052B01006D0C000011EA00001BEA0000DE
:1008700059FC00006D0C00006D0C000093FC0000A2
:100880006D0C00006D0C00006D0C00006D0C000084
:100890006D0C00006D0C00006D0C00006D0C000074
:1008A0004B110100D1EB00007F1301006D0C000023
:1008B0006D0C00006D0C00006D0C00006D0C000054
:100C0000FFFFFFFFFFFFFFFFFFFFFFFFFE7FFFFF75
:100C100072B610490F4A0F4B0E4C0E4D0D4E0D4F34
:100C2000B846B946BA46BB46BC460B490B4A521AAF
:100C3000013A05DD0020042308601944043AFBDA78
:100C400007488546074880470748804762B612F044
:100C5000FBF9FEE70000000000FDFF1F0038002048
:100C60000038002081BD0000F9BC0000D0E7C0467C
:100C700002B4714649084900095649008E4402BC35
:100C80007047C04602B4714649084900095C4900F2
:100C90008E4402BC7047C046002243088B4274D386
:100CA00003098B425FD3030A8B4244D3030B8B426D
:100CB00028D3030C8B420DD3FF22090212BA030C76
:100CC0008B4202D31212090265D0030B8B4219D357
:100CD00000E0090AC30B8B4201D3CB03C01A524177
:100CE000830B8B4201D38B03C01A5241430B8B42BF
:100CF00001D34B03C01A5241030B8B4201D30B03A8
:100D0000C01A5241C30A8B4201D3CB02C01A5241CE
:100D1000830A8B4201D38B02C01A5241430A8B4291
:100D200001D34B02C01A5241030A8B4201D30B027A
:100D3000C01A5241CDD2C3098B4201D3CB01C01A94
:100D4000524183098B4201D38B01C01A524143099E
:100D50008B4201D34B01C01A524103098B4201D38C
:100D60000B01C01A5241C3088B4201D3CB00C01AF9
:100D7000524183088B4201D38B00C01A5241430871
:100D80008B4201D34B00C01A5241411A00D2014696
:100D9000524110467047FFE701B5002000F0F0F81F
:100DA00002BDC0460029F7D076E7704703460B43E3
:100DB0007FD4002243088B4274D303098B425FD354
:100DC000030A8B4244D3030B8B4228D3030C8B4280
:100DD0000DD3FF22090212BA030C8B4202D3121266
:100DE000090265D0030B8B4219D300E0090AC30B3B
:100DF0008B4201D3CB03C01A5241830B8B4201D3E8
:100E00008B03C01A5241430B8B4201D34B03C01AD0
:100E10005241030B8B4201D30B03C01A5241C30A48
:100E20008B4201D3CB02C01A5241830A8B4201D3B9
:100E30008B02C01A5241430A8B4201D34B02C01AA3
:100E40005241030A8B4201D30B02C01A5241CDD248
:100E5000C3098B4201D3CB01C01A524183098B4293
:100E600001D38B01C01A524143098B4201D34B017C
:100E7000C01A524103098B4201D30B01C01A5241DF
:100E8000C3088B4201D3CB00C01A524183088B4266
:100E900001D38B00C01A524143088B4201D34B004F
:100EA000C01A5241411A00D20146524110467047C1
:100EB0005DE0CA0F00D04942031000D340425340C6
:100EC00000229C4603098B422DD3030A8B4212D386
:100ED000FC22890112BA030A8B420CD389019211B8
:100EE0008B4208D3890192118B4204D389013AD0F5
:100EF000921100E08909C3098B4201D3CB01C01ACA
:100F0000524183098B4201D38B01C01A52414309DC
:100F10008B4201D34B01C01A524103098B4201D3CA
:100F20000B01C01A5241C3088B4201D3CB00C01A37
:100F3000524183088B4201D38B00C01A5241D9D24F
:100F400043088B4201D34B00C01A5241411A00D2D0
:100F50000146634652415B10104601D34042002BCC
:100F600000D54942704763465B1000D3404201B54B
:100F7000002000F005F802BD0029F8D016E7704700
:100F80007047C046D0400B00D1409C46203AD34029
:100F90001843524263469340184370479140030000
:100FA00090409C46203A9340194352426346D340B6
:100FB000194370478446100062468C461900634608
:100FC00000E0C0461FB514F0FFFF002801D4002147
:100FD000C8421FBD10B514F03FFF4042013010BDA4
:100FE00010B514F0F1FF002801DB002010BD012036
:100FF00010BDC04610B514F0E7FF002801DD002049
:1010000010BD012010BDC04610B514F069FF0028C6
:1010100001DC002010BD012010BDC04610B514F049
:101020005FFF002801DA002010BD012010BDC0467E
:10103000844608006146FFE71FB513F0B1FC0028A5
:1010400001D40021C8421FBD10B513F031FC40424D
:10105000013010BD10B513F0A3FC002801DB002007
:1010600010BD012010BDC04610B513F099FC00283A
:1010700001DD002010BD012010BDC04610B513F0E9
:101080003FFC002801DC002010BD012010BDC0463F
:1010900010B513F035FC002801DA002010BD012046
:1010A00010BDC046002B11D1002A0FD1002900D15C
:1010B000002802D00021C943080007B4024802A159
:1010C0004018029003BDC046B9FEFFFF03B4684656
:1010D00001B5029813F076F8019B9E4602B00CBC55
:1010E0007047C0461C2101231B04984201D3000C09
:1010F00010391B0A984201D3000A08391B0998428B
:1011000001D30009043902A2105C40187047C046A0
:1011100004030202010101010000000000000000C0
:1011200010B5002903D1FFF7DDFF203002E00800F1
:10113000FFF7D8FF10BDC04610B50800202112F0FF
:10114000C8FC002010BD10B51C00080011009AB2A8
:1011500012F0F0FC200010BD10B51C0008001100BA
:101160009AB212F05BFD200010BD10B50AF09EFB94
:1011700010BD000010B51E2302220549054800F0ED
:10118000A8F9002802D10122034B1A7010BDC046F5
:10119000C0FDFF1F600500208805002010B5094B29
:1011A0001B78012B0BD1084C200000F0CBF9002854
:1011B00001D1C04610BD200000F098F9FAE70120E7
:1011C0004042F7E7880500206005002010B5064B77
:1011D00001001B78012B04D1044B180000F054FAD5
:1011E00010BD01204042FBE788050020600500207B
:1011F00010B5064B01001B78012B04D1044B1800DD
:1012000000F0A6FA10BD01204042FBE7880500204F
:101210006005002070B5104B06001B78012B18D11B
:101220000E4D2B689A68EB68013A53438B4210D3FA
:1012300000290ED00139280000F0C5FA3100040061
:10124000280000F085FA0443280000F0B5FA204396
:1012500070BD01204042FBE78805002060050020AA
:1012600010B50B4B01001B78012B0DD10948036809
:101270009A68C368013A53438B4205D3002903D0CF
:10128000013900F0A0FA10BD01204042FBE7C04642
:10129000880500206005002010B5054B1B78012B48
:1012A00003D1044800F088FA10BD01204042FBE75A
:1012B000880500206005002010B5054B1B78012B28
:1012C00003D1044800F0CEF910BD01204042FBE7F5
:1012D000880500206005002010B5054B1B78012B08
:1012E00002D100F023F810BD01204042FBE7C046C8
:1012F0008805002010B5054B1B78012B02D100F0AA
:1013000059F810BD01204042FBE7C0468805002087
:1013100010B5054B1B78012B02D100F063F810BD0E
:1013200001204042FBE7C04688050020F0B50E00D2
:10133000002193B004002E2206A803910591049188
:1013400015F056FE09200322FF21684415F050FED7
:101350000A231E22210001AD05A803AF01962B71BF
:1013600015F05CFEC046A02008222900C000FFF74F
:10137000FCFE002818D1012405AD1120032229000C
:10138000684403963C7115F049FEC04608223900B6
:101390000748FFF7EAFE002806D10134E4B203351E
:1013A0000B2CEAD113B0F0BD01204042FAE7C04651
:1013B0000105000037B505000C000822FF21684632
:1013C00015F016FEC0460095C0466B466A461C7175
:1013D00002236946537102480822FFF7C6FE3EBD4C
:1013E00002050000012307B55B4200900822694610
:1013F00002480193FFF7B9FE0EBDC0460305000089
:1014000010B543684469CB18016859430423A047C9
:1014100010BD836810B50468486804335843636896
:101420000A680830D21823685343C01810BD37B576
:1014300004680192FFF7EDFF0100256904232000F5
:1014400001AAA84737BD70B505681400FFF7E1FF92
:101450006E690100042328002200B04770BD13B557
:1014600043680192CB18016804695943042301AA17
:10147000A04713BDFF2270B5040000681206436840
:101480000568CB185D430E00FFF7E9FF20682900CF
:10149000C3689847220001CA0423291D0569A8478B
:1014A0003100024A2068FFF7DAFF70BD00FFFFFF3E
:1014B0004B68C26801334B60934209DB002200682D
:1014C0000B68806801334A600B60834200DB0A606E
:1014D000704710B504000160426083600868191D00
:1014E0000838FFF7D9FBE060002010BD70B504009C
:1014F000002523689B68AB420CDC00252368002094
:101500009B68AB4213DC20616061A061E0612062F6
:10151000606270BD002011F00FFE290000222068DB
:10152000FFF79DFF012011F007FE0135E1E711F003
:1015300003FE29002000FFF79DFF012011F0FCFDB4
:101540000135DBE7F0B500250400036889B09F682A
:10155000424B013F039502950495206801938368EF
:10156000AB4227DC029B002B46D0039B5B421F4013
:101570000023A761E361A369BB425BD0049B2361A5
:101580000023636125002269A36910359A4203D1C3
:101590006269E3699A4208D006AA29002000FFF791
:1015A00052FF2F4B069A9A4253D1203400200CCD83
:1015B0000CC423E043680668EB185E434369059654
:1015C00005991E0006AA0823B047069B002B13D0DE
:1015D000FF221206934201D0013305D12000059964
:1015E000FFF748FF1D4B0693069B1C4A934207D109
:1015F00007996268914211D00120404209B0F0BDC4
:10160000174A9342F8D1079962689142F4D1019A3E
:1016100012498A420CD00122039205E0104A019936
:10162000914203D001220292013596E76F1EF9E73D
:101630000495F0E7250018352900200006AAFFF7D9
:1016400002FF069B013399D029002000FFF730FFED
:1016500091E729002000FFF72BFF93E700FFFFFF32
:101660000000FFFF10B504000368806999682369D2
:10167000C01A4018FFF780FCE068E3694843C018CF
:101680006369C01A10BD0000F0B5076804008069E6
:1016900085B001910130B968FFF76EFC380003AAEC
:1016A0000D00294FFFF7ACFE039BBB421BD0236903
:1016B000AB4208D1002321686A1C896863612261FA
:1016C0008A4200DB2361236AAB4208D100232168F0
:1016D0006A1C8968636222628A4200DB23622900F5
:1016E0002000FFF7C7FE03AAA1692068FFF788FE64
:1016F000039B164ABB4221D1A1692068FFF7AFFEC8
:1017000025001835104A29002000FFF790FE290017
:101710002000FFF77EFE2768A368011D019A3800AC
:101720003E69B04729002000084AFFF780FE2000EC
:101730002900FFF7BDFE002005B0F0BD9342DFD0C9
:1017400001204042F8E7C04600FFFFFF0000FFFF16
:10175000F0B5040085B001912500226AA369203507
:101760009A4203D1626AE3699A421FD003AA290010
:101770002000FFF768FE0F4B039A9A4211D129000F
:101780002000FFF746FE2768011DA368019A380074
:101790007E69B04720002900FFF78AFE002005B0CF
:1017A000F0BD29002000FFF783FED5E7012040426D
:1017B000F5E7C0460000FFFF03002033103006C8E5
:1017C00006C30020704770B505000E000124B44226
:1017D00001D9601E70BD290028002031FFF768FE86
:1017E0000134F4E770B50D0004000A490A4812F00C
:1017F000F1F811F0E9FB094B0100180012F0EAF8CA
:101800002A002100064812F0E5F8064812F0E2F836
:1018100070BDC046C77001004470010051700100E6
:101820005B7001006870010037B56A46002305004F
:10183000D01DD37104F0F4F9041E07D16B46DB7997
:10184000002B03D001220D4B1A7028700C490D4853
:1018500012F0C0F811F0B8FB0B4B0100180012F0A9
:10186000B9F82100631E9C412A78084812F0B2F8AA
:10187000074812F0AFF8E0B23EBDC046A505002013
:10188000E770010044700100517001006A700100AE
:1018900068700100F7B51C4E1C4D3100280012F095
:1018A00099F811F091FB1A4C0100200012F092F807
:1018B000184F19483978C9B212F08CF8174B180034
:1018C000019312F087F83100280012F083F811F02C
:1018D0007BFB0100200012F07DF8114C11482178AB
:1018E000C9B212F077F8019812F074F800220E4B8A
:1018F0001A7005F0B5F8431E98410C4BC0B2387011
:1019000018702070F7BDC046D77001004470010008
:1019100051700100500E00207F70010068700100BE
:101920003D0A002087700100A4050020C90700209F
:10193000002070470020704710B504F007FF10BD6D
:1019400010B504F015FF10BD10B505F0F3F810BD8B
:1019500070B5050005F061F90A212800FFF70CFBBE
:101960002800CCB20A21FFF721FAC0B20A280BD80E
:10197000FFF788F9060B0D0A0A0A0A0A0A0A0F007D
:101980000848210005F04EF970BD0748F9E70748FF
:10199000F7E70749682011F0FBFB06496A2011F0C0
:1019A000F7FBF1E78F700100917001009370010067
:1019B000957001009770010010B505F029F910BD70
:1019C00010B505F03AF910BD10B505F03AF910BDA3
:1019D00010B5040005F021F9632C10D80A2120006D
:1019E000FFF75AF9C1B2682011F0AEFB0A212000BE
:1019F000FFF7D8F9C9B26A2011F0A6FB10BD034960
:101A0000682011F0C5FB0121F5E7C0469370010085
:101A100070B5050004F08EFB2B78064A04001370A5
:101A2000002B01D004F0C8FA29780020FFF7DAFE75
:101A300020B270BDA405002010B504F0BDF904006B
:101A400001000120FFF7CEFE20B210BD10B504F05A
:101A5000EBF9040001000220FFF7C4FE002C0ED1B8
:101A600011F0B2FA084B094A18601368092B08DC18
:101A7000591C1160064A5B00118E064AD15220B2F1
:101A800010BD1460FBE7C046C40700208C05002091
:101A9000D00A00209005002010B504F029FA041E99
:101AA00003D1054BDA6C054B1A6021000320FFF7C8
:101AB00099FE20B210BDC046D00A0020B805002013
:101AC00010B504F0E7F8431E9841C0B210BD10B540
:101AD00005F0BCF8002010BD024B1B785A1E934144
:101AE00003707047980B002000220A4B10B50A497A
:101AF0000A481A7011F06EFF11F066FA084B0100E7
:101B0000180011F067FF074811F064FF064811F054
:101B100061FF10BD980B0020B070010044700100FF
:101B200051700100997001006870010010B504F057
:101B30008FFF431E9841C0B210BD10B504F08CFF5A
:101B4000431E9841C0B210BD10B504F011FB10BD8A
:101B500010B504F021FB10BD10B504F023FB10BD3F
:101B600010B504F0E1FD10BD10B504F085FE10BD08
:101B700010B504F095FE10BD10B504F0A5FE10BD23
:101B800010B504F0CDFE10BD10B504F0F9FE10BD87
:101B900010B504F001FF10BD10B504F009FF10BD31
:101BA00010B504F019FF10BD10B504F029FF10BDE9
:101BB00010B504F02FFF10BD10B504F035FF10BDB7
:101BC00010B504F03BFF10BD10B504F07FFF10BD51
:101BD00010B504F095FF10BD10B505F005F810BD67
:101BE00010B504F0F5FF10BD10B504F0B3FA04F021
:101BF000B1FA124A124B917AC9B21972D17AC9B2AA
:101C00005972517AC9B2D971D17BC9B25973917BDA
:101C1000C9B219735179C9B219719179C9B259719F
:101C20009178C9B29970D178C9B2D970117BC9B213
:101C30009972527BD2B2DA7210BDC046BC0A002043
:101C4000A605002010B504F0FDFD10BD7047002072
:101C500070470120704710B504F05AFE012010BDF6
:101C600010B505F0F3F8012010BD10B505F0F2F83D
:101C7000012010BD10B504F04FFE012010BD10B5BD
:101C800005F026F810BD10B505F03EF810BD10B5F2
:101C900005F058F810BD10B5C04605F06BF8C04609
:101CA00010BD10B505F070F810BD10B505F07AF84C
:101CB00010BD10B505F07CF810BD10B505F084F826
:101CC00010BD10B505F086F810BD10B505F076F81A
:101CD00010BD10B505F084F810BD10B505F086F8FC
:101CE00010BD002801DBC8407047C043C840C04356
:101CF000FAE70000F0B53B4C059DE67C002E0AD1CA
:101D00000227FF37E660A66067821E700378002B0B
:101D10001ED000231EE0A77C0678012F13D1002ED1
:101D200001D00026A6600E78002E01D00026E660C5
:101D30002D4EA768B742E9D9E768B742E6D902262F
:101D4000A674013EE1E7002E15D10E78002E12D1C7
:101D5000A3680133A36000230978994201D1E368A5
:101D60000133E360637C002B0BD181214900636068
:101D700021822B700DE000260127E660A660A77483
:101D8000C3E7217C1378012917D1002B0AD0002347
:101D900023601378002B20D12368013323600023B4
:101DA0006360F0BD6420216841439130FF3081427F
:101DB000F2D9022163602174DBE7002B01D163605B
:101DC000E7E7642163684B439131FF318B4204D9CB
:101DD0000023236001332374CBE70023236063686F
:101DE0000133DDE7BC050020E0A50100014B1860D0
:101DF0007047C046D005002070B505000E001400E5
:101E0000002805D01378012B02D0FFF733FF307084
:101E1000257070BD0022054B5A701A70DA719A71E4
:101E20005A711A71DA709A707047C046D405002052
:101E3000F0B5654F87B00D78019105907B79634AC5
:101E40006349644C002D35D001209D4200D1002013
:101E5000FFF7D2FF65786B1E9D41059B5E4E18789B
:101E600032002100BB7900282AD0834226D00120ED
:101E7000FFF7C2FF002D61D0FB7804930133DBB282
:101E800002933D79029A6B1CDBB2039300230A2A6A
:101E900058D8052D59D0F37100234F4A93714E4AFB
:101EA0005371029BFB70039B052B00D87BE0002342
:101EB0003B7109E02800FFF79FFFCEE70020D7E73E
:101EC000FFF79AFF002DD7D13A78434E551CEBB25D
:101ED0000293029900230A2908D902930A2A05D1FC
:101EE0003379012B61D100220123029233717D7875
:101EF0006C1CE4B2012C5ED9012D5ED1F378012B6C
:101F000056D10024F570B97800224B1CDBB2142B9B
:101F100007D91300142904D1B378012B50D1012221
:101F20000023B270019A12787A71059A12787C7047
:101F3000BA71029ABB703A7007B0F0BD2378002BDB
:101F40009AD1C1E70293052D04D1F379012B18D161
:101F500006230393053D6B425D411F4E049BF571C3
:101F60000A2B99D1E378002B13D0B379012B0CD134
:101F7000019B1B78002B02D0A378002B0BD10023F0
:101F80008DE7FFF768FEE070E2E7FFF769FE0123E7
:101F9000A070B371ECE7104B5B79012B01D0FFF718
:101FA00064FE01237BE7039B82E7FFF750FE9AE77D
:101FB000FFF74FFEA5E70025A4E700252C00A1E7C9
:101FC000FFF744FEABE7C046DC050020D505002046
:101FD000E4050020E3050020D4050020014B186033
:101FE0007047C046E8050020F8B51600069A0500BF
:101FF00012780800002A0ED0684C694FA279002A96
:102000000AD10123A37123713B68664A934200DC25
:10201000BDE0079B1A60F8BD21792A78012911D10A
:10202000002AF1D000226049188822600C235F4A00
:1020300000F0D4F80100B02000F016F95C4B3860D5
:10204000A380E1E763793D68012B5FD1002ADBD1F2
:102050002668002E18DBFA2189008E4211DB300041
:10206000FEF7A4FE002D34DAFA232D189B00584306
:102070003D60002E42DB4F4BF31883420FDD4E4B89
:10208000236002236371BFE780231B069E420DD1AC
:10209000002D2BDA494A731B93422BDB3E60FA2159
:1020A00030008900FEF768FF2160EAE7444B9E425A
:1020B000E7DAFA2130008900FEF778FE002D08DA11
:1020C00080231B065B1B8342CEDD80231B063B6007
:1020D000E5E7002DC8D0384B5A1B8242C4DA3B607A
:1020E000002EDCDAFA239B00584307E0354BED184D
:1020F0003D60D4E7334B3448ED183D6080231B0628
:10210000F3188342CBDA80231B06B9E7002A00D1FB
:102110007AE7012383216371C905006812F08EFC00
:10212000316812F08BFC294912F0A2FA9E21C905F0
:102130002568061CFEF78EFF002804D1002D00DB69
:1021400023D11D480AE0CF21301C0906FEF7A0FF6D
:10215000002806D1002D0EDB802000062D182560FA
:1021600052E7301C12F04CFF002D08DA80231B06CA
:102170005B1B8342F2DD80231B06236044E7002DB6
:10218000ECD00D4B5B1B8342E8DA0B4BF5E7002BE1
:1021900000DA0023079A13603DE7C046EC050020F3
:1021A000F4050020A0208F0028710100F4700100C8
:1021B0000202000001000080FFFFFF7F663BDFFF9F
:1021C00019FCFFFF653BDFFF8802008000007A44B6
:1021D000014B18607047C046F8050020F7B5009223
:1021E0000A880D0082423BD25A00525A824233D9A9
:1021F00000245A08191B012924D86700EE5BED1949
:10220000801B80B212F068FF01906888801B80B24A
:1022100012F062FF011C019812F02AFA051C009BC3
:10222000A4001E591C19311C606812F045FD291CC0
:1022300012F004FC12F0E4FE0400301C12F0E0FE88
:102240002018FEBD5100495B814203D91300E218FA
:102250005208CFE71400FAE7FE255C1EAD05DEE765
:1022600000240025DBE7000007B501AB6A4600F05B
:1022700015F8009B002B03DC04D1019B002B06DA30
:10228000054805E0013304D1019B002B01DA0198D8
:102290000EBD80200006FBE7FFFFFF7FF7B59C46E1
:1022A000C317C4185C40CB170192CA185A40160CC9
:1022B0003700230CA4B2674392B2009353436243A6
:1022C0003C04A4181D042D1994429241A542A44136
:1022D000524264421219009C3F0C66431B0CFB18CF
:1022E0009B199B1800280DD000290BD0C217101A7B
:1022F000CA17521AC00FD20F904203D06D42002D60
:1023000005D0DB43019A136063461D60F7BD5B4255
:10231000F8E70000002001497047C0460000F07F48
:10232000FF20C00570470000002001497047C046EB
:102330000000F0FF00487047000080FF00200149C6
:102340007047C0460000F8FF004870470000C0FF1B
:1023500010B5FFF7F3FF0D4B18605960FFF7F4FF5E
:102360000B4B1860FFF7D6FF0A4B18605960FFF758
:10237000D7FF094B1860FFF7D7FF084B186059606B
:10238000FFF7D8FF064B186010BDC04608060020B6
:10239000FC0500201806002004060020100600207E
:1023A00000060020FF22D2051100002301409142C7
:1023B00002D143025A1E9341D8B270474B0070B508
:1023C00000220D005908184B0400FEF709FE0028F2
:1023D00011D0002220002900144BFEF71FFE00221E
:1023E00000280BD0114B2000290012F0B7FE11F08D
:1023F000D3FD04000D002900200070BD200029003D
:102400000B4BFEF701FE0022002805D00023200020
:10241000290013F04BFEECE7044B2000290014F0D8
:102420000DF911F02FFDE4E7000030430000E03F1C
:102430000000E0BFF0B585B00292254A06008B1877
:102440009B001B580091002B3DDB00240025029BC4
:102450006F01FF18009B9D4232DAAB00F05812F07A
:102460003BFE14F0F1FC3A0011F00EFC14F034FDC8
:10247000011C201C11F072FF0135041CE7E7AA00C3
:10248000B7580135DB1B013B1800019312F024FE05
:1024900014F0DAFC039A11F0F7FB14F01DFDFF4372
:1024A000011C201C12F008FC019B041CBB429B4138
:1024B0005B4202996A0152180392009A9542DEDB50
:1024C000201C05B0F0BD012300240025F1E7C04623
:1024D000FFFFFF3F0122024BDA711A727047C046BC
:1024E0002006002010B5244C23685A1C01D001336B
:1024F0002360A379002B0BD10122A27192182271C3
:102500000B70627123601D48FFF78EF9E07110BDFA
:102510002379012B0CD10B700278002AF7D002220C
:10252000227100220A7063712260FFF7B3F9EEE7AF
:1025300000230B706279012A0BD102789A4203D1F1
:10254000023363712260DEE722681D2ADFD923602F
:10255000EBE7E279002A02D001226271F7E7237AE1
:10256000002B04D023681D2BD1D90223E9E70123D6
:10257000A3800B70CBE7C046200600202806002071
:10258000014B18607047C0462C060020F0B5ADB076
:102590000C6834991CAF0C6000218C424ADC00218D
:1025A0008B4200D0118800220926349B14A85C605D
:1025B0001CAD944246DC349B00259C60E343DB1752
:1025C00023401A00002104A8039314F011FDE3B284
:1025D000019314AA9D423FD100230293019B022B39
:1025E00001D9EB1E029300218C461CAA04AB009279
:1025F00002998C4535DB349B0CAEDC600021039ADC
:10260000300014F0F5FC04A92A00300014F006FD97
:102610000021019B8B4200D0691E330000228A42B8
:102620003EDB339B1C60349BD96800238B4251DB1B
:102630002DB0F0BD00264D00B34200D0465B7E5366
:102640000131AAE753005B5B5B1A9BB29E429B4140
:102650005B4213540132ACE7A95C04A84155013533
:10266000B8E701218C4400215956012912D10121DA
:10267000595601290ED10220185601280AD1568830
:1026800017880021B74208D29788B74205D219703F
:102690005870997001330232AAE759700121F8E7A6
:1026A00000201856013201280DD101255D57012D5A
:1026B00009D1009800888446009847880020BC45CE
:1026C00006D818705D700098013302300090A6E7BC
:1026D0005870F8E7F256501E82413298C2540133C6
:1026E000A4E700000122024BDA7000230360704768
:1026F0003006002084461000F0B585B01C000B9B0E
:102700000A9A1E880C9B00781B78178840B2002B11
:102710000BD0002808D1AF2503002D01AF420AD30A
:102720003A48B0425B4106E00023013003D1AF20BC
:1027300000018742F4D21098DBB20370344B9878D2
:102740001E2801D8013098705878002812D104242E
:10275000FF341C8098702F480F9B1B7802900E98B6
:1027600001900D9800906046FFF710FFFFF738FAD0
:1027700005B0F0BD1878012818D002283ED098780E
:102780000128F5D920780128F2D1109CDD7826782F
:10279000AE42EDD10B9C15882488641B222CE7DD0A
:1027A0000F9C20700130187023001CE02078002856
:1027B00006D1002003240F9B1870154B1C70C9E72D
:1027C0000128D5D198781328D2D910980578D878CF
:1027D0008542EED10B9814880088001B0928E8DD9B
:1027E000022018700F9B0B481B7802900E980190E6
:1027F0000D9800906046FFF7C9FEB9E701221A70F4
:1028000000229A70FFF7E8F9B2E7C04668100000AE
:102810003006002034060020014B18607047C04687
:10282000440600200222034BFF321A82013AFF3A8B
:102830009A74704748060020F0B585B002930A9B51
:1028400003921A780C9E0D9F994B00900191002ADB
:1028500000D12BE101221A75DA7A7E2A01D80132E1
:10286000DA72934CA37A002B14D10133A372033391
:1028700063723800FFF788F960743000FFF788F959
:10288000A0740B98FFF78CF920740E98FFF784F969
:10289000E07448E0637A032B54D035D8013B012B18
:1028A00038D9009B00211D68281CFEF7CDFB0028AD
:1028B00000D07CE00021281CFEF7E0FB002847D078
:1028C00001227B4B5A72306812F006FC291C11F071
:1028D00045FD9F21C905071CFEF7BCFB002834D02D
:1028E000381C11F039FC029B3060186812F0F4FBC0
:1028F000011C281C11F0BCFE0E9B011C186811F075
:102900002DFD0E9B18600EE0042BCAD12369002B0D
:1029100006D0AEE7019B1B78002B04D10122E273A5
:102920000522E3726272624DAB7B7E2B01D80133CC
:10293000AB736B7B002B52D10422FF32AA81AB73A5
:1029400005B0F0BD0023E373EAE701204042CAE787
:102950000021281CFEF77EFB002828D00222544BC1
:102960005A72802338681B06EE1812F0B5FB291C3A
:1029700012F0A2F99F21C905051CFEF76BFB002888
:1029800012D0281C11F0E8FB029B3860186812F086
:10299000A3FB011C301C11F06BFE0B9B011C186883
:1029A00011F0DCFC0B9BADE701204042ECE7404B13
:1029B000DA7A632AB7D9DA7B002AB4D003225A72B2
:1029C0003868FFF7F1F83068FFF7F2F80B9B1868EA
:1029D000FFF7F2F80E9B1868FFF7F2F8A3E72A7BDF
:1029E000012A35D0019B1B78022A36D0002B3CD01F
:1029F000009B00211E68301CFEF72CFB002834D001
:102A0000022328682B73311C12F056F9009B2860B2
:102A1000186880231B062749C01811F029FE9E2143
:102A2000C905051CFEF716FB00281CD0281C12F057
:102A3000E7FA12F005FB039B196811F0FFFF8321F1
:102A4000C90511F0FBFF616811F088FC606077E751
:102A500000232B7203222A7371E7002B00D06FE74B
:102A600001222A72F6E71448E3E7AB7B632B00D818
:102A700066E70823EB56012B00D061E72B730F4963
:102A8000286811F0F5FD2860FFF79EF8002202216A
:102A90000B48FFF7CFFC011C686811F0E9FD686086
:102AA000FFF796F800232B606B6049E71A7547E73C
:102AB0004806002000007A44FFFFFF7F00BA5B4A0F
:102AC00070710100014B18607047C046600600201D
:102AD00010B52F4B5A7C002A06D10424FF349A608B
:102AE0005A601C820A7018E01C7C0268012C10D00D
:102AF000022C36D0002464323CDB9C600268642ADD
:102B000040DD5A68322A0BD901221C601A74FE3249
:102B1000E8E7312A1CDD00221A600268312A34DD20
:102B200000221A6001680022642901DD5A6801321E
:102B30005A6001680022643101DA9A6801329A60B1
:102B400001680022313101DBDA680132DA6010BD40
:102B50001A68322A19D9002203249A605A601C7418
:102B6000C0E7313202DA0022DA60D6E7DA68322AC8
:102B7000F1D8D2E79A68322A04D90222DC601A74AA
:102B8000013AAFE700225A60C7E71A680132C8E786
:102B900064060020014B18607047C046780600208C
:102BA0000222034BFF32DA80013AFF3A1A72704771
:102BB0007C060020F8B5414C06002068079D471CA4
:102BC00001D001302060607900280BD10623FF334B
:102BD000A380053B2060FF3B2870E371FEF7A8FE51
:102BE000E0713DE020790138032856D8FEF74AF815
:102BF00002183952012028701B78002B03D1069B44
:102C00001B78002B2CD00323237100232360013376
:102C10002372128809683068FEF792FE20721FE066
:102C200002222A70A379002B11D0642123684B4320
:102C3000FA2189008B4213D30023227123600133D0
:102C4000A371FEF779FEFEF775FEA07108E0236818
:102C5000092B05D904232371013B2B70FEF774FE69
:102C6000F8BD237A002B06D0642023684343144820
:102C70008342F5D9C9E7069A1278002A04D0089A47
:102C800013700123237106E00223226023712B704D
:102C9000013BD5E703232B70E2E700222A70E3799A
:102CA0009342EED0642123684B43FA2189008B4282
:102CB000D6D3052322602371043B8EE77C060020D7
:102CC000B70B0000014B18607047C0468806002013
:102CD000F0B5D44CB5B00E222000D349D34F14F038
:102CE0009DF9D348D34AD44BD4490090200002F038
:102CF00097FBD34BD34819002E93FFF7F3FBD24C2D
:102D0000D24A2388106801211A0088423DDC3A82A9
:102D10000122904242DC7B821422BB5E39003E00DD
:102D20009C460025F28A0135101C12B2624500DD76
:102D3000604602B294460236062DF3D1002578840F
:102D4000CA8A0135101C12B29A4200DA181C03B26A
:102D50000231062DF4D1BE49B8842E9801F0CCFE84
:102D6000BC4B997F002922D1012219619A775A77A9
:102D7000AC342278511E8A41390031310A703A0050
:102D80000832D27F002A24D018E14D00665B351C42
:102D9000964200D2151CAAB20131B6E75100655A1D
:102DA000291C9D4200D9191C8BB20132B1E73A00AF
:102DB000597F0832D27F012900D0F2E0002A00D0EA
:102DC000FCE01969312904D90221597739003131E0
:102DD0000A701A690132A04E1A61A04B3100180026
:102DE0001C00FFF775FE9E4B9E4A2F939E4B33AD02
:102DF00025939E4B200024939D4B23939D4B229320
:102E00009D4B21939D4B309320939D4B31931F936A
:102E10009C4B1E939C4B1D939C4B1C939C4B1B9358
:102E20009C4B1A939C4B19939C4B18939C4B179556
:102E300016939C4B159614939B4B13939B4B129399
:102E40009B4B11939B4B10939B4B0F939B4B0E9360
:102E50009B4B0D939B4B0C939B4B0B939B4B0A9360
:102E60009B4B09939B4B08939B4B07939B4B2E9932
:102E700006939B4B05939B4B04939B4B03939B4B5C
:102E800002939B4B01939B4B00932F9B00F0B4FF4D
:102E9000994C0021206CFEF7D7F80123002802D0BE
:102EA0002B785A1E93412C3423706A4B5A7E002A89
:102EB00000D085E08121490019833B002E331A7030
:102EC000FA688E4B38681A6012F006F98C4C8D4BFC
:102ED000206006938C4B604E05938C4B5A4D0493A7
:102EE000854B320003938A4B280002935D4B574970
:102EF00001935B4B2F9600932E9BFFF7FBFB554CEA
:102F0000844B226A2E001A602A00AC36A532127851
:102F1000337804A913435A1E9341BD2252187E49A7
:102F2000137005917D494D4B04917D49454A0391AC
:102F30007C492F9802917C4901917C4900912E99FE
:102F400000F044FC337801229C46614613000029BE
:102F50000AD02B00A2331B78002B00D11A002B00C3
:102F6000A3331B78591E8B41BF2104A809180B708D
:102F7000217F002900D0E7E038002F3001700220C7
:102F8000FF3060830138FF3820773800303001701F
:102F9000002A00D16EE22F4A9160002B00D103E19C
:102FA00018E1AC342178002900D1E8E6002A00D1EC
:102FB0000FE73900012231315A770A7000220AE7FF
:102FC0001A7E012A27D03A000832D27F002A22D066
:102FD0007A8A012A1FD901221A763B002E331A70F1
:102FE000534B1B4A0793534B30990693524B3198DE
:102FF0000593524B08970493184B02960393504B3A
:103000000193504B00932F9B02F012F87B683A4AD1
:10301000BB60536254E73B002E331B78002BDFD19B
:103020004EE7C0460C0800204A0A0020F80700209E
:10303000E8060020E0060020E4060020C407002087
:103040001E080020C90700201C07002018070020C8
:103050001F080020D4070020FE060020B80500202D
:103060000A08002008080020DA060020D9060020FF
:10307000D8060020D7060020D6060020D50600205E
:10308000D4060020D3060020D2060020D10600205E
:10309000D0060020CF060020CE060020CD0600205E
:1030A0002008002029080020B4050020B3050020D6
:1030B000B2050020B1050020B0050020AF050020BA
:1030C000AE050020AD050020AC050020AB050020BA
:1030D000AA050020A9050020A8050020A7050020BA
:1030E000A6050020BC070020BB070020580A0020CE
:1030F0001C0800201A080020A00600206C0A0020EE
:10310000640A0020FC060020FD060020F4070020D1
:10311000D10700209C06002021080020D0070020B5
:10312000CF070020CE070020CC070020CB070020CF
:10313000040800208C07002060070020980600206B
:103140005A0A0020600A0020A07EE17E01282FD1CB
:10315000002A18D101290BD1002B10D00223E376CD
:103160003B00012230331A70A3689B18A36031E042
:10317000002B00D077E1E2680C2A00D976E1A36841
:103180000133A36010E00026A6600236A676C24E88
:103190002E96C24E3070012900D053E1002B00D092
:1031A0004AE10022BE4B9A60BD4BDB68013312E05E
:1031B000002A00D12EE10020A060012900D041E1C9
:1031C0008342EED00223E3763B00303319700022B5
:1031D000B34B9A600023B24AD36062460123002AAF
:1031E00003D09C352B785A1E9341BE2404AAAD4DC2
:1031F000AA4EA418AC4A23702E92AC4B0092290020
:1032000022003000FEF776FD2A78337813432E9A99
:103210001278134300D131E1A54AA64B1278002A57
:1032200000D12DE100232370BF24A34D04AAA418CC
:1032300023702C95A14DA24B2B95A24DA24A2A9505
:10324000A24DA3492995A34DA3482895A34D2795A1
:10325000A34D2695A34D2595A34D2495A34D2395C8
:10326000A34D2295A34D2195A34D2095A34D1F95C8
:103270001394BE24A24D1E95A24D1D95A24D1C95E2
:10328000A24D1B95A24D1A95A24D1995A24D1895C8
:10329000A24D1795A24D1695A24D1595A24D1495C8
:1032A00004AD64191294A14C1194A14C1094A14C3A
:1032B0000F94A14C0E94BD2464190D949F4C0C9452
:1032C0009F4C0B949F4C0A949F4C09949F4C0894DC
:1032D0009F4C07949F4C06949F4C05949F4C0494DC
:1032E0009F4C03949F4C02949F4C01949F4C0094DC
:1032F00001F06EFC9E4A9F4C9F4DA04E0192A04A49
:10330000A04B290030002E9200922200FEF76CFEA6
:103310009D499E4800F060FB9D4B200004939D4B0F
:103320002A0003939C4B310002939C4B01932E9BEC
:1033300000933B00FFF780FA5D4B594C1B78002B44
:1033400005D03B002A331A780123002A02D1A37D3D
:103350005A1E9341BE21924D04AA521813709149EE
:103360002A00774800F0D6F98F4B04A92E930293D8
:103370008E4B8F4A0193BE238E485B180095210027
:10338000FFF718FC8C4ABD201292804A524B1192D2
:10339000654A69491092894A04AD0F92884A4019DA
:1033A0000E92684A0D92684A0C92684A0B92684ADB
:1033B0000A92684A0992684A0892684A0792684ADB
:1033C0000692684A0592684A0492684A03923C4A07
:1033D00002923D4A01923E4A0092320000F088FB80
:1033E00030492E48FEF724FD3B68764A6360FB684F
:1033F00023607B8AA3823B0028331B78A3752E9B16
:103400001B78E37593680133092B00D9002393607F
:1034100035B0F0BDA0680C2808D8012900D19BE682
:10342000002B20D1E1680C2913D8A8E60120A07652
:1034300038002F300270F0E702232E9EE3763036FC
:103440003170C4E6002B00D0C1E6E1680C2900D839
:10345000A7E601213800E1760021303001708A4270
:1034600008D0A160A0E6A36801337FE63A003032BD
:10347000E07613700A4A916801318CE50123D2E6A7
:103480001A00A6321278B733511E8A4122701B7877
:103490005A1E9341C8E6C046F807002027080020BE
:1034A000D40700202808002023080020220800203C
:1034B000C80700201C07002017070020160700205F
:1034C000CF06002015070020CE060020140700209C
:1034D000CD06002013070020CC0600201207002094
:1034E00011070020100700200F0700200E07002002
:1034F0000D0700200C0700200B0700200A07002002
:103500000907002008070020070700200607002001
:103510000507002004070020030700200207002001
:103520000107002000070020C0060020B907002086
:10353000B8050020480A0020210800201E080020AD
:10354000FE060020DA060020D9060020D80600205A
:10355000D7060020D6060020D5060020D40600207D
:10356000D3060020D2060020D1060020D00600207D
:10357000C8060020600A0020C40600201F080020A2
:10358000260800200A080020DC060020040800208D
:10359000F8060020F4060020F0060020EC060020CB
:1035A00024080020EB07002025080020FF0600204B
:1035B000E8070020D8070020D2070020CA07002013
:1035C000C90700208C06002002223B4B10B51A6070
:1035D00000223A4C5A609A60394A8EB02000DA6074
:1035E000FEF7CEFF2000FFF76DFB2000FFF714F978
:1035F0002000FFF7CFFA2000FEF7F8FB2000FEF7CF
:10360000E7FD200002F08AF8200001F0D3FA200044
:1036100000F010FA2000FEF7E1FC2000FFF752FA5C
:10362000200000F0C7F8200000F0A0FB200001F00F
:1036300049FA200000F0CAF9200001F0E3FC200064
:1036400001F0E4FE1F4A204B12681A60FEF742FFA9
:1036500001F03EFA1D481E4B0A901E481E4A099072
:103660001E481F4908901F4807901F4806901F4892
:1036700005901F4804901F4803901F4802901F4860
:1036800001901F4800903720684400F075FB01F05E
:10369000C5FC1C48FFF726F800F092F801F090FAFC
:1036A000FFF7C0F800F030F8FFF77AFA00F018FAE8
:1036B000FEF7B0FB0EB010BD2C0800208C060020D9
:1036C000900600205C0A002098060020DA06002000
:1036D000CF060020D9060020CE060020D806002004
:1036E000CD060020D7060020D6060020D5060020F3
:1036F000D4060020D3060020D2060020D1060020E8
:10370000D0060020F40700200122014B9A80704768
:103710004808002070B5244C150023685A1C01D0BD
:1037200001332360E379002B05D10222FF32E280CE
:103730002B70237214E0A379022B1AD0032B20D014
:10374000012B22D1227A002A0FD000228256002A91
:1037500007D000260233A3712660FEF7C5F92E704C
:1037600070BD0422A2712B70FAE71048FEF7B4F97D
:10377000F6E70422A35E002BF2D00123A3710023FD
:10378000D6E72368632BF8D8EAE70B78002BE7D15C
:103790002B700233A371FEF79AF9054A031C90427D
:1037A00000D9131CA380DBE7480800205008002044
:1037B000FF7F0000014B18607047C046540800208E
:1037C0000222014B5A71704758080020F8B50026B4
:1037D0000978069F0B9D1278B1420BD0B24209D1F5
:1037E00000228256B24205D1C8221B685200C8335B
:1037F0009A427641704C714A2388934201D8013332
:103800002380A379002B05D10122A2710A32A27074
:10381000238036E0A07801380B2800D9BDE0FDF701
:1038200031FA060C1117321356565A8A8C9E06230B
:103830000420A370FEF749FAF8BD6379012B10D17B
:103840000733F5E7FEF749FA0B23A3700023DFE700
:103850002379012B05D102200933A370FEF72DFA3D
:10386000EAE7002B04D0962322885B009A42E3D338
:103870000520FEF72AFA03230020A370FEF715FAAD
:1038800000232B70D8E7E378012B07D10220FEF745
:1038900020FA0923A37000232380CDE7002B04D056
:1038A000962322885B009A4206D30520FEF70DFA84
:1038B0000220FEF70EFADEE73E78002EBCD1022091
:1038C000FEF707FA0B232680A3702E70B4E73B782F
:1038D000002BDED1B8E7079B1B78032B07D10F2005
:1038E000FEF7E7F90C230020A3702080A2E70A9BD3
:1038F0001B78012B07D100233148238005336380D7
:10390000FEF7C5F998E7099B1B78002B0AD1013314
:103910000220A370FEF7BFF9FEF7C3F90F20FEF7F0
:10392000D0F989E7962322885B009A42A0D23B789F
:10393000002B89D080E707237AE73B78012B00D062
:103940007AE7002E01D02B70A3E72388132B00D831
:1039500072E703233000A370FEF7A7F9B5E7079BD2
:103960001B78012B0ED0022B00D07CE700250B33F7
:103970000320A3702580FEF78EF90F20FEF799F93A
:10398000280057E70423A37000230F202380FEF7AD
:1039900090F90C48FEF777F94EE7089B1B78012B4E
:1039A00000D060E70133A370002307482380FEF7AF
:1039B00066F90F2052E7C04658080020FE0F0000AD
:1039C0005B0800205C0800205D080020014B1860A7
:1039D0007047C0466008002070B504680D00201CC8
:1039E0001049FDF74BFB002819D10021201CFDF7E1
:1039F00031FB002800D00024201C13F025FA02001F
:103A00000B000020084912F019FE084A084B12F07A
:103A10004DFBFEF7D3FC10F0B7FB288070BD014CC6
:103A2000EAE7C0460000A0420000544055555555F5
:103A300055550940014B18607047C0466408002086
:103A400010B50024A14246D101780134002942D1A9
:103A50008179013400293ED14178013400293AD1DD
:103A600001790134002936D141790134002932D15C
:103A7000817A013400292ED18178013400292AD19C
:103A8000C1780134002926D112780234002A22D1CB
:103A9000C2790134002A1ED1027A0134002A1AD1D7
:103AA000427B0134002A16D1027B0134002A12D154
:103AB000427A0134002A0ED1029A01341278002A87
:103AC00009D11B780134002B05D1039B03341B78EB
:103AD000002B00D1153C014B9C8010BD68080020D4
:103AE0000122024B52429A807047C046680800206B
:103AF000F0B51B7891B09C460A9262460CAB1A70E6
:103B0000169A09911178179A597012780B909A7039
:103B10000292189A1278DA700392199A12781A712E
:103B200004921A9A12785A7105921B9A12789A7115
:103B300006921C9A12780792DA71229A219F1278C3
:103B4000209E08925A73239A3F7812781F9D9A7389
:103B5000089A36781E9C2D781F731D981743247879
:103B6000DE723E4300789D7235435C72079A2C43A7
:103B700018722043024306980B9B024305981B785A
:103B800002430498024303980243029802431143FC
:103B9000624611430122002911D124990978002994
:103BA0000DD125990978002909D12699097800298C
:103BB00005D1002B03D0289A1278511E8A41684CF7
:103BC00068482168814201D801312160A17A002929
:103BD0000CD10123A372644B2160E380279B1868FA
:103BE00010F0BAFAC0B2FDF7F3FE36E059424B418D
:103BF000A779DDB2099B1E78012F0AD0022F00D1D0
:103C00006AE0002E00D096E0574B6672E380266093
:103C1000E4E7002E0AD003230025A3712572FDF7E7
:103C2000D3FE022325606372642014E0207A0138F9
:103C3000032842D84A4CFDF725F8022A1E2A0423FD
:103C4000E05E002308280ADC052223602272FDF7CB
:103C5000B7FE0423E05EFDF77BFE11B0F0BD03224A
:103C600022722360F7E7002AF7D13F4BE38000235D
:103C700023722360B2E76422236853439132FF32F8
:103C80009342EAD3022323720023236021E06421BC
:103C900023684B439131FF318B42E4D301232372DC
:103CA0000023A380289B29000193269B249A00933C
:103CB0000CA8259BFFF7C4FECFE76422236853437B
:103CC0009132FF329342C8D3042326602372FDF75A
:103CD0007BFEFDF771FEC0E7002E07D00323E380D3
:103CE000FDF772FE0023677223609DE7002A06D06D
:103CF0000127E780FDF760FE2772A680D2E7E3790F
:103D0000012B0DD10A9B1B78002BA6D064212368C0
:103D10004B439131FF318B429FD3E77122605DE7C6
:103D2000642123684B439131FF318B4295D30123AA
:103D30002260E371CDE76420FA222368617A43436D
:103D40005200012906D1934200D286E70223637212
:103D5000002386E7934200D27FE70123637293E753
:103D600068080020FEFFFF0302020000014B1860FC
:103D70007047C0467408002030B500241B4D2C70DD
:103D80006C70AC70EC702C716C71AC71EC712C724D
:103D90006C72AC72EC722C736C73AC730470089818
:103DA0000470099804700A9804700B9804700C98B9
:103DB00004700D9804700C7014701C70039B012229
:103DC0001C70049B1C70059B1C70069B1C70079B41
:103DD0001C70074B1900D8310A7006491C701A6311
:103DE0005A639C63D9625A601A8130BD5809002019
:103DF00078080020B0080020F0B597B00793239B07
:103E00000E921B7811910893249B07001B7809934D
:103E1000259B1B780A93269B1B780B93289B1B786A
:103E20000093299B1B7801932A9B1B7802932B9B61
:103E30001B7803932D9B1B7804932E9B1B78059373
:103E40001D9B0020185EDA4B5A7A002A01D000220E
:103E50005A72DC6A00232268012A0AD0FE2101225C
:103E600089052260A360E36023616361A161E3616E
:103E70002271A369A5680693E36813AE13932369BF
:103E8000149363691593E3690C9311F0D9F8291C15
:103E90000F9010F063FA0D90069811F0B1F8002120
:103EA000451E0C98FDF7D0F8AD00002800D1E1E0E8
:103EB00071590D9810F052FA10900F9B13AEBD4936
:103EC00006987351FDF7C0F8002800D0D5E0FE2118
:103ED0000698890510F042FA051C00210C98FDF7A0
:103EE000B3F8002800D1D7E0FA211098890510F026
:103EF000A5FD06900D9B0021A360139B0C98E36029
:103F0000149BA5612361159B6361FDF7B7F8002839
:103F100000D1C4E0FE210C98890510F0CDFEA64A20
:103F2000E0611178A24B002901D101311170C03339
:103F30001A88A2498A4201D801321A80A0489C4BB3
:103F400002888A4201D801320280C4331A888A4228
:103F500001D801321A809B49954B0A78002A00D07B
:103F60009FE00120087018001C00A83002600220A9
:103F7000D03420701C00903422601C0098342260E1
:103F80001C00B83422601C00D33420701C0008349C
:103F9000E26704251C00FF35C63425801C008A4DCD
:103FA000C83425601C00894DCC3489492580329C59
:103FB0001A679A67DA671A660A714A718A728A7092
:103FC000CA70CA720A724A7222701C00D4342070FD
:103FD0001C00B43422601C00D23420701C00B034A9
:103FE00022601C00D134CA714A73207018009C30C2
:103FF00002601800A43002607648CE330A734A701B
:1040000018800A70079B1988734B188A684B814285
:1040100001D900F00EFC1A6E01321A6600228142AC
:1040200002D1634B5A6E01320020614B5A66319ABD
:1040300010560022013001D09A6E01329A661D9A04
:10404000664C0020105E0022A04201DD00F0F5FB6E
:10405000DC6E1A670134DC66FA246400A04201DCDD
:1040600000F01AFC5A675E4B984201DC00F017FC26
:1040700000F0EAFB002310931FE7B168706810F0AE
:104080006DF9011C7060139810F068F9FE2500238B
:104090001390AD050D9320E7002306932AE7002037
:1040A0003DE7119A11781A00C7321078012867D1BC
:1040B000002907D002224B4B1A7000223E4B1A7087
:1040C000FDF792FD48481D9B04780021595E0022AF
:1040D000374B012C00D093E0404CA1425ADDDA6608
:1040E00042481D9B04780021595E0022304B012C70
:1040F00000D0B2E0F434FF34A14200DC9EE05A6705
:104100003B481E9B047800229A5E0021284B012C1C
:1041100000D0D2E0E124A400A24200DCBBE0AC333A
:10412000196034481C9B047800229A5E0021204BC1
:10413000012C00D0F1E0323200DBDCE08C3319607E
:104140002D481C9B047800229A5E0021184B012CFC
:1041500000D011E1323200DBFCE0943319602748D3
:104160001E9B04780021595E0022114B012C00D0C7
:104170006EE11C00BC34963100DB1BE1226022E1C1
:10418000002902D1012313709CE7D6331B78002B42
:1041900098D08FE70A9A002AA2D1DA6E632A9FD9B3
:1041A0000A9A1A6702230370094B1A7198E7C046EE
:1041B00078080020000040404E090020FE0F00005B
:1041C0003A0900204D09002002020202020200000A
:1041D0005809002003030000700A00208A02000032
:1041E000260200003F09002040090020410900206C
:1041F0004809002044090020450900204B090020FF
:10420000AF208000814200DC1A670A9B012B09D095
:10421000319B1B78012B00D962E7B94B1B6F132B25
:1042200000D85DE700220124B54B0620DA66C833CA
:104230001C70FDF707FDB34B1C7151E70B9A002A68
:1042400000D05DE75A6F632A00D859E70B9A9A6746
:1042500002230370AB4B5A7152E7AB48814200DC3A
:104260009A670B9B012B0AD0319B1B785BB2013301
:1042700000D045E7A24B9B6F132B00D840E70022EC
:1042800001249F4B07205A67C9331C70FDF7DAFCE5
:104290009C4B5C7134E7039A002A00D041E71A0076
:1042A000AC321268632A00D83BE7039AA8331A603D
:1042B00002230370934B9A7233E7FA208000824204
:1042C00011DCA8331960039B012B00D029E70022E1
:1042D00001248E4B0A201A608D4B1C70FDF7B2FC36
:1042E000884B9C721DE7039A012AF0D0A8331B6803
:1042F000092BECD815E7089A002A00D020E71A000D
:104300008C321268632A00D81AE7089A90331A6030
:10431000022303707B4B9A7012E7643201DB903307
:104320001960089B012B09D0319B1B78012B00D908
:1043300006E7784B1B68132B00D801E70022012405
:10434000754B08201A60754B1C70FDF77BFC6D4B9C
:104350009C70F5E6099A002A00D000E71A00943212
:104360001268632A00D8FAE6099A98331A60022381
:104370000370644BDA70F2E6643201DB9833196043
:10438000099B012B0AD0319B1B785BB2013300D013
:10439000E5E6634B1B68132B00D8E0E600220124FE
:1043A000604B09201A60604B1C70FDF74BFC554BAD
:1043B000DC70D4E62168632905D9B8331A6002237A
:1043C0000370504BDA7259480E9B04781A8858498A
:1043D0004B4B012C5CD1498991424BD200220433D2
:1043E000DA67544A079B10781988514A444B0128D0
:1043F00069D1D2898A4202D9002288331A60029B8D
:10440000002B12D14A4A3E4B14790A22180062430B
:10441000883000684849904207D3029ACB33CA6774
:1044200002221A70374B029A5A724449344B087868
:104430003F4A012800D187E0022800D198E0079880
:10444000148A00880022A04200D83AE11A668FE060
:104450001C00B834C83100DB90E621680929B2D9C4
:104460000124BC3304700B201A60FDF7EBFB254BD5
:10447000DC72A8E7019A002AB3D11A1DD26F632A11
:10448000AFD9019ADA67022303701E4B1A72A8E7AC
:104490000989914210D90022DA67019B012BA0D132
:1044A00000220124264B2000DA67204B1C70FDF708
:1044B000C9FB144B1C7294E7019A012AF0D0DB6F00
:1044C0001D2BEDD88DE792898A4211D20022083344
:1044D000DA67029B012BA8D100220124194B02208C
:1044E0001A60144B1C70FDF7ADFB064B5C729CE729
:1044F000029A012AF0D00833DB6F3B2BECD894E70B
:104500007808002058090020260200002409002015
:10451000480900200809002004090020440900205F
:10452000100900200C090020450900204209002044
:10453000700A002043090020800800203E09002066
:104540007C080020000900203199097849B2013126
:1045500001D1002199660A2110784143986E884262
:1045600000D299E00222C6331A700123329A1370E6
:10457000B94ABA4B1178012900D0ADE0C43319888B
:10458000B74B58780A234343994207DB009B002B23
:1045900004D102331370B34B009ADA71B249AF4BB6
:1045A0000878AF4A012800D0A2E0059800280ED173
:1045B00094780A2218006243C2300088904206DBD9
:1045C000059AB4331A6002230B70A64B5A73A7499D
:1045D000A24B0878A24A012800D0A8E0049800283D
:1045E0000ED1D4780A2218006243C030008890426D
:1045F00006DB049AB0331A6002230B70994B1A73CE
:104600009B4B964C1A78012A25D0022A00D0AFE0A5
:104610001F9A1278002A1ED101320E201A70FDF75F
:1046200011FBE56DA46D002220002900914BFCF7E1
:10463000D7FC002800D199E00022002320002900A7
:10464000FCF7ECFC002804D0200029000FF09CFDB2
:1046500080B2FDF791FA884D804C2B78012B00D168
:10466000B9E0022B00D1BFE084490698FCF706FDB3
:104670002300A433002800D1CDE01B68092B00D80B
:10468000C0E4FDF775FA00230122A0342360023351
:104690002B70744B1A70B5E407990888118A0022B0
:1046A000884201D25A6663E79621586E8900884293
:1046B00000D25DE703211A66C6331970329B1A7067
:1046C00056E7186EC72800D852E79A665A66012343
:1046D0000B70FDF745FA4BE70099012900D05DE723
:1046E00011700022C43303201A80FDF7ABFA52E7A1
:1046F0003968126A914212DB0022B4331A60059BBA
:10470000012B00D063E701240022574B04201C70CA
:104710005B4B1A80FDF796FA524B5C7357E7059A8C
:10472000012AF0D0B4331B68642BECD84FE739680A
:10473000526A914212DC0022B0331A60049B012BB2
:1047400000D05DE701240022484B05201C704D4B32
:104750001A80FDF777FA434B1C7351E7049A012A3C
:10476000F0D0B0331B68642BECD849E7464870E7BB
:104770000E9A3B681088079A1288801A002B04DA78
:1047800080221206934207D05B42404A934203DCE8
:10479000FA235B00984202DC00223D4B1A601F9B0B
:1047A0001B78002B09D13A4B1B68C82B00D852E765
:1047B000309B1B78002B00D14DE702222C4B274C5D
:1047C0001A7012F013FBA065E165FDF7CDF9012227
:1047D000244B5A703FE70022A034226002322A7034
:1047E000204A1370FFF70EFC2600209BD7361B785B
:1047F0003278134307D101240F202C70FDF722FAE1
:104800003470FFF7FFFB23490698FCF723FC2300D5
:10481000A033002802D11860FFF7F4FB1B68092BB6
:1048200001D8FFF7EFFB0023A43403223370236089
:10483000D5E700221A66FFF7F4FBAF24DA66A4007E
:10484000A04205DC1A675A67044B9B6F013327E0CF
:10485000186F01301867F6E74C090020780800202F
:10486000700A0020580900204A0900204909002048
:10487000460900200000F0404709002000803B442A
:104880003A09002038090020FFFF000087130000CC
:104890001409002000002A445A6F01325A6700238D
:1048A0007F4C8048A3670E9B05891A880023954298
:1048B00001D8E36F0133E36740890023904202D3BC
:1048C000231DDB6F0133201D764DC367AB890020AC
:1048D0008B4203D323000833D86F0130724E704BE4
:1048E000F067ED8900208D4203D8180088300068F9
:1048F00001301D00883528601C981D000026865F49
:104900008C35300032300DDB28680130286018000B
:10491000002590309433056018680130634B1860AF
:10492000002310E0002028601D009035643601DB74
:104930002860F3E72E6801362E601D0098331B684F
:104940009435286001335A48554D03603868002873
:1049500005DA802600233606B0420DD04042554E7F
:104960000023B04208DC521AFA2149008A4203DDD2
:104970002B009C331B6801332A009C324E49069859
:104980001360FCF767FB002803D02B00A0331868E6
:1049900001302B00A033186048490698FCF76EFBE5
:1049A000002803D02B00A433186801302B00A43357
:1049B00018601E9BFA2100229B5E2A008900A83203
:1049C0008B425ADD11680131116000222900AC319F
:1049D0000A6034493E68486A0022864203DD2A00A4
:1049E000B032126801322800B03002603868096ABB
:1049F0000022884203DA2A00B43212680132290008
:104A0000B4310A602A001900B832C83140DA13689C
:104A1000013313600023BC342360294B33991A7887
:104A20000A705A7A3C990A709A7A3D990A70DA7A31
:104A30003E990A701A7B3F990A705A7B40990A7016
:104A40009A7B41990A705A7834990A709A78359904
:104A50000A70DA7836990A701A7937990A705A7991
:104A600038990A709A7939990A70DA793A990A70FC
:104A70001B7A3B9A137017B0F0BD00211160E12240
:104A800092009342A1DC2A00AC32126801329DE709
:104A9000002111609633BDDBBC352B680133BAE7CA
:104AA00078080020700A0020800800200C090020EF
:104AB000100900208713000000002A4400803B44B6
:104AC00058090020014B18607047C0466809002053
:104AD0000122024B52421A807047C0466C090020E6
:104AE0000122044B52421A8000225A809A8002709E
:104AF0007047C0466C09002070B503780D002B4C40
:104B0000002B50D0A379002B04D10800FFF7E8FF59
:104B10000123A371E678002E0ED10123E370FCF788
:104B2000CFFF02232671A3702E70033B2380204801
:104B3000FCF76EFF208070BDFCF7C2FFA678012E47
:104B400012D16379002B05D102222371A2702B7040
:104B5000013BEBE7FCF770FF6671FCF777FF6671CE
:104B6000FCF79AFF6671E6E70022A35E002BDED118
:104B70002279002ADBD001222A706371A270FCF72F
:104B80005BFF431E9841C5B26571FCF75FFF0543AB
:104B90006B1E9D41EDB26571FCF77EFF05436B1EF8
:104BA0009D416571C7E7A371C5E7C0466C09002048
:104BB00070090020014B18607047C046740900203E
:104BC0000122024BDA745A747047C0467C090020F7
:104BD000F0B587B00493179B03921B78279A5BB2BA
:104BE0001370109A019012780E002298239C249D35
:104BF000002A04D10D9A1278002A00D1F7E0013B77
:104C00005A1E9341DAB2189B1B7859424B410370EC
:104C1000199B1B7859424B4123701A9B25991B788D
:104C20002B701E9B1B780B700778002024782D7842
:104C300082421ED10F9A127882421AD1129A1278A9
:104C4000824216D1139A1278824212D1149A1278A3
:104C500082420ED1159A127882420AD1019A1278B4
:104C6000824206D1307818432843204338434342D8
:104C70005841C3B29C466246389BBD491A708A7C33
:104C80000123624503D1CB7C9B1A5A1E9341DAB2B1
:104C90000592B84A52780292013A11004A424A41BA
:104CA0009A4204D0029B032B01D0FCF751FFB14B79
:104CB000059A5A700022119B1978279B9A561F9BC0
:104CC0001B78013200D198E0012900D095E0269AA6
:104CD00013700023379AA64F13703B685A1C01D0FB
:104CE00001333B607B7D002B00D0B8E00822FF320F
:104CF000BA82A14A7B6013701D9B1B78012B00D1E7
:104D000078E100239A4A53601D9B19780023994249
:104D100001D19368013393601C9B98481968002364
:104D2000814201DBD3680133914AD360924B117CFD
:104D300018780123814203D1537C1B1A5A1E9341D8
:104D40008C4ADCB211784A1E55426A419A4206D01A
:104D5000032904D0431E9841C0B2FCF7FDFE854BE9
:104D6000289A1C70019B1B781370119B319A1B7839
:104D70001370129B329A1B781370139B339A1B7813
:104D80001370149B349A1B781370159B359A1B78FB
:104D90001370169B369A1B7813703378299A137008
:104DA000039B2A9A1B781370049B2B9A1B78137011
:104DB0000C9B2C9A1B7813700D9B2D9A1B781370EB
:104DC0000E9B2E9A1B7813700F9B2F9A1B781370D3
:104DD000109B309A1B781370389B1A78644B9A7426
:104DE000DA74654A12781A745A7407B0F0BD049ADE
:104DF0001278002A00D002E705E7269A13700F9A6E
:104E00001278002A00D064E70C9A1278002A00D0A9
:104E10005FE7039A1278002A00D05AE7129A1278B4
:104E2000002A00D055E7139A1278002A00D050E7E4
:104E3000149A1278002A00D04BE7159A1278002AAB
:104E400000D046E7019A1278002A00D041E7327874
:104E500013432B4323433B435A4253413AE7387DA4
:104E60000138052800D98FE0414CFBF70BFF0336D2
:104E70004150647264222368414953438B4206D8EF
:104E80001B9B40491B886E339BB28B420FD9002479
:104E90000322374B20001A751C60374B1C70FCF73F
:104EA00053FE0123209A1370219B1C7024E71C9B46
:104EB00032491B688B4202DA0023E3601CE7E36897
:104EC0005343FA22D200934200D215E70622284B20
:104ED0001A75294B053A1A700EE72368042B00D87F
:104EE0000AE700220721224B5A601975224BF2E78C
:104EF000962322685B009A4200D2FDE6E1221B9BCA
:104F000092001B8864339BB29342EAD9F4E6379B44
:104F10001B78002BE5D01D9B1A78154B002A02D078
:104F200000229A60E8E69B681D2B00D8E9E6012381
:104F3000219A1370D5E72368042B00D8DCE6FCF730
:104F4000FCFD0028A3D000230122E360227523602A
:104F5000D2E60423002501222375074B28001A708E
:104F6000A560FCF7F1FD209B1D70219B1D70C3E621
:104F70007C090020780900209409002071FEFFFFC1
:104F8000C30900008D030000379B1B78002B1ED047
:104F90001C9B1B68002B14D1E1221B9B92001B88D9
:104FA00064339BB2934200D971E7FCF7BFFD002840
:104FB00000D06CE70523386001303B75FCF7C4FD79
:104FC0009AE6279B1B785BB2013300D17EE71D9BDD
:104FD00019780A4B012902D000225A608CE65A68DF
:104FE0003B2A07D9022200201A751860044B197059
:104FF000219B70E7014B5B68013383E67C0900204D
:10500000940900200322034B1860034B5A701A7056
:105010007047C0469809002078090020024B1A68A2
:10502000024B1A605A6070475C0A00209C090020FD
:10503000F0B599B00093C14B070015009868C04ABD
:105040001B6810600E00BF4901930FF0F7FC019937
:105050000FF00EFBBB49041CFCF710F8002807D129
:105060000021201CFBF7F6FF002802D0002400E0FE
:10507000B44C259BB4481C601F9BB44C198800237A
:10508000239AA14200D8249AD258C25004332C2B20
:10509000F6D1C36A3A7831785C1C01D00133C3621F
:1050A000A94CAB4E230030783533002819D10122AA
:1050B000327003321A70E0620021209BA24A5956D6
:1050C0000023994201D1136B01331363229B019892
:1050D0001A689A4B1A600FF03FF8269B186019B0B7
:1050E000F0BD1E78022E3BD0032E40D0012E00D002
:1050F0008EE0209A127852B2002A16D00023236341
:10510000944B2A781978904D8C4C01291DD1002A96
:10511000D2D10026A068311CFBF79CFF002800D0EC
:10512000A660022336352B70C6E7FA22216BD20027
:105130009142E5D3219A12686432C82AE0D803224A
:105140001A70A023DB00E386B6E7002AB4D0012260
:105150001A701E9BA06819680FF000F9A060ABE7F9
:1051600000222263013236341A702670A4E77A4B8B
:10517000724D18780138052839D8FBF783FD032DC7
:105180002D2D1330230038331A783734002A06D1F6
:10519000023222702A68AA6001221A708CE7072363
:1051A000237089E7012A10D12300002034331856D8
:1051B000002802D137342270EFE701290CD10423F3
:1051C000373423700023AB6076E70129F7D0002A3B
:1051D00002D1230034331A7006233734E0E700236A
:1051E00023632300012235331A700223ABE7AF6833
:1051F0000021381CFBF742FF0028EDD0564B5749E1
:105200001E702F60381C0FF033FAFCF7B9FC53E71F
:10521000E26A632A00D84FE72A78002A00D14BE7D8
:1052200002221A70009B18880FF056FF4C490FF0AD
:105230001FFA02A90B002200009061CA61C323CAB1
:1052400023C323CA23C303CA03C319000A00454B5F
:1052500061CB61C223CB23C223CB23C2002503CB66
:1052600003C2AB00E058FDF79DF8061E00D0C9E070
:1052700001350B2DF5D121686068FBF7EBFE0028A6
:1052800030D10C9C0099201CFBF7E4FE00283BD099
:10529000211C00980FF010FD0B99061C201C0FF02C
:1052A0000BFD011C301C0FF0E3F9179D1699041C2F
:1052B000281C0FF001FD011C201C0FF0BFFB291C56
:1052C0000FF04CF8041C1F49201C0EF0A5FD002116
:1052D0000EF08CFD194C21680FF0B0FB19490FF04E
:1052E000C7F93BE702A80DA90B000200976A046802
:1052F00080C09F6A94620C68013680C1043A9C6247
:10530000043B052EF2D1BCE7029C0099201CFBF760
:10531000B5FE002828D0211C00980FF0CDFC211CE0
:10532000061C03980FF0C8FC011C301C0FF0A0F9FC
:105330000D9D041C291C0E98BBE7C0469C0900204B
:10534000680A00200000C842A8090020790D00006A
:10535000E1090020DE090020DF09002000BA5B4AD5
:1053600000007A4444710100022701240121281918
:10537000FCF7B7FC431E9B0002AA06000099985850
:10538000FBF772FE00281FD03400771CBD42EDDC15
:10539000651E02ABAD005E590098311C0FF08CFC0D
:1053A000A40002AB071C311C18590FF085FC011C2E
:1053B000381C0FF05DF90021061CFBF745FE0DAF10
:1053C000002803D07C597EE73500DFE7FE21301C42
:1053D00089053C59FBF738FE002800D073E77D595A
:1053E000211C281CFBF730FE00280DD1FE20311CAB
:1053F00080050FF061FC291C0FF020FB211C051C0F
:10540000301C5AE700245EE72C1C5CE710B5040052
:105410000820FCF79DFF014B1C6010BDE409002033
:10542000F0B504008FB008681700019109930FF0E0
:1054300053FEB54B051C186A0FF04EFE011C281CCC
:105440000FF03AFC0021FBF719FE002800D14EE1D5
:10545000210000240E220AA811F0E0FD0AAB00266C
:105460009E5F0096013463000AAAD05E0FF0E8FD4B
:10547000029000980FF0E4FD02990EF0B7FC0FF0D7
:10548000BFFD0090062CEDD19F4C281C61680FF0E9
:1054900013FC9E490FF0D2FA149B051C18603000D3
:1054A0000FF0CEFD0AAB02900220185E0FF0C8FD8F
:1054B000A16803900FF000FC95490FF0BFFA291C7A
:1054C0000FF0D6F82168061C02980FF0F5FB904902
:1054D0000FF0B4FA291C0FF0CBF8311C0EF086FC4B
:1054E0000AAB061C0420185E0FF0AAFDE1680490C8
:1054F0000FF0E2FB86490FF0A1FA291C0FF0B8F873
:10550000011C301C0EF072FC0AAB061C0620185E53
:105510000FF096FD216905900FF0CEFB7C490FF04E
:105520008DFA291C0FF0A4F8011C301C0EF05EFC53
:105530000AAB061C0820185E0FF082FD6169069018
:105540000FF0BAFB72490FF079FA291C0FF090F8AE
:10555000011C301C0EF04AFC0AAB061C0A20185E27
:105560000FF06EFDA16907900FF0A6FB68490FF0E0
:1055700065FA291C0FF07CF8011C301C0EF036FC7B
:105580000AAB061C0C20185E0FF05AFDE16908906A
:105590000FF092FB5E490FF051FA291C0FF068F8EA
:1055A000011C301C0EF022FC099B051C1860230016
:1055B00031331B78002B1AD1A36263620223FF33BD
:1055C000238600233B60009B952B2BDC0022FE21D1
:1055D0004D4B89055A62281CFBF75AFD002862D101
:1055E000494B9862009B632B00DC89E069E0494BE2
:1055F00000261B78012B39D100233B60009B952BA3
:1056000007DCFE218905FBF743FDB042DED1A06235
:10561000DCE7FE21636A89050093FBF739FD00286A
:105620000DD1A062FE21384C8905636A281C013324
:105630006362FBF72DFD002840D1A06241E06421A8
:10564000009B354A4B439342ECD9A36A4B439342A8
:10565000E8D902232F4AE6621370FCF789FA0C207E
:10566000FCF7F0FAFE239B053B60DBE7FE21009B85
:1056700089053960632B0DDC6422E36A5343264AB3
:10568000934214D86662281CFBF702FD002834D12F
:10569000A06235E0009BE662952BC3DC6662FBF7F7
:1056A000F7FC0028C9D0184B986A013098E701230D
:1056B000184AA662137000233B60E3E7A36A013334
:1056C000A3620023104CE362029B2360019B1868D5
:1056D0000FF002FD039B6060A360049BE360059BE9
:1056E0002361069B6361079BA361089BE361019BA8
:1056F0001A68054B1A620FB0F0BDA36A0133A362AA
:10570000014BDB6A0133DDE7E80900206F12833AC1
:10571000CDCCCC3D180A0020B80B0000014B18601E
:105720007047C0461C0A002037B5002504006946B2
:105730001348009505F018F90098124B2100C01885
:105740000422800005F03EF900990131092900D9B1
:10575000290004220A48009105F034F9002301933E
:10576000094B01A9E418A400200005F0FDF80199F7
:10577000042201312000019105F024F937BDC04613
:10578000644400000F110000011100009D4B9E4A6F
:10579000F0B51A6000221A719C4A8FB09A6006F028
:1057A00007F99B4E9B4D3100070028000EF012F9BF
:1057B0000DF00AFC984B010018000EF00BF93900AF
:1057C00096480EF007F996480EF004F905F0BEF879
:1057D000002800D093E005F0C2F8041E00D08EE04F
:1057E0003800FFF7A1FF882007A9C001079405F042
:1057F000BBF808A98B4805F0B7F8089F381C11F0D2
:1058000023FB894A894BFBF7FFFB894C00280ED00C
:10581000FF21381C8905FBF71DFC002807D021005B
:10582000804805F0A1F88349834805F09DF8834935
:1058300020680FF003F90FF0E3FB7E4B07007F4970
:1058400018680FF0FBF80FF0DBFB31000590280023
:105850000EF0C0F80DF0B8FB6F4C010020000EF008
:10586000B9F8390076480EF0B5F86D4F38000EF0F3
:10587000B1F8310028000EF0ADF80DF0A5FB0100E5
:1058800020000EF0A7F805996E480EF0A3F8380036
:105890000EF0A0F86C4D079BAB4227D00AAE102249
:1058A00030006A4911F0BAFB002463000422002191
:1058B000F05A013405F086F8082CF6D1644C20002B
:1058C0000422002105F07EF8564B04349C42F6D1A8
:1058D000882004225C49C00105F074F8882007A9DB
:1058E000C00105F041F8079BAB4275D100F0AEFC5A
:1058F000584D28702B780B3BDBB2F32B0ED80C21C4
:10590000554805F069FF0D21534805F065FFFA2061
:10591000800005F051FF05F0E5FF5DE000F0AEF915
:1059200000F09EFC041E5BD100F0E0FE00F040FCA5
:105930004A4B20001C7000F081FC09A948480994DA
:1059400005F012F80999474B0131042244481960C7
:10595000099105F037F80AA943480A9405F004F8BC
:105960000A984249FBF71EFA414B89B2198005F0AB
:10597000B1FF012808D10A99042201313A480A915D
:1059800005F020F805F0AAFF3A4B002203933A4BAA
:1059900008210293394B502001936A230093693BFD
:1059A0000DF0B6FB002802D00022354B1A70FBF731
:1059B000E1FB002811D1324B1B78002B07D0314975
:1059C00068300DF0E5FB6A202F490DF0E1FBFBF795
:1059D000E5FB002801D0C046012420000FB0F0BD37
:1059E00028780A2806D1002000F028FC01221B4B51
:1059F0001A70F1E70130C0B2287000F01FFC01F00E
:105A00002FF877E7240A002003060100C6211401BD
:105A1000C5710100447001005170010078710100EE
:105A200068700100D84000009A9999999999E93FC6
:105A300034FEFF1F30FEFF1FDC40000000007A44F0
:105A40008B71010096710100C6EEC4642E700100D6
:105A5000B0400000380A002000F00F40390A002052
:105A600004440000340A002024400000FFFF00002E
:105A7000300A002045B9000021B90000FDB800003F
:105A80004EFEFF1FA371010091700100F7B5384B66
:105A90001D78002D6BD1FDF797FD1422354B36494B
:105AA0001A60364B364C1A600222364BFF321A808F
:105AB0000A00354BC1CBC1C243CB43C243CB43C227
:105AC00003CB03C2314A324BC1CBC1C2110045CB1B
:105AD00045C145CB45C105CB05C12E4E2E49706948
:105AE0000EF0ACFF2D4B2E49D8672300727940335E
:105AF0001A7022002B4BA4321B782600137023004F
:105B000022009C331D700F23AF3213702200B0327D
:105B100011602200B4321370234A2448137053706A
:105B20009370D370137153712300B5331D706B469E
:105B30009D71DD712300A0331D706B469F36991D4A
:105B4000357004F027FF6B469B79962B01D1953B6E
:105B500033706B461648D91D04F01CFF6B46DB7989
:105B6000692B02D1A034683B237005F06CFFF7BDB0
:105B7000390A002018070020600700209C0600203A
:105B80001C070020BE070020D8FDFF1F8C07002047
:105B900004FEFF1F700A002000BA5B4AD80A0020EA
:105BA0000F0F0F0F3A0A0020C40E0020E44000003F
:105BB000E840000010B5124C2268531C0A2A04D990
:105BC0000121104805F016FE002323600E4B1B78C0
:105BD000002B13D00D490E480DF0FCFE0DF0F4F92A
:105BE0000C4B010018000DF0F5FE0B480DF0F2FE15
:105BF0000A480DF0EFFE64200DF0D8F910BDC04644
:105C0000200A002080F00F40390A0020B571010001
:105C10004470010051700100A5710100687001001D
:105C2000F0B5002787B007700590012002F01AF840
:105C3000114EFC253378012402930823AD051A0088
:105C4000022138000195009401F044FC02213378D0
:105C50000700029308220C2320000195009101F017
:105C600039FC3843C0B2002801D1059B1C70431E8B
:105C70009841C0B207B0F0BD990B002010B50020CC
:105C800001F0F0FF0400012001F0ECFF2043C0B25E
:105C900010BD0000F7B5002001F0C6FB0400012094
:105CA00001F0C2FB0443E3B200931F4C002B0CD164
:105CB00021001E4AAF315378DB07DB0F0B7053789E
:105CC00022005B07DB0FAE321370194F194E3900FB
:105CD00030000DF07FFE0DF077F9174D0100280020
:105CE0000DF078FE2300AF3319781448C9B20DF0D7
:105CF00071FE134BAE34180001930DF06BFE3900AA
:105D000030000DF067FE0DF05FF9010028000DF086
:105D100061FE21780B48C9B20DF05CFE01980DF0D0
:105D200059FE0098FEBDC046D00A0020CA0B0020D4
:105D3000F07101004470010051700100CE7101004A
:105D400068700100DE71010037B500256946012049
:105D50000095019501F056F901A90400280001F011
:105D600051F9019A009B20439B18024AC0B29364E8
:105D70003EBDC046D00A0020002307B5012001A97E
:105D8000019301F05FF9002802D1019A014B9A6258
:105D90000EBDC046D00A0020002307B5012001A98E
:105DA000019301F06FF9002802D1019A014BDA62E8
:105DB0000EBDC046D00A002073B500266B460020F9
:105DC0009D1D2A00F1B2288001F0F8F8041E06D1CA
:105DD0002988144B72000136D152082EEED10026CC
:105DE00000232A0001202B80F1B201F0E7F80443E0
:105DF000E4B2002C08D1320029880A4B0832520044
:105E00000136D1520C2EEBD1FFF7B6FF0443FFF75A
:105E1000C3FFE4B20443FFF797FFE4B22043C0B2EC
:105E200076BDC046D00A002073B50026284C00235A
:105E30006A46D3806B4622786078991D01F058F944
:105E4000051E11D16B460620185E224A00280DD18E
:105E5000012128001378994268411B18DBB21370A6
:105E60008B4201D91C4B1970280076BD157010F0BB
:105E7000BDFF0022194B10F0E1FB10F07BFF2278F0
:105E8000174900B2092A0AD16278012A18D1154AA5
:105E9000C8871080013602340B2EC8D1E4E7042AEB
:105EA00006D16278012A0BD102310F4AC887F0E788
:105EB000002A05D16278203252008A185080E9E722
:105EC0003200183252008852084972008852E1E7C5
:105ED00038FEFF1F3C0A00203D0A00200057A54065
:105EE000D00A0020580A0020480A00204A0A002050
:105EF0000020F0B585B003A9039001F0E3F8204D30
:105F0000041E11D1039800280CD00FF099F81D4BF6
:105F100019680EF093FD1C4B19680EF01FFA0FF074
:105F20006FF80390039BEB6405F04AFC174F184E83
:105F30003B68C01A306005F043FC33683860002BC2
:105F400002DAFA235B003360EB6C3068019310F0E7
:105F50004DFF060001980F0010F048FF02000B00F3
:105F60003000390010F0A2F800220A4B0FF05AFC62
:105F700010F0B2FF084D2860200005B0F0BDC0460B
:105F8000D00A002034FEFF1F30FEFF1F400A002011
:105F9000440A002000408F40600A0020002110B514
:105FA000080001F047FB00210400012001F042FB42
:105FB0002043C0B210BD000070B50C4D00242B78FA
:105FC000DB09012B05D121002000072201F0EAFBAB
:105FD0000400A878C009012805D10722002101F09A
:105FE000E1FB0443E4B2200070BDC046D40B0020A6
:105FF00010B50121002001F02DF9002828D1012140
:10600000080001F027F9002822D1124A13785178AC
:106010001B070907C90FDB0F5B18591E8B410E497F
:10602000DBB28B72137854785B076407E40FDB0FE5
:106030001B195C1EA341DBB2CB7213789B06DB0FEE
:10604000CB731378DB06DB0F8B731378DB094B7292
:1060500010BDC046E00B0020BC0A002010B5012195
:10606000002001F053F9002852D10121080001F06D
:106070004DF900284CD1274B1A7859789206890699
:10608000C90FD20F5218511E8A412349D2B24A7108
:106090001A785C78D206E406E40FD20F1219541E67
:1060A000A241D2B28A711A785C7852066406E40F73
:1060B000D20F1219541EA241D2B2CA711A785C785A
:1060C0009207A407E40FD20F1219541EA241D2B2B4
:1060D0008A701A785C78D207E407E40FD20F12199D
:1060E000541EA241D2B2CA701A785C785207640773
:1060F000E40FD20F1219541EA241D2B20A711A78BB
:106100005B78D209DB09D3185A1E9341DBB20B73BB
:1061100010BDC046DC0B0020BC0A002010B50121D8
:10612000002001F055F9002803D10121080001F0F9
:106130004FF910BD10B50400FFF730FF002805D15E
:10614000034B1A789B781340DB09237010BDC046BF
:10615000D40B002010B5FFF74BFF0400FFF77EFFC4
:106160000443FFF7DBFFE4B22043C0B210BD0000E0
:1061700070B50500074C012804D1AC3400F054FE82
:10618000257070BD002000F04FFE0023AC3423705A
:10619000F7E7C046D00A002010B50100012001F049
:1061A0004BFC10BD10B50100012001F0ABFB10BD90
:1061B00010B588B01422002103A810F019FF08229E
:1061C000002101A810F014FF002403AB1919154B8E
:1061D000E018043404F0C8FB142CF6D101A91248CD
:1061E00004F0C2FB114802A904F0BEFB049B002B83
:1061F00001D10F4B04930F4C1422200003A910F07F
:106200000DFF039B002B06D10322227092186270AF
:10621000053AA270E370082201A9074810F0FEFEBB
:1062200008B010BD84400000A4400000A840000059
:10623000C6211401A80A0020A00A00200100812024
:1062400010B50422C00104F0BDFB10BD07B58120CC
:10625000002301A9C001019304F086FB01980EBD43
:1062600010B50821002000F09FFE002806D008216C
:10627000012000F099FE431E9841C0B210BD0000FD
:1062800037B500240F4D0023280001A9019304F025
:106290006BFB019B013B033306D90B4B0422996A2C
:1062A0002800019104F08EFB201C01990EF056F895
:1062B000064B0435041C9D42E5D105490EF0D8F982
:1062C0003EBDC046B0400000700A0020D84000002B
:1062D0000000204170B598B05422002103A810F0AE
:1062E00087FE002403AB19198423DB01E018043472
:1062F00004F03AFB542CF5D10023724801A9019314
:1063000004F032FB019BDBB2002B00D13C336E4D1D
:1063100003A92A002E321370280001226B4C05F0CD
:106320002FFB04A901226A4805F02AFB05A90122D6
:10633000684805F025FB06A90122674805F020FB07
:1063400007A90122654805F01BFB08A90122644842
:1063500005F016FB09A90122624805F011FB0AA904
:106360000222614805F00CFB604BAA8D0BA91A8034
:106370005F48022205F004FB0CA902225D4805F0EB
:10638000FFFA0DA902225C4805F0FAFA20000EA9D6
:10639000022205F0F5FA0FA90222584805F0F0FA9A
:1063A000042210A9564805F0EBFA686955490EF029
:1063B00045FB0DF07FFE53490EF05AF911A96861B3
:1063C0000222514805F0DCFA12A902224F4805F0DA
:1063D000D7FA13A902224E4805F0D2FA14A90222D4
:1063E0004C4805F0CDFA15A904224B4805F0C8FA2F
:1063F00016A90422494805F0C3FA042217A94848FF
:1064000005F0BEFAFFF73CFF0023464E02A93060BC
:106410004548029304F0A8FA029A444C444B02A95E
:1064200044481A6004F0A0FA2300029A94331A60D8
:106430003068414926000EF01BF99836306030680C
:1064400069690EF015F9306030683C490EF0F6FAD3
:106450000DF082FEFA2180B278342080AB89384C6E
:10646000643B9BB223802388686A32339BB263808B
:106470002B89890064339BB2A380A388323B9BB2F3
:10648000E380FAF793FC053080B220812D49286A19
:10649000FAF78CFC41230D22053080B26081A38184
:1064A000053BE38114332382053B63825242563B12
:1064B000A282E382228363830C332377C04618B021
:1064C00070BDC04654420000700A00207E0A0020C1
:1064D000710A0020720A0020730A0020740A00204A
:1064E000750A0020760A00209C0A00205A0A002023
:1064F000780A00207A0A00207C0A0020800A002006
:10650000840A00200000C842880A00208A0A00206D
:106510008C0A00208E0A0020900A0020940A002095
:10652000980A00205C0A00209C400000D00A00204D
:10653000600B00209840000000BA5B4A00D0224562
:10654000A80B002018FCFFFF73B584200023022451
:1065500078213C250122C0010193009104F04AFA00
:10656000210001224248009404F044FA290001224B
:106570004048009504F03EFA290001223E4800956B
:1065800004F038FA0A2101223C480026009104F068
:1065900031FA0C2101223A48009104F02BFA310023
:1065A00001223848009604F025FAE1212200090171
:1065B0003548009104F01EFA344922003448009115
:1065C00004F018FA334922003348009104F012FA1B
:1065D000AF21220009013148009104F00BFA304943
:1065E00022003048009104F005FA2F4922002F487C
:1065F000009104F0FFF92E4B684601A90422019393
:1066000005F0C9F9009904222A4804F0F3F92A494F
:1066100022002A48009104F0EDF929492200294876
:10662000009104F0E7F9310022002748009604F0B9
:10663000E1F91E2122002548009104F0DBF92449EC
:1066400004222448009104F0D5F923490422234868
:10665000009104F0CFF9224904222248009104F06D
:10666000C9F929000422204804F0ACF973BDC046E2
:1066700004420000084200000C42000010420000EA
:1066800014420000184200001C4200006810000084
:1066900020420000041000002442000028420000B4
:1066A000540B00002C420000C409000030420000DE
:1066B0000000F04134420000520300003842000064
:1066C000260200003C42000040420000444200001C
:1066D000C063FFFF48420000102700004C4200004A
:1066E00060FECD4C5042000054420000002307B52C
:1066F0000B4801A9019304F037F9019B012B02D14A
:10670000FFF7E8FD07BDFFF71FFF01220448110056
:1067100004F058F9FFF7DEFD0122024B1A70F1E791
:106720002C400000990B0020002313B5064C01A952
:106730002000019304F018F901990422013120008E
:10674000019104F03FF913BD20400000002313B570
:10675000064C01A92000019304F006F901990422D6
:1067600001312000019104F02DF913BDA04000007B
:1067700070B515000E1C042201000E4804F022F929
:106780000422040031000C4804F01CF904220443E4
:1067900029000A4804F016F9E4B22043C0B20028E8
:1067A00004D104220721064804F00CF9431E984145
:1067B000C0B270BD50420000084000000C40000014
:1067C0000440000037B500250400694618480095CC
:1067D00004F0CAF8009B022B0ED8164A21009B1821
:1067E0009800042204F0EEF804220099013100918F
:1067F0000F4804F0E7F837BD01A90F48019504F0F0
:10680000B3F8042201990D4804F0DCF801A90C4802
:1068100004F0AAF804220199074804F0D3F80422EE
:106820002100074804F0CEF804220099E0E7C046B2
:106830003C4000000C1000003440000030400000DC
:106840003840000037B5041E12D00A4B01A9C51804
:106850000023AD002800019304F086F8019904227A
:1068600001312800019104F0ADF82000FFF7AAFFE4
:1068700037BDC0460F10000007B56A46FF23074822
:10688000D11DD37104F086F86B46DB79002B04D15F
:1068900001229621014804F095F807BDE44000006C
:1068A00007B56A46FF230748D11DD37104F072F87B
:1068B0006B46DB79002B04D101226921014804F0E9
:1068C00081F807BDE840000037B50125040069469E
:1068D0000E486D42009504F047F8009B002B0DD147
:1068E00004222100094804F06DF8084801A9019527
:1068F00004F03AF8019B9C4201D1C04637BD042206
:106900002100024804F05EF8F8E7C046EC400000C1
:1069100010B500F097FA10BD10B500F09FFA10BD49
:1069200010B50021041CFAF7A9FB002804D00422AA
:1069300021000F4804F05EF80E4B1A78012A09D1A5
:106940000D4A1278012A05D1032103320B4804F0C5
:1069500039F810BD1B780422D9B2012BF6D0064BB2
:1069600004221B780221012BF0D00021EEE7C04663
:106970005042000009FCFF1F08FCFF1FE040000020
:10698000010010B5034803F0EFFF431E9841C0B269
:1069900010BDC04610400000010010B5034803F0D0
:1069A000E3FF431E9841C0B210BDC0461440000032
:1069B000002337B5050001A90648019303F0D4FF71
:1069C0000400631E9C412800042201A910F026FB4C
:1069D000E0B23EBD18400000002337B5050001A914
:1069E0000648019303F0C0FF0400631E9C41280089
:1069F000042201A910F012FBE0B23EBD1C400000D1
:106A000010B501000422024803F0DCFF10BDC046AF
:106A10001040000010B501000422024803F0D2FF2C
:106A200010BDC0461440000010B5011C04220248ED
:106A300003F0C8FF10BDC0461C40000010B5011C8B
:106A40000422024803F0BEFF10BDC04618400000FB
:106A500010B500F0D5F910BD10B500F0DBF910BD90
:106A6000002337B5174801A9019303F07DFF019971
:106A7000042201311348019103F0A4FF12480121BF
:106A800004F0AAFE012001F09FF8002800D1C046C2
:106A9000012001F0E7F80400002001F095F800283B
:106AA00000D1C046002001F0DDF80500C0462C43AF
:106AB0000121054804F095FEE0B2431E9841C0B2A2
:106AC0003EBDC0462840000080F00F40002337B58F
:106AD000094C051C01A92000019303F045FF019911
:106AE000281C0DF03BFC054B011C18600190042292
:106AF000200003F067FF37BD9C400000600B0020C2
:106B0000002337B5094C051C01A92000019303F0AF
:106B10002BFF0199281C0DF021FC054B011C18606E
:106B200001900422200003F04DFF37BD9840000083
:106B3000640B002070B5012001F00AF8C046FA2469
:106B40001F4968200CF024FB1E4D6A2029000CF020
:106B50001FFB640001200CF0EFFA200004F02CFE73
:106B600000200CF0E9FA002000F0F2FF200004F011
:106B700023FE01200CF0E0FAC046200004F01CFEC9
:106B800000200CF0D9FA200004F016FE0E4968200F
:106B90000CF0FEFA29006A200CF0FAFA01200CF041
:106BA000CBFA200004F008FE00220221074804F07E
:106BB0000FFEC046200004F0FFFD04F093FE70BD00
:106BC0008F700100EE7101009570010080F00F40A0
:106BD00010B5002000F006FE0400012000F002FEC7
:106BE0002043C0B210BD000010B5082206490020A5
:106BF00000F010FE0C2204000449012000F00AFEFF
:106C00002043C0B210BDC046200B0020280B00203E
:106C100010B500200CF090FA10BD10B501200CF05A
:106C20008BFA10BD10B50C00010068200CF0B0FA12
:106C300021006A200CF088FA10BD10B504F056FE51
:106C400010BD10B504F056FE10BD000010B50020B8
:106C5000FFF7A8FA0020FFF79FFA0CF0B5F904003F
:106C60000CF0B2F9001BFA280CD8FFF713F8064A0B
:106C7000064B1278002AF3D1AE331B78002BEFD1EC
:106C800004F092FE10BDC0467F0B0020D00A002009
:106C9000002303700C4B10B50C4ADC6894420BD9EE
:106CA0009022DC68D201944206D28622DC68D201AE
:106CB000944202D80123037010BDDB689342FBD9D4
:106CC0000029F7D0F8E7C046A40E002003400000DA
:106CD00070B5002401210500FFF7DAFFA5420BD1B2
:106CE00070BDD868195D2018C9B203F0A1FE4342F7
:106CF000584101342870E4B2024B1A899442F0D30F
:106D0000EEE7C046A40E002037B5002400210500A0
:106D1000FFF7BEFFA5420DD137BD6A460023E868E4
:106D2000D11D2018D37103F035FE6B46DB792B554E
:106D30000134E4B2024D2B899C42EED3ECE7C0460D
:106D4000A40E002070B50500002484230749DB0150
:106D50006118E018013403F01DFE502CF5D1022219
:106D6000034B5A7101232B7070BDC046520E002098
:106D7000C40E002010B501000122024803F022FEDB
:106D800010BDC0467C40000010B50D21044804F041
:106D900023FDFA20800004F00FFD04F0A3FD10BDD8
:106DA00000F00F40014B18707047C046C40E002021
:106DB000014B58707047C046C40E0020014B9870BC
:106DC0007047C046C40E0020014BD8707047C046C3
:106DD000C40E0020014B18717047C046C40E00203D
:106DE000014B58717047C046C40E00200F22034B60
:106DF0005A709A70DA701A715A717047C40E002076
:106E000010B50121024804F0F1FCC0B210BDC0462B
:106E100040F00F4010B50021024804F0E7FCC0B27A
:106E200010BDC04640F00F40102110B5002803D01F
:106E3000034804F0D1FC10BD014804F0D2FCFAE78D
:106E400080F00F4010B502F04DF910BD10B502F002
:106E500061F910BD10B502F0A3F910BD10B502F034
:106E6000ABF910BD70B5050008001900012D0AD15D
:106E700004F0CEFC4442E4B2002C02D00122054BC7
:106E80001A70200070BD0624002DFAD104F0EAFC2F
:106E9000F0E7C046500E002070B505000800110054
:106EA000012D21D1049A04F0BFFC4442E4B2002C2D
:106EB00038D01F4A052153681E48013353602A0009
:106EC00004F086FC0A2004F077FC00220521194812
:106ED00004F07EFC164BAD00EB58042B02D90122C6
:106EE000154B1A70200070BD0624002DFAD1049AAB
:106EF00004F0C4FC4442E4B2002C13D00C4A02213A
:106F000013680E48013313600D4A13680133136090
:106F1000012204F05DFC0A2004F04EFC2A0002214C
:106F20000648D5E70024024BAD00EC50DAE7C04636
:106F3000A00B0020C0F00F40500E002040F00F408A
:106F40009C0B0020030010B508000121002B04D089
:106F500004F054FC4042C0B210BD04F079FCF9E7E3
:106F600010B504F035FC10BD10B504F025FC10BDC3
:106F700010B504F025FC10BD7047000038234343D2
:106F8000084870B518180C0002F08AF805000220B5
:106F90008443902C03D1FFF7E7FF280070BD012048
:106FA000F9E7C046EC0B0020062310B5012802D8F3
:106FB000FFF7C8FF0300180010BD0000030010B564
:106FC0000620012B18D80D48C45C0620002C13D0D5
:106FD0000F2911D838245C4309480419A488013CBE
:106FE0008C4200D10F21382463430A31C9B24900D1
:106FF000C9B2C01801F0CCFF10BDC046E80B00209C
:10700000EC0B002013B503000C000620012B13D855
:107010000A4AD25C002A0FD0694600223230584317
:10702000074BCA80C0188A1D342101F0B1FF6B469E
:10703000DA880A235343236016BDC046E80B0020BC
:10704000EC0B002013B503000C000620012B13D815
:107050000A4AD25C002A0FD06946002232305843D7
:10706000074BCA80C0188A1D362101F091FF6B467C
:10707000DA880A235343236016BDC046E80B00207C
:10708000EC0B002013B503000C000620012B13D8D5
:107090000A4AD25C002A0FD000226946CA803821F1
:1070A0004B43074818186B469A1D01F071FF6B4659
:1070B000DA880A235343236016BDC046E80B00203C
:1070C000EC0B002003000A00062010B5012B0AD8A3
:1070D0000549C95C002906D032305843034B1621BC
:1070E000C01801F07FFF10BDE80B0020EC0B002062
:1070F00013B503000C000620012B16D80B49C95C00
:10710000002912D0092A10D800216846C1803820F1
:107110005843074B5100C0186B4668319A1DC9B2DD
:1071200001F04BFF6B46DB88238016BDE80B002087
:10713000EC0B0020F7B506000620012E00D982E0F6
:10714000414B9B5D002B7ED000236A46323070435A
:10715000D3803E4B911DC01801F0B4FE002872D1BF
:1071600001216B468E40DA88394B1500F45C0D40E6
:107170008C432C43550802270D408D40F454F45C99
:10718000BC432C4395080D40BD40F454F45CFF19FA
:10719000BC432C43F454F45CD5080D400437ED0097
:1071A000BC432C43F454F45C15090D4008372D0101
:1071B000BC432C43F454F45C55090D4010376D0169
:1071C000BC432C43F454F45C95090D402037AD01C9
:1071D000BC432C437F25F454F45CD7090F40FF01D6
:1071E0002C403C430327F4549B195E78140ABE4399
:1071F0003C403700042627435F705C78970A0F40B5
:10720000BF00B4433C435C705C78D70A0F40B619AA
:10721000FF00B4433C435C705C78170B0F400836AA
:107220003F01B4433C435C705C78570B0F40103611
:107230007F01B4433C435C70D20B0A405978D201C1
:1072400029400A435A70FEBDE80B0020EC0B0020D9
:10725000E40B0020F7B504000E00012815D8274BD9
:107260001B5C002B11D06B463820DD1D00236043D2
:10727000234A2B7080180A00290001F0DBFD00284A
:1072800004D1002E03D0012E05D00620FEBD1D4BDB
:107290002A781A55FAE704271B4B2D781A5DA9089E
:1072A00031408900BA430A431A551A5DE908FF19AB
:1072B0003140C900BA430A431A551A5D29090837F3
:1072C00031400901BA430A431A551A5D690910375A
:1072D00031404901BA430A431A551A5DA9093140A0
:1072E00020378901BA430A437F211A551A5DED09F7
:1072F0003540ED010A402A43CBE7C046E80B0020A9
:10730000EC0B0020E20B0020E00B0020F7B504009E
:107310000E00012816D82A4B1B5C002B12D06B469E
:107320003820DD1D002360432B70264B0A00C01857
:107330002900012301F07EFD002804D1002E03D096
:10734000012E05D00620FEBD1F4B2A781A55FAE7FC
:107350002D78022729001D4B31401A5DB2430A43A4
:107360001A551A5D690831404900BA430A43A90811
:107370003140B9401A551A5DFF19BA430A43290929
:107380003140B9401A551A5D0C37BA430A431A55B1
:107390001A5D6909103731404901BA430A431A5549
:1073A0001A5DA909314020378901BA430A437F2178
:1073B0001A551A5DED093540ED010A402A43C5E72B
:1073C000E80B0020EC0B0020DE0B0020DC0B002083
:1073D00073B504000D00012816D80F4B1B5C002B61
:1073E00012D06B463820DE1D0023604333700B4BF8
:1073F0000A00C0183100022301F01CFD002804D14E
:10740000002D03D0012D05D0062076BD044B327827
:107410001A55FAE7034BFAE7E80B0020EC0B0020C3
:10742000D80B0020DA0B0020F7B504000620012C51
:1074300049D8254B1B5D002B45D000236A463230CE
:107440006043D371214BD11DC01801F08DFD002880
:1074500039D16B46DA79012116001D4B0E401D5DB6
:1074600002278D43354356080E408E401D551D5D45
:10747000BD43354396080E40BE401D551D5DFF19A6
:10748000BD4335431D551D5DD6080E400437F6003B
:10749000BD4335431D551D5D16090E4008373601A5
:1074A000BD4335431D551D5D56090E40103776010D
:1074B000BD4335431D551D5D92090A403F31920180
:1074C0008D432A431A55FEBDE80B0020EC0B00202B
:1074D000CA0B0020F0B585B001910AA90978050012
:1074E0008C460624012840D80199033C02293CD847
:1074F000102B3AD80334082A37D138214143454E5E
:1075000088557618B3803300002108337170190054
:10751000B270019A404BF2700A0091CB91C213CB2A
:1075200013C213CB13C21B6813603300624630339F
:107530001A700B980FF088FC02000B00374838498E
:107540000EF070F90FF0C8FC70632800FFF7F2FD31
:107550000123344F902128007B55FFF70FFD041EB7
:10756000029005D000210B1C7B55200005B0F0BD1A
:10757000300000F0ABFD041E039001D0029BF3E746
:10758000300000F0E3FE041E029001D0039BEBE705
:10759000300000F09FFF041E0390EFD1300000F098
:1075A000E7FF041EF2D1300001F064F8041E01D0A0
:1075B0000023D9E730001C4901F0F0F8041E0290C6
:1075C000F6D1300001F0CCFB0400061ED6D192218A
:1075D0002800FFF7D3FC041E01D07E55C5E7019BB0
:1075E000022BC2D1002DC0D19621FFF7C7FC22008B
:1075F00008210E48FFF7B4FC0D4822000721FFF7D1
:10760000AFFC2000FFF710FF0028AED03C70040054
:10761000ABE7C046EC0B00200472010063EE5A4257
:107620003EE81D40E80B0020A80B002080F00F4032
:1076300000F00F40F7B506000D0001281AD8544B92
:107640001B5C002B16D0C046382000236A467043CE
:10765000D380504B0A00C0186B46991D01F045FCC1
:10766000041E08D1012D00D184E0022D00D18AE052
:10767000002D02D006242000FEBD6B46D9880125CE
:1076800073000E00444A2E40985C0227A843304302
:107690004E082E40AE409854985CB84330438E0854
:1076A0002E40BE409854985CFF19B843304398541C
:1076B000985CCE0804372E40F600B8433043985407
:1076C000985C0E0908372E403601B8433043985471
:1076D000985C4E0910372E407601B84330439854D9
:1076E000985C8E0920372E40B601B8433043985439
:1076F000985CCE09BC462E403F37F60138403043F7
:107700009854480A02262840A840D2185378B34318
:107710000343880A2840B04053705378B619B343E6
:10772000034353705378C80A04362840C000B3435B
:10773000034353705378080B083628400001B343C5
:107740000343537053781036B3436646480B2840C2
:107750004001034353705378880B28408001B343A2
:10776000034353705378C90B2940C9013B400B4375
:10777000537080E702220948760030186B46991D45
:107780000FF04CFC77E7064876002A003018F5E742
:10779000E80B0020EC0B0020D40B0020D00B0020C5
:1077A000CC0B00201FB504000620012C13D80B4B76
:1077B0001B5D002B0FD0012393406A461218323014
:1077C0009BB26043138003AA1380054B0A00C018C4
:1077D000039901F0AFFB04B010BDC046E80B0020D8
:1077E000EC0B0020030010B50620012B0CD8074A33
:1077F000D25C002A08D032305843054B0022C01812
:107800008321022301F05AFC10BDC046E80B002082
:10781000EC0B0020E0B5060017000620012E07D86B
:1078200000250E4B2A009B5D781EAB4208D1062036
:10783000E0BD4B5D85420FD1DB031A4392B20135A7
:10784000EBB2BB42F5D338207043054B8321C018FF
:10785000022301F033FCEBE7AB40EEE7E80B00203E
:10786000EC0B002070B5160004AA05001478062061
:10787000012D13D80A4A525D002A0FD0620032301F
:107880008900684332430A43DB001A43054B52B276
:10789000C0189721012392B201F010FC70BDC046C0
:1078A000E80B0020EC0B002073B50400062501282E
:1078B0001FD8114B1B5C002B1BD0382000236043CA
:1078C00001AE33800D4B3200C0185721022301F066
:1078D000ECFB051E0CD16B467278991D0848337875
:1078E000120264009B18201802220B800FF096FBF6
:1078F000C046280076BDC046E80B0020EC0B0020F7
:10790000C60B0020F0B504000D00062085B0012C48
:1079100025D8454B1B5D002B21D02000FFF784FDAF
:107920002000FFF7C1FF414B6200D35CDA06D60F9F
:10793000002A62DA002D14D193212000FFF71EFBEC
:10794000002809D12000FFF76FFD002804D1320084
:1079500007213748FFF704FB2000FFF765FD05B05E
:10796000F0BD0020FFF760FD00220721060030482F
:10797000FFF7F6FA9627FFF7FBFA7F0003902D4DED
:107980002B789B0609D50020FFF74EFD0600FFF778
:10799000EFFA039BC01AB842F1D32000FFF744FD71
:1079A000021E22D101272B5D2B5D2B5D2B5D2B5DF4
:1079B0002B5D2B5D295D2B5D285DC9079B070007AB
:1079C000C00FC90FDB0F7B40794047400097200074
:1079D000FFF748FF002808D12000FFF725FD002809
:1079E00003D12B5D5B0700D5C046C046002EB3D146
:1079F0002000FFF719FDC046AEE70E4E325D52077C
:107A0000D20FAA42A8D05B07DB0FAB42A4D0202143
:107A10002000FFF7B3FA335D1B079DD4222120001D
:107A2000FFF7ACFA98E7C046E80B0020C60B002031
:107A300000F00F40CA0B0020F0B504000D00062036
:107A400087B0012C1ED83E4B1B5D002B1AD02000A6
:107A5000FFF7EAFC2000FFF727FF3A4B6200D35CF8
:107A6000DA06D60F002A55DA002D0DD19421200018
:107A7000FFF784FA320008213348FFF771FA20003B
:107A8000FFF7D2FC07B0F0BD2000FFF7CDFC0028C7
:107A90003ED12E4D2B5D2A5D2B5D2F5D0393285D1E
:107AA000295D2B5D920704930423D20F52003243C9
:107AB0000592039A1A401300059A134308221740AF
:107AC00092183B43104018432023049A1940DB18B6
:107AD0001340014319437F2337002A5D19402B5D72
:107AE000285D52079B070007C00FD20FDB0F7340C2
:107AF00072408F434640390020000096FFF7B2FEE7
:107B0000002805D12000FFF78FFC002800D12B5D55
:107B10000022B0E70D4E325DD207D20FAA42AED09E
:107B20009B07DB0FAB42AAD01F212000FFF726FAEC
:107B3000335D1B07A3D422212000FFF71FFA9EE725
:107B4000E80B0020C60B002080F00F40CA0B00207D
:107B5000F7B504000620012C2CD8194B00931B5DAF
:107B6000002B27D010212000FFF708FA002803D1AE
:107B700010212000FFF702FAFFF7FAF93827114E1B
:107B800001903B006343F31820009978FFF70CFA4B
:107B90000500012807D0FFF7EBF9019BC01AFA2373
:107BA0009B009842EDD3FFF7E3F9C046002D02D1C8
:107BB000C0460120FEBDC0460020009B1855F9E7D5
:107BC000E80B0020EC0B0020F7B504000620012C88
:107BD00032D81F4B00931B5D002B2DD00122002CAF
:107BE0002BD005211B48FFF7BBF91B48FFF7BCF959
:107BF000002205211748FFF7B3F9FFF7B9F9382735
:107C0000164E01903B006343F31820009978FFF76C
:107C1000CBF90500012807D0FFF7AAF9019BC01A8C
:107C2000FA239B009842EDD3FFF7A2F90120002D23
:107C300002D00020009B1855FEBD02210848FFF726
:107C40008FF90548FFF790F9220002210448D2E796
:107C5000E80B0020C0F00F404C040000EC0B0020AB
:107C600040F00F4010B504000620012C14D801226A
:107C700003210A48FFF774F96420FFF775F9002221
:107C800003210648FFF76CF96420FFF76DF908211E
:107C90002000FFF789F9C04610BDC04680F00F40B4
:107CA00000234118884202D1D843C0B270470278FD
:107CB00001309B18DBB2F5E703004118002010B536
:107CC000034A1C7801336040105C8B42F9D110BD2F
:107CD0002C720100F0B597B003900B2015000293B1
:107CE0001CAB1E7804AB3D220191C01800210FF09F
:107CF0007FF9019B05A85B000370029B06AC1B7813
:107D000003214570257083706370FFF7D5FF27004E
:107D10000125A0700237AE420CD872000132230058
:107D200001990398D2B2FFF79DF8002800D0C04611
:107D300017B0F0BD029B04AA5B5D01217B70D01CD3
:107D4000D370FFF7B9FF0135B870E3E7F0B5002451
:107D50000F001600A9B005932EAB1B783C22210022
:107D6000049009A8039308940FF042F93C222100E3
:107D700019A818940FF03CF904ABDC72039B18AD02
:107D80005B00320039000498DBB20095FFF784F8FD
:107D9000A0421ED107A8467001267F000770374316
:107DA00087702F780421C770FFF786FF6C78241A3C
:107DB000631E9C4104AB1F743700039BB3420AD877
:107DC0001A00631E9C41059808A90FF027F960422C
:107DD000C0B229B0F0BD1021AB7804AA5218935557
:107DE00004AAD3720B239B1818003900FFF764FF15
:107DF000EB7801361B1A5A1E93410235E418DCE772
:107E0000F0B58BB00591049343780400170002206D
:107E1000002B31D12278A67808AC2F49039220009C
:107E2000062207AD2B800FF0F9F8059B0120238077
:107E3000A770FFF799F8049B022B1FD0042B32D0B8
:107E400003200700012B17D1009023003E223100B0
:107E50000398FFF73FFF00280ED139002000FFF7FD
:107E60001FFF052328706B70033B009360222B00DB
:107E700031000398FFF72EFF0BB0F0BD3F0AE7700B
:107E8000042723003E22310003980097FFF722FFCA
:107E90000028F1D139002000FFF702FF06232870E7
:107EA0006B70049BE1E73B0AE3703B0C23710623F4
:107EB0003F0E67713E220093310023000398FFF7C5
:107EC00009FF0028D8D106212000FFF7E9FE08238A
:107ED00028706B70063BC8E73E7001001FB50A00B2
:107EE000417803000220002908D11C78997803AB5F
:107EF0001A8000903E222000FFF7ECFE04B010BD77
:107F0000F0B58FB01D0014AB059204CB04001B78B4
:107F10000E000993431E9841C0B20892FFF72CF857
:107F200063780227002B41D10BAA1380A2780D930E
:107F3000039222780CAC2380F3B20693330A0793A2
:107F400008AB04929E82012D40D0BD425BD0013728
:107F5000002D2BD102263E220399049800960DABEA
:107F6000FFF7B8FE071E21D1FFF702F805900BAC12
:107F700023003E22039904980096FFF7E7FE0500D0
:107F80000700FEF7F5FF059BC01A05280ED82378D9
:107F9000FF2B02D16278FF2AE9D0069A9A4208D1D3
:107FA0006378079A934204D1002D05D038000FB0B2
:107FB000F0BDC0460127F9E7099B402200930399D1
:107FC000089B0498FFF7C2FE0700EFE70325059A18
:107FD00008AB9A7503993E22049800950DABFFF704
:107FE00079FE071EE2D129000DA8FFF759FE0523EF
:107FF0006370033B20700093230060220399049870
:10800000FFF768FEE0E70426059A08ABDA820399D9
:108010003E22049800960DABFFF75CFE071EC5D10B
:1080200031000DA8FFF73CFE062320706370009519
:10803000E2E7F0B587B01E000CAB029204CB04005F
:108040001F78431E9841C0B20D000392FEF794FFC3
:1080500063780220002B09D1029A05ABA178207821
:108060001A80002E04D0012E08D0032007B0F0BDE6
:108070002A00039B0097FFF769FEF7E72A000097A5
:10808000FFF728FEF2E770B51D1C14000E000CF07F
:10809000D7FF291C0CF0ECFA0CF00CF8051C2000A2
:1080A0000CF0CEFF291CF8F7D5FF00280CD13000CA
:1080B0000CF0C6FF291CF8F7E1FF3400002803D1BB
:1080C000281C0CF09DFF0400200070BD0300F0B5DB
:1080D00030331E7804008FB0012E00D1AFE0022EA5
:1080E00000D1C8E00220002E00D0FEE0C822804B64
:1080F000D2010993B02394461B050A937D4B7E4D14
:108100000B9309AB0C951A8204AA83CB83C26346F6
:1081100093806423156007250F270193593B039330
:108120000095F233029323000A2231331A7004AB14
:108130001A88200002237149FFF762FE00287CD1D3
:1081400001232000029A6E49FFF75AFE002874D1DD
:10815000012320001A006B49FFF752FE00286CD162
:108160000200012320006849FFF74AFE002864D17D
:108170000123320020006549FFF742FE00285CD150
:108180000123320020006249FFF73AFE002854D153
:1081900001232000039A5F49FFF732FE00284CD1EB
:1081A00001232000009A5C49FFF72AFE002844D1F1
:1081B0000200012320005949FFF722FE00283CD18C
:1081C0000123072220005649FFF71AFE002834D168
:1081D00093210123072220000902FFF711FE002846
:1081E0002BD101232A0020004E49FFF709FE002869
:1081F00023D101233A0020004B49FFF701FE00285C
:108200001BD10123062220004849FFF7F9FD002871
:1082100013D1A388102B66D849D102000E3B200051
:108220004349FFF7EDFD002807D101232000019A03
:108230004049FFF7E5FD002857D00FB0F0BDA02062
:108240003D4B3E4D09933E4B0C950A93294BC00084
:108250000B9304AA09AB1882C2CBC2C205231560D6
:108260009080019302332A27009300233D0003935B
:108270000226ED3356E7A022D20094462E4B1E4D27
:108280000993304B0C950A932F4B0B9309AB1A8231
:1082900004AA83CB83C26346938005231560072518
:1082A0000193063300930F270395E2333AE7032047
:1082B000072BC2D91022DBB2591ED31A002210009C
:1082C000C9B2DBB206000125002E09D152190130D6
:1082D00092B28342F6DC8A40D243022392B29EE7F6
:1082E0006D00013EF0E70320A7E7C046A5E7C046C2
:1082F0001004FD0107000707070F06003492000075
:10830000369200003792000038920000FA92000086
:10831000FB920000FC920000FD920000FE92000023
:10832000FF920000019300000293000003930000FD
:1083300004930000079300001004ED012A2A0600B0
:1083400000020200000202070B00070730B505001B
:1083500089B00D22002168460EF04AFE2B00303312
:108360001B78012B05D0022B03D00220002B00D05C
:1083700091E04A4B04A90493494B0D220593494BC4
:108380006846069375230B730EF048FE6B46280073
:108390001A8845490223FFF733FD002800D07BE00F
:1083A0006B469B7804AC2080237028000123228830
:1083B0003E49FFF725FD00286ED16B46DB78208013
:1083C00023702800012322883949FFF719FD00286E
:1083D00062D16B461B7920802370280001232288FC
:1083E0003449FFF70DFD002856D16B465B7920809C
:1083F00023702800012322882F49FFF701FD002860
:108400004AD16B469B792080237028000123228863
:108410002A49FFF7F5FC00283ED16B46DB79208026
:1084200023702800012322882549FFF7E9FC002852
:1084300032D16B461B7A20802370280001232288CA
:108440002049FFF7DDFC002826D16B465B7A2080AF
:1084500023702800012322881B49FFF7D1FC002844
:108460001AD16B469B7A2080237028000123228832
:108470001649FFF7C5FC00280ED10B2102226944E2
:1084800020000EF0CBFD0223280022881049FFF7C0
:10849000B7FC002800D1C04609B030BD0000BCF7D1
:1084A00000989100E4A200305F9200006192000009
:1084B00062920000639200006592000066920000E4
:1084C00067920000699200006A9200006B920000BF
:1084D00073920000030070B530331B780400012B49
:1084E00007D0022B02D00220002B33D101252D22F0
:1084F00001E000250D22012320001749FFF780FC31
:10850000002828D101232A0020001449FFF778FC15
:10851000002820D10200022320001149FFF770FC3F
:10852000002818D10200022320000E49FFF768FC42
:10853000002810D101230A2220000B49FFF760FC1C
:10854000002808D10123192220000849FFF758FC10
:10855000002800D1C04670BD0893000009930000B8
:108560000A9300000C9300000E9300000F9300008C
:10857000030013B530331B780400012B0CD0022B01
:1085800058D00220002B53D12E4B01AA13806A46EB
:1085900013800123012105E02B4A01A90A806946C5
:1085A0000A800021294AC9020A431B031A436B4669
:1085B00027491B8820000B401A436B4625491A8027
:1085C000022392B2FFF71CFC002832D1FA220223C8
:1085D000200021495200FFF713FC002829D1FA227C
:1085E000022320001D495200FFF70AFC002820D179
:1085F0000123052220001A49FFF702FC002818D1A8
:108600000123102220001749FFF7FAFB002810D1A0
:1086100004232000626B1449FFF7F2FB002808D105
:108620000200012320001149FFF7EAFB002800D1D6
:10863000C04616BD0E4B01AA13806A461380002364
:10864000A8E7C04690DAFFFF90D2FFFF90C2FFFF7D
:108650006F2500006D92000010930000129300003F
:108660001493000043930000A8910000449200007E
:1086700090CAFFFF0300F7B530331D780400012DC9
:1086800009D0022D07D00220002D68D13C234626B8
:10869000344F019303E05026CE25334F019601233A
:1086A000082220003149FFF7ABFB002858D10123F5
:1086B0002A0020002E49FFF7A3FB002850D10123F8
:1086C0002000019A2B49FFF79BFB002848D101238A
:1086D000320020002849FFF793FB002840D10123F6
:1086E000142220002549FFF78BFB002838D10123F5
:1086F000082220002249FFF783FB002830D1022303
:108700003A0020001F49FFF77BFB002828D10123F6
:10871000282220001C49FFF773FB002820D10123E9
:10872000142220001949FFF76BFB002818D10223FF
:108730003A0020001649FFF763FB002810D10123FF
:10874000282220001349FFF75BFB002808D10123F2
:10875000142220001049FFF753FB002800D1C04627
:10876000FEBDC0463C0F000088130000359300009A
:1087700036930000379300003893000039930000CF
:108780003A9300003B9300003D9300003E930000AD
:108790003F9300004193000042930000F0B50B7F2F
:1087A00004000D008DB0002B1BD1E64B0D220B8079
:1087B000E54B52424B80E54B8B80E54BCB800F2342
:1087C0000B811E334B8114338B81053BCB811433DA
:1087D0000B82053B4B82563B8A82CB820A834B83BA
:1087E000C046288850221421DA4B80B2FFF74BFC98
:1087F0006F88AB8802009BB20093EB8806009BB2A7
:1088000001932B8920009BB202936B89D2499BB2C2
:108810000393AB89BFB21BB20493EB891BB20593E0
:108820002B8A1BB206936B8A1BB20793AB8A1BB2CF
:108830000893EB8A1BB209932B8B1BB20A936B8BA9
:10884000FF251BB20B932A400123FFF7D9FA00281A
:1088500000D062E204232000C04AC149FFF7D0FAE9
:10886000002800D059E250221421BA4B3800FFF7FB
:108870000AFC821B01232000BA49D2B2FFF7C0FADA
:10888000002800D049E26E221421B24B0098FFF775
:10889000FAFB0200060001232000B3492A40FFF73B
:1088A000AFFA002800D038E2F22204232000AF49BA
:1088B0009200FFF7A5FA002800D02EE26E221421C4
:1088C000A44B0198FFF7DFFB321A01232000A849CF
:1088D000D2B2FFF795FA002800D01EE202980EF0FF
:1088E00085FA0022A34B0DF0E1FB0EF043FA802342
:1088F0003E220221DB05FFF7C6FB02000123200018
:108900009D492A40FFF77CFA002800D005E20423A5
:10891000592220009949FFF773FA002800D0FCE1A2
:108920000200022320009649FFF76AFA002800D0CF
:10893000F3E103980EF05AFA00228E4B0DF0B6FBCD
:108940000EF018FA802364220221DB05FFF79BFB5F
:108950000200012320008B492A40FFF751FA00282A
:1089600000D0DAE10423592220008749FFF748FAB2
:10897000002800D0D1E10423132220008349FFF70F
:108980003FFA002800D0C8E1042377222000804964
:10899000FFF736FA002800D0BFE1012303222000B0
:1089A0007C49FFF72DFA002800D0B6E1012303220D
:1089B00020007949FFF724FA002800D0ADE1012317
:1089C00020001A007549FFF71BFA002800D0A4E127
:1089D00002232000724A7349FFF712FA002800D0E0
:1089E0009BE10123022220006F49FFF709FA0028CA
:1089F00000D092E10200022320006C49FFF700FA48
:108A0000002800D089E1FE23282178229B054942D5
:108A10000498FFF738FB012342B265492000FFF7B5
:108A2000EFF9002800D078E10123042220006149F9
:108A3000FFF7E6F9002800D06FE1FE232821782215
:108A40009B0549420598FFF71EFB012342B25A4994
:108A50002000FFF7D5F9002800D05EE1FE23282191
:108A600078229B0549420698FFF70DFB012342B28D
:108A700052492000FFF7C4F9002800D04DE101233E
:108A8000042220004E49FFF7BBF9002800D044E142
:108A9000FE23282178229B0549420798FFF7F3FA25
:108AA000012342B247492000FFF7AAF9002800D06D
:108AB00033E10123732220004349FFF7A1F9002885
:108AC00000D02AE10123032220004049FFF798F952
:108AD000002800D021E101236E2220003C49FFF74D
:108AE0008FF9002800D018E10123552220003949D0
:108AF000FFF786F9002800D00FE1012302222000B1
:108B00003549FFF77DF9002800D006E10123502206
:108B100020003249FFF774F9002800D0FDE0FE2361
:108B2000282178229B0549420898FFF7ACFA0123D7
:108B300042B22B492000FFF763F9002800D0ECE097
:108B400050E0C0468C0A0000BE0A0000CC100000B5
:108B50009A10000066664A427592000055070000B0
:108B6000769200007B9200007892000079920000DB
:108B70007C9200000000E03F8092000081920000A3
:108B8000889200008292000083920000849200008C
:108B90008592000086920000879200009492000067
:108BA000D8DCFFFF8A9200008C9200008D920000BA
:108BB0009A9200009B9200009C9200009D920000FF
:108BC0009E9200009F920000A0920000A1920000DF
:108BD000A2920000A3920000A4920000A5920000BF
:108BE000A69200000123042220004D49FFF708F956
:108BF000002800D091E0FE23282178229B054942DD
:108C00000998FFF740FA012342B246492000FFF7D6
:108C1000F7F8002800D080E0FE23282178229B0569
:108C200049420A98FFF72FFA012342B23E49200039
:108C3000FFF7E6F8002870D10123042220003B4909
:108C4000FFF7DEF8002868D1FE23282178229B0553
:108C500049420B98FFF717FA012342B2344920002A
:108C6000FFF7CEF8002858D1142201232000314903
:108C70005242FFF7C5F800284FD1012302222000FD
:108C80002D49FFF7BDF8002847D10F22012320000E
:108C90002A495242FFF7B4F800283ED101230222AC
:108CA00020002749FFF7ACF8002836D102233C22E8
:108CB00020002449FFF7A4F800282ED10200012348
:108CC00020002149FFF79CF8002826D10223012229
:108CD00020001E49FFF794F800281ED1022301222C
:108CE00020001B49FFF78CF8002816D10223FA2236
:108CF00020001849FFF784F800280ED1E122022352
:108D000020001549D200FFF77BF8002805D1022387
:108D100020001A001149FFF773F80DB0F0BDC046EE
:108D2000A7920000A8920000A9920000AA92000059
:108D3000AB920000AC920000AD920000AE92000039
:108D4000AF920000B2920000B4920000B592000011
:108D5000B6920000BA920000BC920000BE920000E1
:108D6000030010B52C331B7804000220002B4ED1D9
:108D70001E23E25E264903002000FFF741F8002889
:108D800045D11C23E25E200002232249FFF738F878
:108D900000283CD11A23E25E200002231E49FFF77F
:108DA0002FF8002833D11823E25E200002231B494C
:108DB000FFF726F800282AD11623E25E20000223BE
:108DC0001749FFF71DF8002821D12623E25E200075
:108DD00002231449FFF714F8002818D12423E25E77
:108DE000200002231049FFF70BF800280FD122239F
:108DF000E25E200002230D49FFF702F8002806D1A9
:108E00002023E25E200002230949FEF7F9FF10BD8E
:108E1000EA910000EC910000EE910000F09100005A
:108E2000F2910000F4910000F6910000F89100002A
:108E3000FA9100007FB50F250E00110000226D444D
:108E40002A70012B1DD0022B2CD00624934203D173
:108E5000914204D001290FD0200004B070BD01233D
:108E60000A0001930B0002210095FFF7E2F8041EAF
:108E7000F2D12B783370EFE701911A0003210095AE
:108E8000F3E7002903D0012907D00624E4E70A000C
:108E9000019300950B000421E7E7019113000521E0
:108EA0000095E2E7002906D00129EED101911300D7
:108EB00007210095D9E701230A00019300950B00D3
:108EC0000621D2E70022022330B585B003AD2A8007
:108ED0000C000193122113000095FFF7AAF8002857
:108EE00001D12B88238005B030BD7FB5130000224F
:108EF00003AD0E002A80012B11D0022B15D00224C5
:108F0000934209D11A00622101940095FFF791F86C
:108F1000041E01D12B883380200004B070BD0223D1
:108F20006421019300951300F0E70193662113007B
:108F30000095EBE730B587B003AD2980002105AB84
:108F40001980023104008A430620002A0AD12A88A7
:108F500010306844028001910093200001236031A9
:108F6000FFF767F807B030BD30B50F2500220123A9
:108F700085B06D442A700C0001937F211300009589
:108F8000FFF757F8002801D12B78237005B030BDCA
:108F900030B502231500002285B003AC2280019376
:108FA00000941300FFF745F8002804D16278237875
:108FB00012029B182B8005B030BD30B5022315007E
:108FC000002285B003AC2280019300941300FFF7C8
:108FD00030F8002804D16278237812029B182B8085
:108FE00005B030BDF0B500242C4D87B002AB039125
:108FF000070016002100202228009C810DF0F8FFB8
:10900000039B162B18D03A2B32D00620142B2DD1CF
:109010002023220001937521230038000095FEF7DC
:109020006FFF002822D16A7D2B7D12021A433B007C
:1090300031331B7812B211E02023220001937521F5
:10904000230038000095FEF75BFF00280ED1EB7D72
:10905000AA7D1B02313713433A781BB25343336066
:109060003133622B01D800233360002007B0F0BDFC
:109070000223019305AB00932200230038000399DB
:10908000FEF7D7FF0028F1D102AB5B7B02AA127B6F
:109090001B02D21831373B7812B2DFE75C0C00209C
:1090A00010B589B2FEF71AFF10BD07B50193002372
:1090B000009289B21A00FEF723FF0EBD30B50F24CF
:1090C000002585B06C442570012B04D0022B02D002
:1090D000062005B030BD89B201930094FEF710FF61
:1090E000F7E7000010B500F031FB094C20700120BB
:1090F00000F08CF800F04EFD237803435BB20120B2
:10910000237000F083F8207843425841C0B210BD6C
:109110007C0C002010B500F07DF8204C2070012060
:1091200000F074F800F0D4FD237803435BB2012013
:10913000237000F06BF800F00BFC237803435BB264
:109140000120237000F062F800F0F2F82378034366
:109150005BB20120237000F059F800F0BFF92378CA
:1091600003435BB20120237000F050F800F0E6F9F1
:10917000237803435BB20120237000F047F800F02E
:1091800019FA237803435BB20120237000F03EF804
:10919000207843425841C0B210BDC0467C0C00202C
:1091A00010B500F02BFE034B18701878434258415D
:1091B000C0B210BD7C0C002010B500F06DF80C4C56
:1091C0002070012000F022F800F0B8F92378034362
:1091D0005BB20120237000F019F800F085F82378C5
:1091E00003435BB22370207843425841C0B210BDA4
:1091F0007C0C002010B502F059FB002803D1024A74
:1092000013680133136010BD800C002010B502F00C
:10921000D3FA10BDF7B5B32500241B4E0822FF2159
:1092200030000DF0E5FE132C17D83700174B620005
:10923000D3180093231DDBB201930222380000995A
:1092400002F09EFB0134019BE4B29C4205D0009BDE
:10925000023702330093142CEFD1EBB20822310015
:109260002800B72B00D10A48FFF7C4FF094E307021
:109270000120FFF7CBFF00203056002802D1013536
:10928000B82DCAD1FEBDC046A00C0020D00A0020D7
:1092900002040000AD0C002037B504252A00684602
:1092A0000D490DF0BBFE2A000C4901A80DF0B6FED9
:1092B0000B4C2A00694620000DF0B0FE2A00601910
:1092C00001A90DF0ABFE08222100B020FFF792FFAC
:1092D000044B18703EBDC046A80A0020AC0A00200E
:1092E000A00C0020AD0C002037B504240825220076
:1092F00068460B490DF092FE22000A4901A80DF0C4
:109300008DFE094C2A00694620000DF087FE2A00D8
:109310002100B920FFF76EFF044B18703EBDC04618
:10932000A00A0020A40A0020A00C0020AD0C002000
:10933000F0B5062200215C4885B00DF059FE5B4B6C
:1093400002211B785A4A012B06D01300AC3319783E
:1093500001394B1E9941C9B21300AF331B78150078
:109360009C461300AE331C78524BC135187813005D
:10937000BB331B78240700932D78634601951500B5
:10938000C0352D789B0702951500BE352D781C43FE
:1093900003951500BF352F781500009B000620436C
:1093A000DB0503430198BC358005034302982E7802
:1093B000400503430398150000050343FF043B43A6
:1093C000B6041E431300BD352D78B73318786D04ED
:1093D0003543890601232943002803D11300B833FC
:1093E0001B78DBB21B040B433349314E0878012153
:1093F000002803D13100B5310978C9B2C903194336
:109400002E4B0093196000231C001F00F0185030F1
:1094100000780B2B06D80B27FF1AB8400133012721
:109420000143F3E705001320C01A854001332C43A4
:10943000E4B2142BEAD1224B1C70002F01D0009B08
:1094400019601300B232B3331B7811781D4A8901B9
:1094500000921278DB011C4D1C4E0B43520113434A
:10946000114C1B4F2B7033782000A3713B780422E2
:109470001249E37102F084FA114B08221B78210093
:1094800023712B78B1206371FFF7B4FE114B094AA9
:10949000187000233B7033701370009A13700E4ADB
:1094A000137005B0F0BDC046A00C0020920B002048
:1094B000D00A0020AB0C0020840B00209C0C002064
:1094C000980C0020AC0C00208E0C0020A90C002071
:1094D000A80C0020AD0C0020AA0C0020F8B508272D
:1094E0000F4D3A00280000210DF082FD0D4B0E4E6D
:1094F0000E4C1B88310002220D486C34338002F080
:109500003FFA2388310002220A48338002F038FAF9
:109510003A002900B220FFF76DFE074B1870F8BD26
:10952000A00C00203A0B0020920C0020D00A002052
:10953000A20C0020A40C0020AD0C002037B508259B
:10954000164C2A00002120000DF052FD6A46144BF3
:10955000694620001380022202F012FA6B46991C21
:10956000072302220F480B8002F00AFA1D2301A9EB
:1095700002220D480B8002F003FA6B46991D662308
:1095800002220A480B8002F0FBF92A002100BE20CB
:10959000FFF730FE064B18703EBDC046A00C002001
:1095A000E7070000A20C0020A40C0020A60C00205D
:1095B000AD0C0020F0B50026184B85B00193184B78
:1095C000310005221748039302960DF011FD032385
:1095D0000127154C082221002370C120DB1863707D
:1095E000A770FFF707FE114D287038000737FFF707
:1095F0000DFE3A00310020000DF0FAFC200003A916
:10960000042202F0BDF93A002100C220FFF7F2FD6A
:109610002B78184340B2287005B0F0BD0306010056
:10962000C6211401A30C0020A00C0020AD0C0020CA
:10963000F7B51C000023C3568C46A34201DD086821
:10964000FEBD8318013B1B785BB2A3422EDA184B98
:10965000D21892005058F3E74B1CAC4204DB1900BF
:10966000CBB245569A42F7D862468B00D218043ADC
:1096700001271668624640187F42C757311CD058F0
:109680000BF01AFB0190E81B0BF0DAFC011C0198AF
:109690000AF0EEFF051CE01B0BF0D2FC011C281C9D
:1096A0000BF0CCF9311C0AF059FEC9E70121D7E7CC
:1096B000FFFFFF3FF7B50190101C161C0F1C0BF0AD
:1096C0009FFC0F4D0F4B2A6804009A4200D128607E
:1096D00020000BF0B5FC011C301C0BF0EDFA391C1E
:1096E000061CF7F7CBFC002802D001342C6005E003
:1096F0000199301CF7F7AEFC0028F7D12868FEBDB1
:1097000068FEFF1FFFFFFF7F70B50C00CF21090629
:10971000051CF7F7BDFC00280BD09E21281CC905AD
:10972000F7F7A2FC002804D0281C0BF069FC20608D
:1097300070BDCF21281C0906F7F78CFC431E984109
:10974000014BC018F3E7C046FFFFFF7FF7B5714E2E
:109750000822002130000DF04BFC6F4C6421A06CFE
:10976000F7F79AFA6D4F022239003880300002F084
:1097700007F90A21E06CF7F719FB694D404229000F
:1097800002222880674802F0FBF8231DDA6F664941
:109790006648FFF78FFF6423984203DC002398425A
:1097A00000DBC3B233712300AC331B780425002BDC
:1097B00019D12300AD331B78033D002B13D12300B7
:1097C000C3331B780435002B0DD12300B0331A7836
:1097D000013553B2002A06D0043D012B03D00135D8
:1097E000013300D004352300B8331A782D03012348
:1097F000002A52D12200B7321278002A4DD122001D
:10980000B4321278002A48D12200B5321278002AE8
:1098100043D12200BE321278002A3ED12200BF324C
:109820001278002A39D12200C0321278002A34D1AD
:109830002200C1321278002A2FD12200BC321278C5
:10984000002A2AD12200BD321278002A25D1230015
:10985000BB331A780123002A1FD12200C2321278AA
:10986000002A1AD12200B2321278002A15D1220021
:10987000B3321278002A10D12200B6321278002AB0
:109880000BD12200B9321278002A06D1284A127868
:10989000002A02D1274B1B78DBB2DB029BB200937C
:1098A0002300B0331B78244A5BB2137001335A4251
:1098B0005341DB0101932300883408332068D96FBA
:1098C0001E4C0AF0D5FE1E490BF0B8F82100FFF738
:1098D0001BFF642322689A4203DC00239A4200DBC8
:1098E000D3B2184A39001370019A2B431A4313005C
:1098F000009A15481A433A80022202F041F80023E8
:1099000031000822BB20F371FFF774FC0F4B187075
:10991000FEBDC046A00C0020D00A0020920C002002
:10992000900C0020A20C00209A99193FCDCCCC3E7F
:10993000AC0C0020AB0C00208D0C0020940C0020FF
:109940000000C8428E0C0020A50C0020AD0C0020A9
:10995000F0B5062200215D4885B00DF049FB5C4D55
:109960005C482900703103880A881BB212B20026B5
:109970009B1AF92B08DC00880B8800B21BB214215B
:10998000C018F7F713FA46B20023534C534F0B227B
:1099900053493800236033000197FFF749FE210047
:1099A000FFF7B2FE4F4B50495F79504B019800933F
:1099B0002368009A7B43137033000B22FFF738FEB5
:1099C0002100FFF7A1FE2368494A7B43DBB21370F5
:1099D0000192009A53702B0090331E68301C0AF0DD
:1099E000BBFB07000BF078FB011C301C0BF064F98B
:1099F0000DF02AFA3F4B404AF7F706FB7B1C002884
:109A000000D13B00DA43D217134080225204934224
:109A100000DB3A4B23603A4B21001C001800042263
:109A200001F0AEFF374B611C1C00032218000DF043
:109A3000F5FA009B03222100981C0DF0EFFAE121BA
:109A400000230901E86F0393F7F726F90BF044FBB5
:109A500003A9041CFFF758FEFA20039B2A499BB276
:109A60001A1C0001834200D9021C0A8027480222E6
:109A700001F086FF2B007833188880B20BF0E0FAF3
:109A8000011C201C0AF0F4FD21490AF0D7FF2049EF
:109A9000041CF7F7F3FA6423061E0AD10021201CE8
:109AA000F7F7D8FA3300002803D1201C0AF054FB42
:109AB000C3B2019A00991370009AB720D37108229B
:109AC000FFF798FB134B187005B0F0BDA20C0020F7
:109AD000D00A00203E0B0020940C0020C4FEFF1F83
:109AE00098FEFF1F700A00206CFEFF1FA00C0020D4
:109AF0008E0C00209999E93F9A999999FFFFFF00F0
:109B0000860C00208A0C0020920C0020A50C00205E
:109B10000000C842AD0C0020F7B51C4E5F001400D9
:109B20001D00BB5F1A4A00900191934202D1BC53C1
:109B30002000FEBD1B1B0A33142B25D80A21200050
:109B4000F7F71AFA019B09B2994212DB0A212000A9
:109B5000F7F72CF900B20BF073FAFE2189050AF031
:109B6000FDFB0BF04DFA0A235843B8536D00745FA8
:109B7000DEE7009B9942F9DC0A212000F7F716F98D
:109B80000A234343BB53F1E7BC53EFE750FEFF1FEB
:109B9000FF7F0000F8B53D4D0722002128000DF0A1
:109BA00027FAFF233A4C3B4E3B4A616F3370130058
:109BB000914205DC0023626F9A4201DB636F9BB226
:109BC0003649022228000B8001F0DAFE2300344DD2
:109BD0008C33186833490AF04BFD2900FFF794FDD8
:109BE00031492A680B008A4203DC00239A4200DBD9
:109BF00093B22E4D022229002D482B8001F0C0FE89
:109C000023006E331A880821002312B20220FFF7C6
:109C100083FF0A210700F7F7C9F8264B00B29F42DD
:109C200030DBA0227F23D200974200DA43B2224ADF
:109C3000943427681080214A73711370381C0AF01D
:109C40008BFA84B220000BF0FBF9011C381C0BF0DE
:109C500033F80DF0F9F81A4A1A4BF7F7D5F900283E
:109C600001D00134A4B22900022217482C8001F04F
:109C700087FE9120310008224000FFF7BBFA134B0A
:109C80001870F8BD7F235B42D1E7C046A10C0020CD
:109C9000D00A0020A00C002094110000840C0020A9
:109CA000940C00200000614560EA0000920C002046
:109CB000A30C002001FBFFFF900C00208D0C002066
:109CC0009A9999999999E93FA60C0020AD0C00202A
:109CD000F7B5424C0822002120000DF089F9404BD5
:109CE000082101933F4B0220DA8F012312B2FFF7C4
:109CF00013FF0A210500F7F759F8A0227F2300B2CD
:109D0000D200954203DA384B9D425BDB43B2374FBA
:109D10002370019B3880DA8F022312B218000821C9
:109D2000FFF7FAFE0A210500F7F740F8A0227F238B
:109D300000B2D200954203DA2B4B9D4245DB43B281
:109D40000025388063702B00019A18335B00D25ACB
:109D50006B1D12B2DBB208210220FFF7DDFE0A21E3
:109D60000600F7F723F8A0227F2300B2D200964224
:109D700003DA1D4B9E422BDB43B21D4A1D4E535549
:109D8000013538803370042DDDD1A022019BD20033
:109D90000633D88F7F2300B2904206DA124B9842E6
:109DA00019DB0A21F7F702F843B2A371192308223D
:109DB0002100BF203B803370E371FFF71BFA0E4B8D
:109DC0001870FEBD7F235B42A1E77F235B42B7E7AC
:109DD0007F235B42D1E77F235B42E6E7A00C0020B4
:109DE000D00A0020D20A002001FBFFFF900C0020C7
:109DF000A20C00208D0C0020AD0C0020F7B52D4BDF
:109E00002D4D1A880821032312B20220FFF784FE89
:109E10002B0070331A88040004230821022012B298
:109E2000FFF77AFE0026231AF92B04DC14212018F0
:109E3000F6F7BCFF46B2214C0021082220000DF0AD
:109E4000D7F86A46CD231E4F5B01911D20000222E8
:109E50000B803B6001F094FD0B221A4933001A4835
:109E6000FFF7E6FB194B061C58790BF0E9F8311C9B
:109E70000AF0E4FD16490AF0E1FD3900FFF744FC61
:109E80003B68144AFF2B00DDFF23A37000236835D5
:109E90001370E3702B881049022210480B8001F0E8
:109EA0006FFD08222100CA20FFF7A4F90C4B18709F
:109EB000FEBDC0463E0B0020D00A0020A00C0020B2
:109EC000940C00206CFEFF1FC4FEFF1F700A0020D0
:109ED000000020418E0C0020920C0020A40C0020D9
:109EE000AD0C0020F7B5060014001F00002806D1B5
:109EF00080231B01994202D301204042FEBD002372
:109F00006A460F4D13809370137128000B002100D7
:109F1000D67008F04BF90028EED13B00220031004A
:109F2000280008F0DDF90028E6D114226243054B31
:109F30002100D218280008F0ADF9431E9841DCE753
:109F400080730100C00C002003685B0700D5C04689
:109F500003681B0700D5C04603685B0600D5C046F2
:109F600003681B0600D5C0460368DB0500D5C04664
:109F700003689B0500D5C04603685B0500D5C04655
:109F80000368DB0400D5C04603689B0400D5C046C7
:109F900003685B0400D5C04603681B0400D5C046B7
:109FA0000368DB0300D5C04603689B0300D5C046A9
:109FB00003685B0300D5C04603681B0300D5C04699
:109FC00003689B0200D5C04670470000F0B500262C
:109FD00089B00C00150004900796B1420BD00129FE
:109FE0004BD06B46187C03F0D9FF079007A8FFF70A
:109FF000ABFF09B0F0BD2A4F2A4A3B6811685B1AD3
:10A00000012B00D0C0463B68274E1360274A290029
:10A01000136827480133136014236B4302939B1981
:10A020001A00039308F036F9039B059059688023C2
:10A030001B01994205D3802300249B05994264416A
:10A04000013414235D43029A75190832B2182B7C2F
:10A0500000200092220001F093FA2B7A6A7A1B0604
:10A0600012049B18AA7A12029B18EA7A9B183B608A
:10A07000059B002BB5D0C046B3E70E4A13680133E9
:10A08000136008F0A1FF0C4B1B68C01A0B4B186043
:10A090000B4B5E550B4B1A689042A2D91860A0E793
:10A0A000B80C0020B00C0020C00C0020B40C002024
:10A0B00080730100BC0C0020980D0020940D00203E
:10A0C000880D0020900D002007B50122054B1A7065
:10A0D00003F064FF0190C04601A8FFF735FFC046BA
:10A0E00007BDC046AE0C002070B5354E3368002B5E
:10A0F00002D00120404270BD324D3349280007F0A4
:10A100009BFF041EF5D102003049280008F01EF91B
:10A110006868012522002E49C0B203F04DFF0221DC
:10A120000B20356006F036FA02210A2006F032FADA
:10A1300001230922162120005B42FFF7D3FE0028ED
:10A1400001D0C046D5E70423C02108225B42C900E4
:10A15000FFF7C8FE0028F4D10123072254215B42F7
:10A16000FFF7C0FE0028C4D10123062254215B4220
:10A17000FFF7B8FE0028BCD10123052215495B4238
:10A18000FFF7B0FE0028B4D10123042211495B423D
:10A19000FFF7A8FE0028ACD1D321032228000E4BE4
:10A1A0000904FFF79FFE0028A3D1D3210222280033
:10A1B000094B0904FFF796FE00289AD1C0469AE79A
:10A1C0008C0D0020807301004C730100CD9F0000B6
:10A1D000C9A0000056030000FFFFD0FF70B50A4D74
:10A1E0002B68012B02D00120404270BD074807F0C8
:10A1F0008DFF041EF7D10222210005480CF0F8FE65
:10A2000020002C60F1E7C0468C0D00208073010017
:10A21000880D0020F0B514000D008DB007AE14229B
:10A220000021039030000CF0E3FE039B2200290084
:10A2300009A8736034740CF0F1FE032302933A4BC7
:10A240001D78002D03D05A78002A3CD10125012128
:10A250005955002380211800039C09018C42584164
:10A2600005AA138093701371304BD0702900180029
:10A27000019307F063FF32002900019807F0D0FF37
:10A2800008F0A2FE2A4F38602900019808F040F833
:10A29000041E15D12749284809F09CFB08F094FEBC
:10A2A000264B0100180009F095FB2100244809F015
:10A2B00091FB244809F08EFBC04620000DB0F0BD94
:10A2C000012829D1C046029B013BDBB20293002B3F
:10A2D000B5D11D4C2378012B07D101F0E3FA0028FA
:10A2E00001D101F0DBFA00232370C0461149124866
:10A2F00009F070FB08F068FE104B0100180009F02F
:10A3000069FB01211148494209F064FB0D4809F03D
:10A3100061FB01204042D1E708F056FE3B68C01ABD
:10A320000128B1D9CEE7C046880D00208073010016
:10A33000980D002038730100447001005170010035
:10A340002C73010068700100AE0C00203273010014
:10A35000074B10B51C68002C07D101221F200549AE
:10A360001A6007F00CFD200010BD01204042FBE701
:10A370009C0D0020DCFFFF1F10B5D2B207F01CFDC2
:10A3800010BD10B50C0007F022FD0123E04018407D
:10A3900010BD01238B4010B5190007F016FD10BD4C
:10A3A000284B70B55A68284D8A4227D11B788342C2
:10A3B00024D101220321254807F0F1FC01220321C9
:10A3C000234807F0F0FC002203212148FFF7D4FFC7
:10A3D00000242B789C4205D3032211001B4807F070
:10A3E000DEFC70BD01220321194807F0E5FC0022C4
:10A3F0000321174807F0E0FC0134EAE701220221BB
:10A40000144807F0CCFC01220221134807F0CBFCD2
:10A41000002202211048FFF7AFFF00242B789C4256
:10A4200003D3052202210B48D9E7012202210A4861
:10A4300007F0C2FC00220221074807F0BDFC0134EE
:10A44000ECE7C046E40D0020CFFEFF1F0090044063
:10A4500000F00F4000C00440C0F00F4013B50B4C9B
:10A460002368002B01D0002016BD094A094901AB21
:10A4700009481A804B6107F0A3FF002802D0012091
:10A480004042F1E701232360EDE7C046A40D002020
:10A4900006070000BCFFFF1FD4FFFF1F10B5084CCC
:10A4A0002368012B01D0002010BD064808F042F8B7
:10A4B000002801D12060F6E701204042F4E7C046C1
:10A4C000A40D0020D4FFFF1F10B5094C2368002BFA
:10A4D00001D0002010BD0749074807F071FF002890
:10A4E00002D101232360F4E701204042F2E7C04695
:10A4F000A80D0020A4FFFF1FE40D002010B5084C9C
:10A500002368012B01D0002010BD064808F012F886
:10A51000002801D12060F6E701204042F4E7C04660
:10A52000A80D0020E40D00200F4B73B55A680C00F5
:10A53000C5B291420DD11E78AE420AD1FFF7DEFFBF
:10A54000002803D121003000FFF72AFFFFF7BCFFEE
:10A5500076BDFFF7A3FF002803D121002800FFF7F5
:10A560001FFFFFF77BFFF3E7E40D0020F0B51600B7
:10A5700087B000930CAB1B8802900391002231003E
:10A5800002A80193032408F005F80123019A009919
:10A5900002A807F08FFF0023144D0593288008F0D0
:10A5A00013FD2B880700002B10D003990298013C63
:10A5B000FFF7BAFFE4B20022310002A807F0EAFF79
:10A5C000002CE2D10120404207B0F0BD05A902A84D
:10A5D00007F0FCFF2880022804D108F0F5FCC01B1E
:10A5E0006328F3D928880028DFD1EDE7A00D0020EB
:10A5F000F0B517260024012789B01D0004900591AD
:10A60000039208F0E1FC02ABF6183470AC4202D3BE
:10A61000012040420AE001343300039A049805996E
:10A620000097E4B2FFF7A2FF0028EFD109B0F0BD18
:10A63000F0B58DB0039312AB1B880192049314AB59
:10A640001B88069007910022019906A8059303270D
:10A6500007F0A0FF0AAC06AD23002A0003CA03C31B
:10A660000A21039B49190B80049A0023200007F05C
:10A6700021FF214B18800023099308F0A5FC060058
:10A68000200009A907F0A2FF1B4B1880022804D163
:10A6900008F09AFC801B6328F2D90123059A1399CC
:10A6A000200007F027FF144B18800023099308F0BF
:10A6B0008BFC0290200009A907F088FF0E4E308025
:10A6C000022805D108F080FC029BC01A6328F1D94A
:10A6D000308800280ED069680698013FFFF724FFF4
:10A6E000FFB200222800019907F054FF002FB2D1D9
:10A6F000012040420DB0F0BDA00D00201A4B0122F8
:10A700009B6859080800104011422CD1990802207A
:10A71000114228D1D9088018114224D11909801872
:10A72000114220D15909801811421CD19909801871
:10A73000114218D1D9098018114214D1190A801870
:10A74000114210D1590A801811420CD11100801801
:10A750005A0508D4DA0A40180A4204D15B0B0B40B0
:10A760000230C01AC0B2704700F0074010B5054C67
:10A770002378002B05D10449044807F043FF012347
:10A78000237010BDAC0D0020CC020020C4020020BC
:10A7900010B5054C2378012B04D1044808F008F8C3
:10A7A0000023237010BDC046AC0D0020C402002061
:10A7B00070B50F4D2E68002E01D0002070BD012114
:10A7C0001A2005F0E7FE0B490B4808F033F8012387
:10A7D000040032000321094806F0F8FC0443A4B247
:10A7E000002C02D101232B60E7E701204042E5E77E
:10A7F000B00D0020F0020020EC0D002000C002404F
:10A80000F0B5042585B0019002910392154F039B8A
:10A81000029A0199380008F055F8134C208008F08E
:10A82000D3FB23880600002B07D0013DEDB2002D9D
:10A83000ECD10120404205B0F0BD380008F062F8CC
:10A84000208008F0C1FB801B632806D8380008F080
:10A8500059F820800028F4D1C04620880028E4D18F
:10A86000E9E7C046EC0D0020AE0D002070B50A4DA2
:10A870002C68002C0AD103210C2005F08BFE07491F
:10A88000074808F067F90123002802D001240023BB
:10A89000644220002B6070BDB40D00200C0300202A
:10A8A0008873010010B500F0FBF910BD37B5002327
:10A8B00000220D4D0092019300216A46280008F005
:10A8C0006BFA041E0CD1009A019B00210748F6F791
:10A8D000E9FB05210200280008F008FA20003EBD2F
:10A8E00001204042FBE7C0468873010000E1F50506
:10A8F00010B5084C2368002B02D00120404210BD47
:10A900000549064808F002FB0028F6D10123236020
:10A91000F5E7C046B80D0020907301009C7301005C
:10A9200010B5024808F01CFB002010BD9C7301000C
:10A93000024B98688006C00F7047C04600F0074081
:10A94000C046704710B501F02DFA10BD10B50020BB
:10A9500000F02AF90338431E9841C0B210BD10B56B
:10A96000002000F081F810BD37B50024084B0D0021
:10A9700001AAC11820000423019400F0BDF8041EB0
:10A9800004D10422280001A90CF048FB20003EBDA0
:10A9900000C0FFFF13B56A46084B0C001B7813710B
:10A9A000074B01AAC1180123002000F0A5F80028D8
:10A9B00002D16B461B79237016BDC0466970010039
:10A9C00000C0FFFF7FB500260400150001200191A3
:10A9D0000396042A0AD801A903A80CF01FFB044B14
:10A9E0003000E11803AA2B0000F0A3F804B070BDFA
:10A9F00000C0FFFF30B5002485B005001300012022
:10AA000001910394042A0AD801AAD11803AA013992
:10AA10009C4206DB05490020691800F08AF805B061
:10AA200030BD087810550134F1E7C04600C0FFFF83
:10AA300037B5012205000C00FFF7C4FF002801D044
:10AA400001203EBD6A46074B28001B7801A91371FF
:10AA5000FFF7A0FF0028F4D16B461B79A342EFD18A
:10AA6000EFE7C04669700100034B185C0138431ED4
:10AA70009841C0B27047C046BC0D0020F0B5134FDE
:10AA800006012021F059C1B009F023F80024050087
:10AA9000BB19DB6800219C4205D3080001E0C046D9
:10AAA000012041B0F0BDFC2201A800910CF0A0FAF9
:10AAB000802269462002520009F03CF805436DB23D
:10AAC000002DECD10134E4B2E2E7C046C00D002015
:10AAD000084B00011B1810B55C6802208C4208D896
:10AAE0009B688B4205D35218013393428041404208
:10AAF000400010BDC00D0020F8B51D0006000C0080
:10AB00001700FFF7B1FF03000120002B07D12A0037
:10AB100021003000FFF7DCFF002801D0C046F8BD5F
:10AB20002A003900200009F079F8431E9841C0B28C
:10AB3000F5E7F0B506000C000021C3B0019203A8B0
:10AB4000FC221D0002910CF053FA3000FFF78CFF3D
:10AB500003000120002B07D12A0021003000FFF75D
:10AB6000B7FF002802D0C04643B0F0BDFF27260043
:10AB70008022BE43520002A9300009F04FF83C4049
:10AB800002ABE0182A0001990CF048FA812130004C
:10AB900008F09FFF80223000520002A908F0CAFF8F
:10ABA000431E9841C0B2DFE7F0B585B0002802D05F
:10ABB000042005B0F0BD354D354B0122AB601023AC
:10ABC000EB6002AB190018802860686009F026F875
:10ABD000012202AB04009918A86809F01FF8044389
:10ABE00064B2002CE4D102AB1B78AA2B0FD102ABCC
:10ABF0005B78552B0BD10122264B1A702B689A18C3
:10AC0000254903205B1821494A608B60D1E7002069
:10AC1000FFF734FF061ECBD10125204B03AA1B4FA3
:10AC200013801C4B396801931D702B00FFF781FFC7
:10AC300002AA04002B003000B9680532FFF779FF43
:10AC4000019B0443E4B21E70002CB1D102AB190089
:10AC50002A0038681C8008F0E1FF02AB04002A00DB
:10AC6000B868591908F0DAFF044364B2002C9FD188
:10AC700002AB1B78AA2B9BD102AB5B78552B97D1EB
:10AC8000019B1D703B685A19BAE7C046C00D0020F1
:10AC9000FF0F0000BC0D0020FE0F0000AA550000B1
:10ACA000F0B5EF498DB0EF4808F094FE08F08CF94C
:10ACB000ED4B0100180008F08DFEEC4808F08AFE0C
:10ACC000EB4808F087FE08F07FF90122E94BEA4ED5
:10ACD0001A70039000F0FAFDE84BE94D1A78E94B41
:10ACE000E94C1A702A00663212785A702A006232D1
:10ACF00012789A702A0064321278DA702A0065326B
:10AD000012781A712A00633212785A712A00773247
:10AD100012789A712A0076321278DA7100235A007A
:10AD2000115B0133B152142BF9D13200D74BAF3242
:10AD30001978117032005978B03211703200997858
:10AD4000B13211703200D978B232117032001979F3
:10AD5000B33211705A793300B4331A70CC4B1B786C
:10AD60005A1E93413200A5321370CA4B1A780093D1
:10AD70003300B6331A7000F023FDC74F3B6898428A
:10AD800000D80DE2C54B1B78002B02D000F018FD57
:10AD90003B6800F015FDC24F3B68984200D804E2C2
:10ADA000C04B1B78002B02D000F00AFD3B68009BD3
:10ADB0001B78002B09D1B94B1A783300A2331A70D3
:10ADC000B84B1A783300A3331A703200B64BAE3248
:10ADD0001B7813702300AE331A7833009D331A703A
:10ADE0002300AF331A7833009E331A70AF4BB04A4A
:10ADF00019780123002901D11378DBB21178AD4A0B
:10AE0000AD3633701378A94E0B431370AA4A3178CC
:10AE100013780B43591E8B41DBB21370A74A33786A
:10AE200011780B4313702300A54AC23311781B78A5
:10AE30000B431370F7F74CFF00F088FE0023E95C2A
:10AE4000E218503201331170142BF8D15E22230026
:10AE5000AA56B0331A705F222300AA56B1331A7073
:10AE60002200984B6A32198A686A11802200598A36
:10AE70006C3211802422995E22006E3211802222CF
:10AE80009A5E230070331A800AF0BAF823006067D4
:10AE9000AA8F68331A808C4B1A68231DDA678B4B94
:10AEA0001A68230088331A60AB6AE367884B1A6814
:10AEB00023008C331A6023002A6D9C331A60230010
:10AEC0006A6DA0331A602300AA6DA4331A602300B0
:10AED000EA6CA8331A602B002C331B785A1E93415E
:10AEE0002200DBB2B23213702B002D331B785A1EB6
:10AEF00093412200DBB2B33213702B002E331B7848
:10AF00005A1E93412200DBB2B43213702B002F3350
:10AF10001B785A1E93412200DBB2B53213702B000E
:10AF200030331B785A1E93412200DBB2B7321370C4
:10AF30002B0031331B785A1E93412200DBB2B8320A
:10AF400013702B0032331A782300BA331A702B0097
:10AF500033331B785A1E93412200DBB2BB3213708D
:10AF60002B0034331B785A1E93412200DBB2BC32D3
:10AF700013702B0035331B785A1E93412200DBB22D
:10AF8000BD3213702B0036331B785A1E93412200BA
:10AF9000DBB2BE3213702B0037331B785A1E93413D
:10AFA0002200DBB2BF3213702B0038331B785A1EDD
:10AFB00093412200DBB2C03213702B0039331B786F
:10AFC0005A1E93412200DBB2C13213706B1CDA7F30
:10AFD0002300C2331A702200354BC3321B78603510
:10AFE000DBB2137033785A1E93412200DBB2C432B5
:10AFF000137023002A78C5331A70364A19781378EB
:10B000000B43137007F0E0FF334E344D3368C01A22
:10B01000334B1A78FA239B005343984205D90122F7
:10B02000304B1A6007F0D0FF30602F4B2F4E1A784C
:10B03000012A10D100221A70F6F73EF92C4B186045
:10B04000009B1B78012B06D03378012B03D02E35C3
:10B050002978F6F74FF9C0463378264D4CE0C046C4
:10B06000C57301004470010051700100A473010018
:10B0700068700100C80700201C070020010700209D
:10B08000A0060020480E0020D00A0020C40E002098
:10B090003B0A00202C0E002004FCFF1F09FCFF1FB0
:10B0A00000FCFF1F08FCFF1F220E0020500E002096
:10B0B0003D0A0020AC0C0020AB0C0020170E002035
:10B0C000160E0020F80700206C0A0020640A0020F9
:10B0D000680A0020AA0C0020400E0020700A002000
:10B0E0009E0A0020440E00203C0E00202D0E002061
:10B0F000340E002028030020012B1BD100211E222A
:10B1000004A829700BF074FF324F334B39681B6869
:10B1100099424FD800294DD02300B0331B78002B23
:10B120004FD0C0462D4B1868F6F7F2F80023337065
:10B1300001332B70009B294A1B7800210292012BBE
:10B1400000D0E7E11E2204A829700BF051FF234F25
:10B15000234E3A6833689A4200D983E0214B1D7828
:10B16000214B1B780193012B0AD1204B1868F6F76D
:10B1700077F8013000D0019500221B4B019D1A7019
:10B18000154A33681268934201D8002B34D1C04667
:10B19000B0342378002B00D0C046C046386851E058
:10B1A000134B1A7801221A70F3E5124B1A78012218
:10B1B0001A70FCE5C0462300B0331B78002BB0D1D9
:10B1C000B0E704A8F6F726F8396804A8F6F784F87B
:10B1D000A8E7C046300E0020340E0020280E0020C4
:10B1E000380E0020190E0020200E00201C0E00201A
:10B1F000A90C0020A80C00202300B0331B78002BE2
:10B20000CAD1002D00D073E11E22290004A80BF042
:10B21000EFFE04A8F5F7ECFFCA4B04A8196801314A
:10B220001960F6F759F8C84B002800D04DE11A68AC
:10B2300001321A60C54A1570C046186833689842D2
:10B2400000D25EE1F6F764F80023029A1360C04A68
:10B250001360009A1370BB4A1360F6F71DF80122C1
:10B26000BC4B1A70BB4B1B78012B00D02BE1BA4BA7
:10B270001E68012E00D026E10021B84C1E222000BD
:10B2800019600BF0B5FEE121B54D0901E86FF5F746
:10B2900003FD09F021FF2B007833071C188880B2CA
:10B2A00009F0CEFE011C381C09F0E2F9AD4909F0A5
:10B2B000C5FB2B000290B2331A78637D3240B34352
:10B2C000134363752B000227B3331A78637D324032
:10B2D0005200BB43134363752B00B4331A78042127
:10B2E0003240BA40637D08208B43134363752B00C3
:10B2F000B5331A78637D3240D200834313436375BC
:10B300002B00B7331A78637D32408A400C318B436F
:10B31000134363752B00944AB8331B78009212785C
:10B320005B01511E8A4192011A43904B01931B7895
:10B33000591E8B411F21DB011343627D0A401343D9
:10B3400063752B00BA331A781B39531E9A41A37DBB
:10B35000B3431343A3752B00BB331A78A37D32404C
:10B360005200BB431343A3752B00BC331A78A37D53
:10B370003240BA408B431343A3752B00BD331A7878
:10B38000A37D3240D20083431343A3752B00BE3309
:10B390001A78A37D32408A400C318B431343A37546
:10B3A0002B00BF331A78A37D3240103152018B43FA
:10B3B0001343A3752B00C0331A78A37D324020318C
:10B3C00092018B431343A3752B00C1331A78A37DDD
:10B3D0003F31D2010B401343A37507F0F5FDFA216D
:10B3E000030A20706370030C000EA370E0708900E4
:10B3F000E86CF5F7DBFC83B21B0A63742B00207446
:10B400006A331B880421A3711B0AE3712B006C3380
:10B410001B8823711B0A63712B006E331B88A37278
:10B420001B0AE3722B0070331B8823721B0A6372A2
:10B43000EB8F23731B0A6373EB19DB8FA3731B0A58
:10B44000E3732B00AE331A78E37D3240B3431343EA
:10B45000E3752B00AF331A78E37D32405200BB43D3
:10B460001343E3752B00AC331A78E37D3240BA40C6
:10B470008B431343E3756B18D86F08F06DFE2B00F8
:10B4800088350833A0742868D96F09F0F1F8354978
:10B4900009F0D4FA08F060FEE074029808F05CFE4F
:10B4A00006222075AA2132480BF0A2FDC0462000DA
:10B4B000F5F78CFE2F4B002839D02F4A1E701378D9
:10B4C00001331370C0460DB0F0BD204930680A78D2
:10B4D0000A250132D2B20A70642800D8093D1C49FD
:10B4E000AA4201DB1860C046C04618680B68A6E691
:10B4F000C04638683368984200D3A3E6012D00D1D6
:10B50000A0E607F061FD039BC01A5A2800D81EE68A
:10B51000C046A7E6029B19600D4B1960009B19708D
:10B52000084B1960F5F7B8FE01232B709AE6019AD3
:10B5300018701070009A1070104A1368013313606D
:10B54000C1E7C046240E0020280E0020180E00205F
:10B55000380E002028030020440E0020F80D0020A3
:10B56000D00A00200000C842160E0020170E00204E
:10B57000100E0020220E0020210E0020F40D0020CD
:10B58000F7B50E00674868491400089D08F022FAD4
:10B5900007F01AFD654B0100180008F01BFA310096
:10B5A000634808F017FA634808F014FA624F3B78D2
:10B5B000002B39D101223A70002C34D1542E0CD0FA
:10B5C0005E4B9E4213D05E4B3C70F018032800D9AE
:10B5D0009AE0F5F757FB1437709E2B79594ADB092F
:10B5E000137000F0EDF8584B18603C70F7BD2B78E5
:10B5F000564ADB09137000F0E3F8554BF4E7554B5E
:10B600001B78002BF2D1544B01221A70EEE7514BFC
:10B610001B78002B10D0012CE8D1C0202900C000DD
:10B6200000F012FAE2E73B70454BF018032876D899
:10B63000F5F71EFBED3851600122474B1A7094421A
:10B64000D4D1EAE7434B1B78002BCFD1C046434E01
:10B650000422290030000BF0E1FC414F04223800A5
:10B66000291D0BF0DBFC32683B68019293421DD828
:10B670000121994292413B48524201703648017083
:10B6800039480270002B00D10B00019A3B60013257
:10B69000D21A00233260354A1360354A1360354AA6
:10B6A000137003E02B4B1B78002BCFD0012C9DD1C6
:10B6B00029003148B4E7C0462A4B1B78002B0FD035
:10B6C000EB79FF2B00D091E701222A4B1A709442AC
:10B6D00000D08BE714E0C046224B1B78002B09D129
:10B6E0000422290025480BF099FC0122244B1A70F2
:10B6F000194B1A70EB79FF2BE6D0012C00D075E7BF
:10B700002900300000F0A0F9162E00D06EE71D4B86
:10B710007AE7EB79FF2B00D068E7164B74E7012C32
:10B72000EED0F1E744700100AF73010051700100E9
:10B73000A973010068700100510E0020560300003B
:10B7400000FAFFFF09FCFF1F04FCFF1F08FCFF1F9E
:10B7500000FCFF1F800B00203C0E0020380E002054
:10B760001C0E00202C0E0020200E0020240E002095
:10B77000280E0020190E002001060000300E0020C7
:10B780002D0E0020980B002010B500230121044A43
:10B79000044801F08FF90021080001F097F910BD6D
:10B7A000E00D0020D0FEFF1F10B5FFF7EDFF0120D8
:10B7B00007F0FCFB002010BD10B507F0F7FB10BD33
:10B7C00010B507F001FC10BD10B5FEF7C1FD10BDAE
:10B7D00010B5FEF7D1FD10BD10B50122FEF7CCFD6E
:10B7E00010BD10B50022FEF7C7FD10BD10B5FEF765
:10B7F000C8FD10BD10B5FEF7CCFD10BD10B5034C53
:10B8000002000B0003CCFEF7F3FE10BDD4FFFF1FB8
:10B8100013B5044C00920B00020003CCFEF7A6FE09
:10B8200016BDC046D4FFFF1F1FB502930123054C70
:10B830000192009302000B0003CCFEF7F9FE04B066
:10B8400010BDC046D4FFFF1F10B5FEF73DFE10BD72
:10B8500010B5034C02000B0003CCFEF7C9FE10BD6F
:10B86000E40D002013B5044C00920B00020003CC41
:10B87000FEF77CFE16BDC046E40D00201FB5029306
:10B880000123054C0192009302000B0003CCFEF74C
:10B89000CFFE04B010BDC046E40D002010B5FEF789
:10B8A00023FC10BD10B5FEF799FC10BD10B5FEF7D6
:10B8B000B1FC10BD10B5FEF7D9FF10BD10B5FEF7F5
:10B8C000F5FF10BD10B5FFF713F810BD10B5FFF769
:10B8D00027F810BD10B5FFF72BF810BD10B5FFF716
:10B8E0002FF810BD10B5FFF72DF810BD10B5FEF7FD
:10B8F0003DFF10BD10B5FEF74BFF10BD10B5002881
:10B9000004D10B210548FFF76CFF10BD0128FCD1C5
:10B910000B210248FFF760FFF7E7C04600F00F4039
:10B9200010B5002804D10C210548FFF75AFF10BDBF
:10B930000128FCD10C210248FFF74EFFF7E7C04673
:10B9400000F00F4070B5094D002228000B2106F0D1
:10B950002AFA28000B21FEF714FD0400012228001A
:10B960000B2106F020FAE0B270BDC04600F00F4097
:10B9700010B5FEF71DFF10BD10B5FEF741FF10BD5D
:10B98000002310B5891801399A4200DC10BD0C78EB
:10B99000C4540133F7E7002310B59A4200DC10BD10
:10B9A000CC5CC4540133F8E710B500F0FBF910BDCE
:10B9B00010B5FEF7A3FE10BD10B5164CFFF7F4FE50
:10B9C000FFF780FFFFF700FF200001220221FFF7B1
:10B9D000FFFE002201211048FFF7FAFE0122052197
:10B9E0000E48FFF7F5FE012209210D48FFF7F0FE92
:10B9F000200000220821FFF7EBFE00220721094862
:10BA0000FFF7E6FEFFF720FFFFF754FFFFF7B0FF59
:10BA100010BDC04680F00F40C0F00F4040F00F4016
:10BA200000F10F4000F00F4010B5FFF747FF10BDC9
:10BA300010B5FFF733FF10BD0020704710B5FFF7BA
:10BA400035FFC0B210BD7047D82337B51B040C00BA
:10BA5000984234D00CD8D6231B0498424CD0D7231C
:10BA60001B04984237D0D3231B04984256D037BDCD
:10BA7000D9231B0498420ED0DF231B049842F6D131
:10BA80000B7801201F2B03D03F3B5A1E93415800D7
:10BA900000F0ACF8EBE7CA788B7812021A430B7906
:10BAA00048781B0413434A79010712061A431F23DF
:10BAB00098432378490F184300F0ACF8D7E7702378
:10BAC0004978A278C800184023780907490F18431D
:10BAD00000F0B2F8CBE70D780021032201A8009115
:10BAE0000BF086FA611C2A0068460BF097FA69464B
:10BAF000280000F0A3F8BAE70878FF21831E012B85
:10BB000009D8A278637812021A43E37821791B04DA
:10BB100013430906194300F0A7F8A8E74A790B79FF
:10BB200012021A438B79C9791B0413430906627800
:10BB30001943237812021A43A378E0781B041343B5
:10BB40000006184300F09CF891E7000037B5254C3B
:10BB5000A378D8B2052B0DD8F5F794F8031D0C0C7B
:10BB60002023FF220021232000F096F80F23A3704A
:10BB700000282FD1E378022B16D063790020022B06
:10BB800028D10022184B1100D869C0B200F0A9F8E2
:10BB90000F2363711EE0FF220121E4E7FF2204214D
:10BBA000E1E7FF220521DEE700250322290001A8A5
:10BBB00000950BF01DFA29000B4B1A8991420ADB04
:10BBC0001A8969462320D2B200F07CF80F23E37073
:10BBD0000028D2D03EBD68465A5C4254013149B279
:10BBE000EBE7C046C40E0020A40E002010B50128CB
:10BBF00003D10022054B1A7010BD0028FCD1012290
:10BC0000024B03481A70FFF717FFF5E7C40E002038
:10BC1000A20E0020064B10B51C78012C06D14C1E3C
:10BC2000012C02D8034CE2602081597010BDC0463F
:10BC3000C40E0020A40E002070470000084A30B552
:10BC40001378012B0AD10023064C03E0CD5CE554A8
:10BC500001335BB28342F9DB0123D37030BDC046B0
:10BC6000C40E0020A40E0020034B1A78012A02D132
:10BC7000024A116118717047C40E0020A40E002002
:10BC80000122034B58619961024B5A717047C046BB
:10BC9000A40E0020C40E002007B5042368460370DC
:10BCA0004B0011211943FF2341708270C370D820CB
:10BCB000034B0822694600040193FFF7BFFE0EBD47
:10BCC000FFFFF1F213B56B461400581C1A700BF00D
:10BCD000A5F9D72001346946E2B20004FFF7AEFEB1
:10BCE00016BD07B5D32000910192694608220004D1
:10BCF000FFF7A4FE0EBD00001249134A70B5521A98
:10BD000012480BF08BF91249124A1348521A0BF0E1
:10BD100085F9124A12480021121A0BF069F91149EB
:10BD2000114A1248521A0BF079F9114C1149124D6F
:10BD30008C4205D0114A2000920892000BF06EF957
:10BD40002C6070BD44770100707D0100C0FDFF1FB5
:10BD5000707D0100707D0100EC030020C017002001
:10BD600060050020707D0100247E010000FCFF1FA3
:10BD700000FDFF1F0008000008ED00E0C00000000B
:10BD8000044B054A5A605A68044A1A60044A9A6089
:10BD90007047C0460020054020C528D9202100005A
:10BDA000FFFF000003480449044B425892B213437A
:10BDB0004350704700E000E00C0D00000400FA055D
:10BDC000064B02205B69DBB2042B06D00130802BCE
:10BDD00003D01800012B00D00420704700E007407A
:10BDE000054B5A68802310005B0418401A4201D0AA
:10BDF000024B18687047C046FC400640CC0E00203D
:10BE00008022094B92009958802208005204104069
:10BE1000114208D0822292009A5801231000184043
:10BE20001A4200D0014870470040064000127A00D4
:10BE3000C022074B920099588022080052041040FB
:10BE4000114203D0C22292009B5802487047C0465C
:10BE500000400640006CDC0270B5144C05002369FC
:10BE60001B011B0F022B12D0032B13D00020012B20
:10BE700001D1FFF7B5FF0F262169090C31400131CF
:10BE8000F4F70AFF012D08D0022D0DD070BDFFF789
:10BE9000B7FFF0E7FFF7CCFFEDE721690909314073
:10BEA0000131F4F7F9FEF1E72169F8E700400640B7
:10BEB00010B501291ED0052807D0062814D0FFF799
:10BEC0009FFF81230200184904E0FFF7B1FFC1235F
:10BED000020015499B00C85807231840002802D0CB
:10BEE0000138C240100010BDFFF77AFF0F4B02006F
:10BEF0009868F1E7052807D006280FD0FFF780FFE4
:10BF000081230200084904E0FFF792FFC1230200E9
:10BF100005499B00CB585B05580FDFE7FFF760FF33
:10BF2000024B02009B68F6E700400640FC400640DA
:10BF30000C4A13691B079B0F022B07D0032B0DD054
:10BF40000020002B09D1FA20400206E012691000FF
:10BF500018401A4201D0FA20C0017047022312692A
:10BF6000F5E7C046008004400C4B00201B6A10B56A
:10BF70001B011B0F032B07D81800F4F783FE0206E2
:10BF8000090C0220FFF768FF10BDFFF729FFFBE750
:10BF9000FFF736FFF8E7FFF74BFFF5E700400640F5
:10BFA0000F4A10B513699B069B0F022B11D0032B70
:10BFB00012D0012B04D000210620FFF779FF07E003
:10BFC00012690223100018401A4201D0FA20C00161
:10BFD00010BD044B1868FBE700210520EDE7C046C3
:10BFE00000800440D00E002010B51E4C80236268F3
:10BFF0001B01100018401A4216D060680006000F9E
:10C000000E282CD8F4F73EFE112B142B192B1C1FD5
:10C010002B23082B252B2800FA20400261684905B4
:10C02000490F0131F4F738FE10BDFFF79DFFF5E72A
:10C0300001210620FFF73CFFF0E701210420F9E78A
:10C0400001210520F6E70020FFF706FFE6E70120C3
:10C05000FAE7FFF76DFFE1E7FFF7A2FFDEE7002059
:10C06000DCE7C04600800440154B4000C35A154A27
:10C070009B0070B59B1801260F221C681D682409BF
:10C08000002034401540A54214D31A68920F324262
:10C0900010D01B685B015B0F022B0CD0032B0CD064
:10C0A000B34202D10630FFF703FF691CF4F7F4FD39
:10C0B0000134604370BD0420F5E70520F3E7C04676
:10C0C000BE74010000500640F0B5060085B000299E
:10C0D0000AD16B4619732F4B6A4600932E4B694663
:10C0E00001930223FF3313812C4B01245A68022051
:10C0F000520E1700274022420BD15A682848294D7A
:10C1000002405A608022D2045A602F60002E02D171
:10C11000002005B0F0BDE02007264A7AC0001202D8
:10C120000240087A3040024330209A60CA790136D2
:10C13000120102408879C000304002434879043E31
:10C14000800030400243DA600A79012A12D0022AC4
:10C1500016D0002A03D10A7BD20514435C600B6819
:10C16000114C2B60FFF73CFE00280FD1002C0BD1A7
:10C170000330CEE7087B0D4AC00502435A60EEE764
:10C18000087B0B4AC005F8E7013CEBE7002CBFD168
:10C190000320BEE700127A0000010002FC400640C6
:10C1A000FFFF7FFFCC0E002088E730000100010078
:10C1B00001000300F7B5060000290BD180236A4671
:10C1C0005B009380022391716946FF331380013B2A
:10C1D000FF3B937080221F4B92009D5801246D0EEF
:10C1E0002F0002202740254207D198581A4D284099
:10C1F00098509F50002E01D10020FEBDE020072561
:10C200008A78C00012020240487828400243812008
:10C2100080001A500A78043022401A5048798A79EE
:10C220000979002900D003248021D205800002432F
:10C230002243642489005A50FFF7E2FD002805D10B
:10C24000002C01D10330D8E7013CF5E7002CD3D115
:10C250000320D2E700400640FFFF7FFF37B5040010
:10C26000002908D16A4601239171537180226946E1
:10C2700052000A808B70C0221E4B92009D580220F3
:10C28000AD0109D498581C4D284098508020C00416
:10C290009850002C01D100203EBDE02007248A7870
:10C2A000C00012020240487820400243C1208000B2
:10C2B0001A5003200A780240C22080001A504879A0
:10C2C0008A790921002800D00839D2050A43C02103
:10C2D000142489005A50FFF7ABFD002805D1002C2B
:10C2E00001D10330D8E7013CF5E7002CD3D103207E
:10C2F000D2E7C04600400640FFFF7FFFF0B585B0A3
:10C3000001930AAB1C78019B07005E1C13000133EC
:10C31000734302934B1C73430D0000920393022C52
:10C320003ED0032C3FD0012C06D0012856D000204F
:10C33000022F10D0002049E0FFF752FD0009012F25
:10C3400034D0022FF6D10C2262432F4BD3581B0955
:10C350005E43B04239D80C2262432B4B02999B18A2
:10C360005A681209514381422FD39B68039A1B09D3
:10C370005A43824229D3F02324061B051C400F2375
:10C38000FF221D40009B2C431B011340F0221C4345
:10C39000019B12031B0413401C431C4B9C61C9E707
:10C3A000FFF72EFDCAE7FFF743FDC7E70C21614306
:10C3B000174BCA5812097243904206D85B185A6844
:10C3C000029912095143884202D9012005B0F0BDFB
:10C3D0009B68039A1B095A439042F6D8F02324061F
:10C3E0001B051C400F23FF222B401C43009B1B01FD
:10C3F0001340F0221C43019B12031B0413401C43F7
:10C40000024B5C6196E7C046D073010000400640D5
:10C410002474010037B50400FFF7D2FCE578A37857
:10C42000627821780095FFF769FF00280FD10A2272
:10C430000F25E178064C2369013A1B0E2B408B42F5
:10C4400003D0002AF7D1032001E0002AFBD03EBD33
:10C4500000400640F0B50700A7B0002823D0CE4E1C
:10C460003C0033691B011B0F032B0FD0FFF7E0FCCF
:10C47000011E04D10120FFF7F1FE051E10D1C74BAC
:10C4800007A80793FFF7C6FF051E09D1FB78210017
:10C4900018000393FFF78EFE051E4ED0FFF790FCA9
:10C4A000280027B0F0BD8024012208AB6400099465
:10C4B0009C83BB4C14AD0C94BA4C2A700D9412ACF6
:10C4C00022700AACE777C02424031094B64C04AD64
:10C4D0001594B64C02211694B54CFF319C87B54C8F
:10C4E0009A812494162423943D3464192270B24C0A
:10C4F0009A731A941BAC22707B24641922701CACB2
:10C500001992227021AA11807622AC4852191397F1
:10C510001D971E971F970890198119839984209061
:10C52000118022AA17807A225219177025AA118029
:10C530008622521917701F0091E739007B7F103156
:10C5400018000493FFF7C0FD3C0005000590FFF7BD
:10C5500037FC3634012803D00434022800D00024EC
:10C56000059B002B9CD1E378032B00D001E1049BB9
:10C57000002B00D0EFE0039B0125002B00D18FE7BB
:10C580008F4B07A80793FFF745FF0500002D00D04C
:10C5900086E7B87BF91DFFF761FE051E00D07FE737
:10C5A000032307A8C370A37883706378437023784C
:10C5B0000370FFF72FFF051E00D071E73B003033FB
:10C5C0001B78002B02D07F4BFA6A1A603B00353390
:10C5D0001B78002B0BD0326A7B4BF0211A403B00BA
:10C5E00034331B7809051B060B40134333623B00B1
:10C5F00043331B78002B00D0F4E03B6F002B00D0BE
:10C6000017E13B0044331A78002A12D0FF246F4808
:10C610006F4A416811405A78D2020A439978090159
:10C620002140E0241143DA78E400120222400A4358
:10C6300042601A79002A13D03F210C246348026912
:10C640008A43197A1143DA7952000A4399798900A9
:10C65000214011435A792434120122400A430261D5
:10C660001A7F002A26D00121584A106C8843597F2E
:10C67000014311640221106C8843997F49000143F2
:10C6800011640421106C8843D97F8900014311642F
:10C690000821106C884339004531C97FC900014326
:10C6A00011641021106C884339004631C97F09019B
:10C6B000014311641B7B002B06D0464B7A6D1A6038
:10C6C000BA6D5A60FA6D9A603B004733DB7F002BEE
:10C6D00023D000203D4A8024936E906651683E4BE3
:10C6E000640119403B004933DB7F1B0323400B43AC
:10C6F00053603B0090664833DB7F83420DD03B00A4
:10C700000E214A33DB7F5B000B4039004B31C97F80
:10C710000B43802149050B4393663800743003783E
:10C72000002B00D1BCE67F212C4A447893780B4043
:10C730007E396140C9010B43DBB293700223C356BB
:10C74000002B01DA20335BB21F20117903408143B3
:10C750000B431371A4E6224B07A80793FFF75AFE79
:10C76000039B0500002B00D110E7012800D00DE746
:10C7700006E707A8C370A3788370637843702378B3
:10C780000370FFF747FE051E00D089E6B87BF91D50
:10C79000FFF764FD0FE7C0460040064003010003B9
:10C7A00000127A00000100020301010100030300EE
:10C7B0000102000029030020010000010101010124
:10C7C00001000002D00E0020FFFFFFF000800440B7
:10C7D0000FF0FFFFD40E0020FFEFFFFF00D0074057
:10C7E0000101000138003B003A003900393000787F
:10C7F0003833373236311B781278097800900120AF
:10C80000FFF77CFD002812D138003B003A003900C8
:10C810003D3000783C333B323A311B78127809784E
:10C8200000900220FFF76AFD002800D1E5E6050030
:10C8300036E605211026FA6E4A439A189446114AA4
:10C8400003929C4500D1DCE61A7803995200515AB4
:10C850000D4A890089180A680C48E02402400F201C
:10C860000A601A79E40402405878800702439878F5
:10C87000000620400243D8780533000130400243CF
:10C880000A60DEE7BE74010000500640FFFFFFBFF4
:10C89000F8B506000D00112835D80F2800D9ABE0F7
:10C8A000F4F7F0F9080D0F55111417AA1A1D2025D9
:10C8B000272A2C2F0020FFF7CFFA00243EE001208A
:10C8C000F9E70220F7E7FFF79BFAF6E7FFF7B0FA80
:10C8D000F3E7FFF785FAF0E76E4B1868EDE7FFF72F
:10C8E00043FBEAE700210420FFF7E2FAE5E7012134
:10C8F000F9E700210520F7E70121FBE700210620E9
:10C90000F2E70121FBE7212800D978E015380C284F
:10C9100000D971E0F4F7B6F907171B1E212B3D4F24
:10C92000596165696D005C4BDB689B0100209B0FC2
:10C930000400032B02D0594A9B009858002D00D0C8
:10C9400028602000F8BD544BDB681B01EEE7FFF7C1
:10C950004BFBB2E7FFF724FBAFE70020504B04008E
:10C960009B78DB09012BE9D0FFF7E2FAE6E700202C
:10C970004B4B04009B78DB09012BDFD0464B1A6937
:10C9800001231000184004001A42D7D0FA2080007A
:10C9900093E70020424B04009B78DB09012BCDD0AC
:10C9A0003D4B1A690223100018401A4200D184E757
:10C9B000FA20C00181E70020394B04009B78DB0995
:10C9C000012BBBD0FA204002B8E7334B1B6C1B098C
:10C9D00001249C4300202402B0E72F4B1B6CDB0892
:10C9E000F6E72D4B1B6C9B08F2E72B4B1B6C5B088F
:10C9F000EEE7294B1B6CEBE7002004249EE70424A0
:10CA000043289ED80020222E98D03200323AD2B24B
:10CA1000112A04D8234BD340DB0700D58EE7224BE5
:10CA20007200D35A214A9B009B585B0003D4802498
:10CA30000020640082E71E4B9F5D202338001840D1
:10CA40001F4218D00120FFF707FA0028EFD0182363
:10CA5000380018401F4200D12FE710243C403F0708
:10CA600010D4002CE3D001213000FFF7FDFA44423E
:10CA70004441240262E77B06E5D47BB2002BE6DA70
:10CA80000220E0E700213000FFF7EEFA002CEED0A4
:10CA9000E9E7C046D00E002000800440D40E0020FC
:10CAA00000D0074029010200BE740100005006407A
:10CAB0007874010010B5044C206021710020A26040
:10CAC0002373637310BDC046E00E0020F0B585B03F
:10CAD00003AE009001913070717003F053FD2E4D44
:10CAE00000242B7B6B730123B3702B7BA34214D8E0
:10CAF000009A2B689200D058FFF7ACFC009B071EF1
:10CB00006B7121D102230400B3702B7BA3422AD87E
:10CB100003F02CFD380005B0F0BDAB68A200D3587F
:10CB2000002B02D10134E4B2DFE71A79022AF9D0EE
:10CB300030001A68996890470028F3D0019B6C7305
:10CB4000002BEFD10427FF370023A400B370AB689C
:10CB50001B59002B03D030001A6899689047043C99
:10CB6000231DF4D1D4E7AB68A200D358002B02D127
:10CB70000134E4B2C9E71A79012AF9D030001A6801
:10CB8000996890470028F3D0019B6C73002BEFD17C
:10CB900082277F00BCE7C046E00E002010B5FFF7FB
:10CBA00077FE10BD10B50A0000210AF021FA10BD71
:10CBB00010B5054C83002068C018036859600368ED
:10CBC00000209A6010BDC046F00E0020094B820084
:10CBD0001B6810B5D35803221040074A1077D0774E
:10CBE000002B06D05A68002A03D0197B9868C9B276
:10CBF000904710BDF00E00200080004070B5032467
:10CC000005000D4E044000222100300000F0D0FA53
:10CC10000A4BAD001B68EB58002B0BD00122347778
:10CC2000F477B4771A735A68002A03D0197B98688E
:10CC3000C9B2904770BDC04600800040F00E002091
:10CC4000F0B501248BB0099310AB1B7808920593C3
:10CC50002300059A0690934004936B460791119820
:10CC6000197CF4F79FF820000D1E5CD10323069A6F
:10CC7000334F1A4011003800039200F09FFA8021D0
:10CC8000039B09025C012F4BE619E2181388380058
:10CC90009B049B0C0B43138080223B6803999343B6
:10CCA0003B608023089A5B01F250274B099AE318F6
:10CCB0001A60059B2A00019300932B0000F0B6FA3E
:10CCC000079B032B17D81800204AF3F7DBFF020B52
:10CCD0002E346B461B7CB5525BB29BB21C4AA21829
:10CCE000138008E06B461B7C5BB29BB2B352002200
:10CCF000174BE3181A80119A0399114800F0AEFA05
:10CD000001220F48039900F029FB0E4B0020E41884
:10CD1000022322889A43134323800E4B1A68069BF2
:10CD20009B009B5818730BB0F0BD6B461B7C5BB22D
:10CD30009BB2B352D2E7064BB552E3181D80DAE737
:10CD4000008000401C900040109000400410000043
:10CD500014900040F00E002073B5040009AD06A841
:10CD600000782E78079D009001952000FFF768FF5E
:10CD7000051E0FD103231C402100089A064800F02D
:10CD8000EDFA0822054B6401E4182388F60093436A
:10CD90001E432680280076BD008000401C90004085
:10CDA000032110B501400122024800F001FA0020E1
:10CDB00010BDC04600800040032110B50140002294
:10CDC000024800F0F5F9002010BDC0460080004088
:10CDD00070B57F253F260B4B31401C5C92012C40E7
:10CDE0001C541C5CB4430C431C544024195CA143E8
:10CDF0001143C9B2195480211A5C2A400A431A54BB
:10CE0000002070BD0010024003231840024B400177
:10CE100089B2C018818070470090004003231840F9
:10CE2000024B4001C01801607047C0460C900040A2
:10CE300003231840024B400189B2C018018070479B
:10CE400014900040032110B50140024800F0B0FAF0
:10CE500010BDC04600800040032308221840044B48
:10CE60004001C0180388C90093430B4303807047F7
:10CE70001C90004070B504000D00002835D000293A
:10CE800033D020212800FFF78DFE0721637A227E10
:10CE90000B40E021D2021343227AC90012020A4059
:10CEA000FF211343627ED2000A4013432200EB802D
:10CEB000236828322B606389AB80E369AB60236908
:10CEC000EB6063682B61A389AB82E36A1968631C1A
:10CED00089B2E982DB7F002B08D0636AAB61102343
:10CEE000127852001343AB83E98370BD6069A86177
:10CEF00012785200F6E70000F0B5032606400C0059
:10CF000085B03100504800F059F980224E4B750130
:10CF1000EF184E4B1202EB1803931B884A489B04F0
:10CF20009B0C1343039A1380802322685B01FA5001
:10CF3000474B6268EB181A60617A637E227E01912A
:10CF4000217A0091310000F071F96289414BFA5267
:10CF5000414BA289EB181A80404B2269EB181A60EA
:10CF6000631CDA7F384F1023002A5CD0039A31000B
:10CF7000128838009A431343039A1380626A00F0C0
:10CF8000B3F90222314BE9180B889343220028326F
:10CF9000127852001343E26A0B80002A4DD03B689E
:10CFA0001B0608D52E4BE918086813794000400885
:10CFB000DB0703430B603B681B0608D5284BE818CA
:10CFC0000168284B194053799B070B4303603100DC
:10CFD00092681D4800F066F9E26931001A4800F0D5
:10CFE0003DF9E26A3100137B1748527B00F084F967
:10CFF000E26AF024154B2401ED18D37B28881B022C
:10D000002340194C917B2040034320202B802B8808
:10D01000490183430B43126831000B482B8000F019
:10D020009DF905B0F0BD039A12889A43039B1A80BC
:10D030000E4B6269EB181A60A3E73100E2690248FF
:10D0400000F00CF9EDE7C046008000401C90004065
:10D050001090004004100000149000400C9000401C
:10D0600008900040FFFFFFBFFFF0FFFF1890004057
:10D07000F0B50024012799B0039320AB1B7816006C
:10D080000793434B82001B680690D35803981C7388
:10D090003B00B34001936B4602919988F3F782FEFF
:10D0A0000CAD280005913021FFF77CFD102108A868
:10D0B000FFF778FD039B08AA139316AB1F7011238B
:10D0C00017929B189480147394731F22DF772700A4
:10D0D000029B2E721F3393436E722C83203B1E9E45
:10D0E0001F9D109411940293079B9F4240D1059875
:10D0F000431E984180B248E02A7A337A04929A42D9
:10D1000042D10399F3F7C8FD049B0890032B08D87C
:10D110001800F3F7B7FD021D212600236381019B50
:10D12000A381079B00215A1ED2B2FBB29A4201D0C2
:10D13000029920311591002F15D106980CA9FFF7FF
:10D14000DBFE029B0137203302930C360C35CBE714
:10D15000019B63810023E3E76B4604229B5E6381AE
:10D16000DEE70023FBE702990CA8FFF783FEE8E760
:10D17000059B002B08D133680CAC0C932B687068AE
:10D1800063606B689842B7D0012019B0F0BDC0460B
:10D19000F00E0020034B80001B68C358187BC0B200
:10D1A0007047C046F00E00200048704700800040E5
:10D1B000002A01D0C17670478176FCE7114B490106
:10D1C0004018C218002313608022520183500E4A77
:10D1D00083520E4A83520E4A821813600D4A8218F7
:10D1E00013600D4A821813800C4A821813800C4A6F
:10D1F000821813600B4A821813800B4A8018038030
:10D200007047C0460810000004100000061000001F
:10D210000C10000010100000141000001610000088
:10D22000181000001C1000001E10000070B5FF2632
:10D2300004AC257805AC2478DB003340F83E34405C
:10D240001C43E023D202DB002D021D401443803139
:10D250002C434901A4B24018C48070BD036810B5C6
:10D2600049011B0617D50E4C43181B191C68002CCE
:10D2700006DB1C68640003D4920092081A6010BD9B
:10D28000074B4118C9180B6892059B0A9B02920D27
:10D290001A430A60F3E7024B4018C0180260EEE739
:10D2A00008100000036810B51B0609D50B4C490196
:10D2B00043181B191C681B68002C02DB5B0000D4A0
:10D2C00010BD064B4018C0180368054992020B4078
:10D2D00004490A401A430260F2E7C0460810000001
:10D2E000FF0300C000FCFF3F024B49014018C0187B
:10D2F000026070471810000049014018134930B50A
:10D3000045182C8812496404640C4018002B17D06F
:10D31000104B52021C43A4B22C8001884904490CD2
:10D320000B43F0219BB2038049012B880A400A4934
:10D330000B4013432B8003880B401A43028030BDFF
:10D340002C8003885B045B0C0380F8E71E10000050
:10D35000161000000080FFFFFFE1FFFF124B4901A4
:10D36000401810B5C418218813B2104A09B28018A9
:10D37000228800290BDADB05520AD90D52020A4332
:10D38000228003885B0A5B020B43038010BDD20B33
:10D390005B045B0CD2031A4322800288D20BD203B7
:10D3A0001A430280F2E7C0461E100000161000006B
:10D3B000084B49014018C3181B88074A1BB2801844
:10D3C0000088002B02DAC005C00D70474004400CF5
:10D3D000FBE7C0461E1000001610000010B500202C
:10D3E000FFF7F4FB10BD10B50120FFF7EFFB10BDF8
:10D3F00010B50220FFF7EAFB10BD10B50320FFF7C0
:10D40000E5FB10BD70B50020FFF7CEFE002401261D
:10D41000C56A354202D02000FFF7F0FB0134E4B2C8
:10D420006D08042CF5D170BDF0B5374B87B005926F
:10D430008200D45803902700049161373E78012E72
:10D4400016D16379032B13D1304D2B6B5B0933421B
:10D450000CD0280000F0D2FF20232D492E630A684B
:10D460002A6B1A42FBD1294800F0B6FF00236371F2
:10D4700063790220002B20D1244D2B689B0029D5F5
:10D480000126059B6671A371049B23603B78002BEA
:10D490000ED132000621280000F05AFF3200072189
:10D4A000280000F055FF32000521280000F050FF51
:10D4B0003B780493012B02D0002007B0F0BD25007B
:10D4C000603514492878039AFFF772FB071E03D0D2
:10D4D000002363710120F0E71023022128780193D3
:10D4E000009123680C4AFFF7ABFB061E01D0677161
:10D4F000F0E728780499FFF7AFFC2878FFF750FC95
:10D500000028D9D06671E5E7F40E00200040024003
:10D510008C400240BDD5000080400240F8B5254B4C
:10D520008200D4580600270061373D78002D28D1AD
:10D530002A000521204800F00BFF2A0006211E4882
:10D5400000F006FF2A0007211B4800F001FF00221F
:10D5500063792260032B0AD0256D6271954206D053
:10D560003B78012B03D1230008213000A847A37981
:10D57000002B05D06379002B02D1201D05F030FD72
:10D58000F8BD6379032BE2D0230025686033187857
:10D59000FFF712FC2B689A0202D46A68920C6A6048
:10D5A0001B031B0F2B74AB681BBAAB60EB681BBA79
:10D5B000EB60CCE7F40E00200040024070B5C4B22E
:10D5C00001290BD10322074B8000C3581D6D5A71EE
:10D5D000002D03D0002220000831A8472000FFF7CB
:10D5E0009DFF70BDF40E002070B50C00094B80004B
:10D5F000C558E400002208482E1900F0A9FEB379AE
:10D60000002B03D00434281905F0EAFC00237371C1
:10D6100070BDC046F40E0020004002401F2803D811
:10D6200001238340014A13637047C0460040024013
:10D63000F0B58BB0039310AB150004CB80001B78C2
:10D640000E0005931A4B0492C4581A4800F032FD9C
:10D6500086422AD20227F300E41863793800002BAF
:10D6600021D13000FFF7DAFF059B6771A371E97ADA
:10D670002B7806AA6868E1711371AB7A90602889EB
:10D68000937390810C23002900D01033002506935A
:10D69000049B310000930748039B019500F0C8FFED
:10D6A000A84200D065710BB0F0BDC0208000FAE741
:10D6B000F40E0020004002401149124A70B58B5808
:10D6C000114C07262340F8248B500368E4019B0289
:10D6D000234084688D5834402C43FF2523434468FD
:10D6E00064012C402343C468084D24052C40234387
:10D6F000E0240069E4020004204003438B5070BD25
:10D7000000400240040C0000188308C00000F03FF5
:10D7100030B51F250F4A136DDB0FDB0713658168DA
:10D72000146D29402143F8240368A4009B061B0CB8
:10D730000B434168490121400B43C168064C490530
:10D7400021400B430169F8200904400301400B43C9
:10D75000136530BD004002400000E07F104A1149CF
:10D76000536810B50B4007215360036854680B40A1
:10D77000C16809060B432343E0248168E4020904DD
:10D780002140E0240B434168A403C90421400B431A
:10D790000169C0208905000401400B43536010BD9E
:10D7A00000400240F8FF0000F7B5164E0193164BFB
:10D7B0008000C75830000C00150000F07BFC84424C
:10D7C0001DD233689B0006D5736B1B011B0F5B00DA
:10D7D00007339C4213D9E600BE1973790220DFB2E9
:10D7E000002B0BD10122019B21000648727135608C
:10D7F000B37100F0ADFD002800D07771FEBDC020F0
:10D800008000FBE700400240F40E002070B5114C90
:10D810000D002368DB0106D5002916D123680E4AC6
:10D82000134023600BE0200000F0E8FD002D07D13D
:10D830002368094A13400748236000F0CDFD70BDFE
:10D84000802322685B021343F5E7802322685B0292
:10D850001343E6E700400240FFFFFEFFF7B5394EF5
:10D86000140032681D0080230F0011005B04194072
:10D8700001911A4209D07F2233681340A34201D399
:10D880001F2C10D9C020800037E0300000F0B6FD1A
:10D890007F22336813409C4201D81F2C03D92948AA
:10D8A00000F09AFDEEE733689B000AD4002F3FD1C9
:10D8B000254BAD041D4088239B00E418A40035517E
:10D8C00017E01E22736BDB0D134007339C42EDD82B
:10D8D00033689B05D340882200939200013BA41833
:10D8E000022B0BD92A000021380000F0BBFBA4005A
:10D8F0003051019B002B20D00020FEBD6B462A003A
:10D900001978380000F0AEFB009B012B05D0022BEC
:10D9100008D00123A4005B4202E0030C0343A400EF
:10D920003351E6E7030E020C13430343000AF5E705
:10D93000012FDED1ED00ED08BDE7024800F04CFDFF
:10D94000DAE7C046004002400000FC1FF0B55E4E22
:10D9500089B033680C0015000190002B05DB300006
:10D9600000F04CFD300000F0C9FB80216B7A89018A
:10D970005B0372680B40554953480A401343736078
:10D9800000F0A2FB504800F039FD4F4800F0C4FB06
:10D990002B7A002B02D0012009B0F0BDAB79022B0D
:10D9A00004D0802233689202134333606B79002BDA
:10D9B0005AD12B00343300931B78012B5BD1336891
:10D9C0009B00E8D580223368120213433360E97963
:10D9D0003D4800F0F5FD29683B4800F0D9FF0028DC
:10D9E000DAD12B0032680C3303AE120549D5320070
:10D9F00083CB83C203CB03C23000FFF789FE2B0029
:10DA00003200203383CB83C203CB03C23000FFF745
:10DA100053FEA9792C4800F087FDAB79032B02D087
:10DA2000294800F0D9FC0A2002F088FD0A2002F003
:10DA300085FD0A2002F082FD0B2002F07FFD0B2005
:10DA400002F07CFD260000270021301D05F0D9FAE8
:10DA5000FB0000281ED004341D19A5429BD02000D5
:10DA600005F0D9FA0834F8E72979174800F088FB5F
:10DA700000289ED090E7002BA9D13368144A1340A8
:10DA8000A4E7320083CB83C203CB03C23000FFF78D
:10DA900065FEBEE7E3180137B07130605871083693
:10DAA0000A2FD1D12300009A6133127835351A70CC
:10DAB0002A78013B1A70019A064B92002065606536
:10DAC000A065E065D45067E700400240FFDFFFFF3C
:10DAD000FF7FFFFFF40E002070B5104886B00D00E8
:10DAE00014001E0000F058FD002813D1237802AA6C
:10DAF0001371A37A6168937308239160218902935B
:10DB000091813300019000902900044800F090FDBD
:10DB100006B070BDC0208000FAE7C0460040024059
:10DB2000F7B505000D480C0016001F0000F034FD8D
:10DB3000002810D1089B0190009332003B00210087
:10DB40002800FFF775FD002804D1012221000348B9
:10DB500000F0FEFBFEBDC0208000FBE7004002405D
:10DB60007FB51C480D0014001E0000F015FD0028B4
:10DB70002CD16A4663682800029323781371237AB4
:10DB80001373FFF74BFD0F236A4600932900330000
:10DB9000104800F031FE041E15D1009033006A4693
:10DBA00029000C4800F028FE041E0CD104236A460C
:10DBB000009329003300074800F01EFE041E02D126
:10DBC0002800FFF72BFD200004B070BDC024A40086
:10DBD000F9E7C0460040024070B50B4C0D002368C9
:10DBE0001600DB0103D5200000F0FAFA70BD20001A
:10DBF00000F004FC20003200290000F0F1FA2000BF
:10DC000000F0EAFBF2E7C0460040024070B50500B4
:10DC100007480C00160000F0BFFC031E05D13200BF
:10DC200021002800FFF7C0FD70BDC0208000FBE789
:10DC30000040024010B50022FFF7F6FB10BD0000C7
:10DC4000F7B5284B8600F5580193002D1AD0AB6D1F
:10DC5000002B17D0802100222348C90100F088FB47
:10DC6000802100222048C90000F082FB8021002290
:10DC70001D48090100F07CFB802100221A4809029E
:10DC800000F076FB0A2002F065FC0A2002F062FC3C
:10DC90000A2002F05FFC144C0B2002F05BFC0B200E
:10DCA00002F058FC2368002B05DB200000F0A6FBE7
:10DCB000200000F023FA002D04D10024019B9C5188
:10DCC0002000FEBD00242F1D5435380005F0A3F9B7
:10DCD000002800D001240837BD42F6D1002CECD03A
:10DCE000EEE7C046F40E002000400240064B8200E2
:10DCF000D25810B5936D002B01D00A2198470348E4
:10DD000000F0CAFB10BDC046F40E002000400240E7
:10DD1000F7B5154B154C8200D658236801905B046B
:10DD200020D5134D63599B030CD5802362599B0268
:10DD300013436351336D1F1E04D0330000220521AD
:10DD40000198B8476359DB030CD5802362595B0205
:10DD500013436351346D002C04D03300002206219C
:10DD60000198A047F7BDC046F40E002000400240D5
:10DD7000080B0000F0B57C4B7C4D8200D658AA6A97
:10DD80002B6B00241340012289B000901340002B1C
:10DD900067D02B689B0000D46FE0072C00D96CE0A3
:10DDA000052C00D0A7E07379DAB20192012B14D1CF
:10DDB00031686E4800F078FB20230022376D2B631A
:10DDC0007271974203D0330001990098B847737974
:10DDD000002B02D10098FFF7A1FBE700F319019394
:10DDE0005B79022B28D1019BDB79002B0ED021001F
:10DDF0005E4800F067FD21005C4803AA00F067FD63
:10DE0000AB68039B1B011B0F042B02D12000FFF703
:10DE100005FC0023019A5371336D1F1E04D033009B
:10DE2000220004210098B847019B5B79002B03D1A5
:10DE300021000098FFF7D8FBAA6A2B6B1340E34040
:10DE4000DB070CD52B689B0000D471E0072C00D9B0
:10DE50006EE07379002B02D12000FFF7DFFB09B0E1
:10DE6000F0BDA96A2B6B01340B40E34013400A2C30
:10DE700000D08CE7002B5ED02B68E700F3190193EC
:10DE80005B79012BA9D12100384800F01BFD019BD3
:10DE900021001A68354800F01AFD2000FFF7BEFB8C
:10DEA0002B689B0042D5019B1B681B681B011B0F45
:10DEB0003CD121002D4800F0A2FB2D4A03681340FD
:10DEC000036080230268DB04134303600021019B8D
:10DED0005971336D1F008B4203D03300220000982C
:10DEE000B847019B5B79002B00D076E721000098B2
:10DEF000FFF77AFB71E7062C0BD14023376D2B63BC
:10DF0000002F00D169E73300002202210098B847B2
:10DF100063E7072C00D060E78023376D2B63002F69
:10DF200000D15AE7330000220321EFE7AB68CDE7C9
:10DF3000019B5B798EE7009B002B0AD10D4BE958C2
:10DF4000EB58490C1B0C0B43134202D00098FFF70F
:10DF5000DFFE0221EA692B6A0B40134300D17EE702
:10DF60000098FFF7C3FE7AE7F40E0020004002405D
:10DF7000FFFFFFF0080B0000074A8000CB0081582C
:10DF80000020C9184B79834204D048790338431ED6
:10DF9000984101307047C046F40E0020014B186ACA
:10DFA0007047C04600400240024B8000C3581965CC
:10DFB0005A657047F40E0020224B8000C358224857
:10DFC00070B5DA6502689965802315005B040C0062
:10DFD0001D401A4201D100F011FA002C1DD0802101
:10DFE00001221948C90100F0C3F980210122164815
:10DFF000C90000F0BDF9802101221348090100F099
:10E00000B7F9012280211048090200F0B1F9002D72
:10E0100002D10D4800F0E0F970BD802122000A48CD
:10E02000C90100F0A5F9802122000748C90000F0CD
:10E030009FF9802122000448090100F099F922008B
:10E04000E0E7C046F40E002000400240082806D950
:10E050000938C3B20020062B01D8014AD05C7047B2
:10E06000487501000300012912D00020022918D0B0
:10E0700081420CD1900F8007002B03D10B4BD204AF
:10E080001A4003E0012B02D1D200920810437047DE
:10E09000900F8007002BF1D0012BF8D1044B120414
:10E0A000EEE7012BF3D81006F1E7C0460000F83F79
:10E0B0000000FF3F034A0023904200D10A331800BA
:10E0C0007047C046004002400368DB0210D5036879
:10E0D000084A5B005B080360036813400360036841
:10E0E000054A1340036080231B0502681A42FCD1D5
:10E0F0007047C046FFFFFFBFFFFFFFEF0368002B25
:10E1000009DB802302681B061343036080235B0343
:10E1100002681A42FCD07047802370B50400026880
:10E120009B041A430260226815001D401A42FAD16E
:10E13000802322685B01134323602000FFF7BAFFAE
:10E140002300020180339A18934212D188230022BF
:10E150001B01E3188000181883420CD10123002210
:10E160005B4223616361A361A2622363034B236269
:10E1700070BD20C3E8E704C3EEE7C04606003B00DD
:10E180000268802370B516001B0104000D000120F9
:10E190001E401A4218D12000FFF78CFF802322680E
:10E1A0009B051343F022236012052D06636B154077
:10E1B000094A80B213401D430123084A5B4265634C
:10E1C000A364864201D3002070BD88239B00F3180E
:10E1D0009B001A510136F4E7FFFFFFF0FFFFFF1F1E
:10E1E000F7B50400636B08001B011B0F03291ED841
:10E1F000F2F748FD02215A9F2168514880250140CD
:10E200002000013321609B014E4CE030D318ED0516
:10E21000167857785168F607002F09D0C900890889
:10E220002E4389190832016004309342F0D1F7BDC2
:10E23000C9042140F5E72068414980260840802133
:10E2400049000143802720000133DB01D3182160FE
:10E25000E0300193F605FF011378147A5578516880
:10E26000DB07E403002D16D0374D49002940334326
:10E27000C9180160517AD368002910D0DB00016809
:10E280009B0C3C431B190B430360019B1032043071
:10E290009342E1D1CBE72B4DC9042940E8E72B4D50
:10E2A000DB0001682B40EDE720682549FF25084089
:10E2B00080218900014321602000FF2401331B02DB
:10E2C000E030D318240456785168002E25D0066813
:10E2D000490D09063143567A0160D168002E1FD0DE
:10E2E0000668490921403143567C01605169002E7E
:10E2F00019D00668490D0906090C3143567E0160A4
:10E30000D169002E12D00668490D294031432032D0
:10E31000016004309A42D6D189E70668C908D8E777
:10E3200006684903DEE70668C908E4E70668C90825
:10E33000EBE7C02322689B001343236077E7C046C6
:10E34000FFFCFFFF0000F83F0000FF3FF83F000028
:10E350001F2906D801238B40002A04D0826A134368
:10E36000836200207047826A9A438262F9E7000064
:10E37000002A1AD08023DB00994208D1802302684A
:10E380009B031343036043680B4343607047802340
:10E390001B019942F2D08023DB019942F3D1802303
:10E3A000426B1B0613434363EDE743688B434360B3
:10E3B0008023DB01994203D1436B5B005B0843631D
:10E3C000C02342681B011A42E0D10368014A13408E
:10E3D0000360DBE7FFFFDFFF0368064A13400360CB
:10E3E0000368054A1340036080235B0402681A42F5
:10E3F000FCD17047FFFFFFEFFFFFFFBF80230268E4
:10E40000DB0513430360802302685B05134303604D
:10E410000368012230B5002B04DA03689340D3402F
:10E420000022036000238360056880242900240102
:10E430002140254222D180235B0404681C4201D183
:10E44000B32925D90368DB010BD48021856A0468D0
:10E45000036889040B43036003680B42FCD18562A7
:10E460000460002A09D1802302681B06134303605D
:10E4700080235B0302681A42FCD030BD802405492A
:10E48000640405682542DDD18B42DBD88368F8E758
:10E490008168D2E7D9020000026A024B1A4200D01A
:10E4A0000362704706003B000300F0B5071D04003F
:10E4B000F86F85B000038833000F0D000E00019344
:10E4C000FFF7C4FD2874FB6F083600902B600834FA
:10E4D0009B0212D5E36F03226B6033001340164298
:10E4E00020D1009A9A421BD901999A089200891862
:10E4F000096809BAB1500433F3E7E36F9B0CEAE70C
:10E50000019AA3089B00D3181B681BBA0422301978
:10E5100003A9039308F082FD0434009BA342EFD8C3
:10E5200005B0F0BD0024F8E7030010B50800042989
:10E5300007D8F2F7A7FB0D1A1E0307001800FFF714
:10E540005DFF10BD8022196812060A431A60F8E7C1
:10E550001A680E490A4008211A605A688A435A60AC
:10E560005A680B490A405A60EBE7082259680A4387
:10E57000F9E78022596852010A4308215A605A6813
:10E580008A435A601A6803490A40DFE7FFFF7FFFAA
:10E59000FFEFFFFFFFFFFDFF026803007F20024047
:10E5A0007E388A420BD31A680020920007D55B6B35
:10E5B0001B011B0F5B0007338B424041C0B2704709
:10E5C000036810B51B0507D5C02212018358034C00
:10E5D000090423401943815010BDC046FFFFFCFFD2
:10E5E00002680823120508D5C0231B01C358012067
:10E5F0009B039B0F033398400300D8B2704770B55C
:10E600000E000400FFF7ECFF0830C5B2802029009F
:10E610008000F2F741FBC1B23000F2F7C3FBAD0856
:10E620006943C001091820318900601870BD0000DD
:10E63000F0B585B001930AAB150004CB06001B783A
:10E64000009202930F00FFF7DAFF7F223368040085
:10E65000134080229205BB423BD33368134249D119
:10E6600033681B0509D5AB7B002B06D0C022802365
:10E670001201B1581B060B43B350AB68FF27DAB247
:10E68000402A02D8594A3B40D75C009B002B33D12B
:10E690000023236063602B79012B7CD163685B0FBF
:10E6A0005B076360019B6268DB00DB081343C022E9
:10E6B0006360D2032B680F2B00D193E0F0213F045D
:10E6C00009030F4017431C2B75D1802252031743B7
:10E6D00074E0336813420AD0C0229200736B1B01AE
:10E6E0001B0F5B0007339F4201D9002AB8D0C0201E
:10E6F000800078E00022F1E7F8B2FFF7A7FC2600DF
:10E7000003900320009B009A08360340024238D150
:10E71000AA688243934225D29A089200B1188C4687
:10E7200000998A5812BA614604330A60F0E70099EA
:10E73000009A8C469C4461464978D25C0902114398
:10E7400062469278120411436246D27812060A4356
:10E7500099088900711812BA0A600433AA688243C2
:10E760009342E4D30321AA689A420CD80321039B65
:10E7700093428DD90B00687B5340F3181870013217
:10E78000F5E70023EAE70A0000985A40C05CB21897
:10E7900010700133E7E7002B01D000228AE763689D
:10E7A000134A144913406360019B62689B040B4049
:10E7B00013436360F1E7029A002A86D1F0221B0618
:10E7C000120513402A7B3B43002A02D08022120606
:10E7D0001343AA7B002A02D08022D2051343226869
:10E7E00013432360002005B0F0BDC0464F75010003
:10E7F000FFFF03E00000FC1FF8B5050016001C0039
:10E800000F00FFF7FCFE7F222B6813408022920549
:10E81000BB422BD32B68134239D1002303604360E2
:10E820003379012B35D1802302689B0313430360A6
:10E8300003681F4AE400134003604368E4085B0F69
:10E840005B07436043681C43446033680F2B0BD065
:10E85000F0210368174A0905134003603368026812
:10E860001B060B40134303600020F8BD2B681342C6
:10E870000AD0C02292006B6B1B011B0F5B00073399
:10E880009F4201D9002AC8D0C0208000EDE70022B5
:10E89000F1E7002BD9D10368074AA40413400360B1
:10E8A0004368064A1340064A436043681440CAE777
:10E8B000FFFFBFFFFFFFFFF0FFFF9FFFFFFF03E032
:10E8C0000000FC1F10B5FFF79AFE036810BDF0B5FD
:10E8D000150085B00400FFF792FE2B0007000068CA
:10E8E00008330003000F0193FFF7B0FB0600200080
:10E8F000FFF776FEB04203D22000FFF771FE06005C
:10E900002E743B682B609B0217D57B686B600323DA
:10E91000019C019A1C401A422CD1310099438C422F
:10E9200021D2A3089B001A000832BA18126812BA42
:10E9300001980434C250E4B2F1E77B689B0CE5E730
:10E94000A3089B000833FB181B681BBA2000083083
:10E950000422281803A9039308F060FB0434E4B2EE
:10E96000019B9C42ECD303222D190135B44206D3FE
:10E9700005B0F0BD32009A4300240192F0E7130085
:10E9800063400833FB181B780134EB71E4B2ECE709
:10E99000F8B50E000400FFF723FE751E07002900DE
:10E9A0002000FFF72CFEA023C0199B00E3180830BD
:10E9B00083422AD32000FFF77DFBB04225D37F237B
:10E9C00021681D4099432943216022688023150056
:10E9D0009B051D401A4212D00020F8BD29002000DE
:10E9E000FFF70DFE082100220300494202600833B0
:10E9F0004260081AC1188F4204D80135EDB2B54201
:10EA0000ECD3E9E71A700133F4E7C0208000E4E7B3
:10EA100010B50020FFF7AEF910BD10B5FFF7F8FFF5
:10EA200010BD0000F7B5104B8700FD580C00019396
:10EA3000002D16D1481C04F0D1FA02220B4E1920E9
:10EA4000B3681343B360B56001F078FD0122B36889
:10EA50001343B360019B25706560A560E560256187
:10EA6000FC500020FEBDC046F80E002000A005406E
:10EA7000F0B501243E4E87B083000390985901936E
:10EA800003783C4D05930B7A0F0002936B680121CC
:10EA9000DBB20493029B01309C40494204F09AFA95
:10EAA000029B049A013CE4B2934230D80023059AB9
:10EAB00014420CD0029A0133DBB2D21804996400DC
:10EAC000D2B2E4B28A42F2D9039B9B0020E07B726F
:10EAD000019BF05803781C430470013004F07CFA69
:10EAE000019BF258131D14321968002917D11F60B9
:10EAF00003223B7A787A019394460300019A8218A4
:10EB0000934210DB0020039B38607B6005E0019B93
:10EB1000F058013004F060FA012007B0F0BD043372
:10EB20009A42E1D1E4E7072412499A0056181249A3
:10EB30005218D16FA1438024D1676146E400325955
:10EB40008A43325101229A402E6AD1B28E432E62FC
:10EB50006E6A01338E436E62AE6ADBB28E43AE6282
:10EB60002E6B8E432E632A616A61AA61C6E7C04696
:10EB7000F80E002000A0054004A0054070B54568CF
:10EB8000124EAD000300A8590100021D1431146893
:10EB90009C4216D10021116001241A7A012194406F
:10EBA0005B7A013CE4B29C404942013004F012FA25
:10EBB00070590378A3430370013004F00DFA00206C
:10EBC00070BD04329142E2D1E6E7C046F80E002063
:10EBD000F7B50127134B196A1A695D6A11405A6922
:10EBE0009E6A9B6900911E400F4B15401B681C1DBF
:10EBF00014330193206800280FD00268002A0CD03B
:10EC00003900037A99400B00417A013B8B4000990F
:10EC100029433143194200D09047019B04349C4260
:10EC2000E8D1F7BD00A00540F80E0020F7B5426816
:10EC3000434B477A9200D458BB00E3181A1DD16F9A
:10EC400006004048019301400720D167D16F8143FE
:10EC5000D167791CC9B28A00A218151DEB6F8343D6
:10EC60008020EB67019BC0001D5803239C469D43F9
:10EC7000019B1D50634615589D43155001252B00DF
:10EC80008D40BB4030216361FC3265612561A36129
:10EC900050681F0088438446202063461843019B28
:10ECA0005060FC335A688A431143596033002C3357
:10ECB000256101931B78002B1FD0022B2AD0330033
:10ECC000012232331A7002331B78002B03D030003C
:10ECD000333004F085F9B369002B0DD0F38D002B90
:10ECE0000AD1330030331B78002B05D0019B1B78F1
:10ECF000022B01D0144BF385F7BD236A3D43EDB2DF
:10ED0000AB432362636AFFB2AB436362A36ABB4354
:10ED1000A362D4E7FF232900626A19408A43626232
:10ED2000A26A3B409A43A262707FFEF745F8307FAB
:10ED3000FEF742F83D43236BEDB2AB432363BEE7DE
:10ED400098750100FFFFFCFF0202000070B54268E9
:10ED50002C4B0400457A9200407FD658FEF71AFAF1
:10ED6000012802D10123E38541E0207FFEF712FA5A
:10ED70000128F7D071696B1CDBB2D9400122114226
:10ED800004D09A40802372619B00ECE7B369EB40AA
:10ED9000134212D0AA40638D013B9BB26385B261DE
:10EDA000022B0BD1A021AD007519C9003E346A5861
:10EDB0002378D2B21B0213436B5070BD012B09D1D3
:10EDC0009021AD007519C9000F4B6A581A40802375
:10EDD0009B01F0E7002BF0D19021AD007619C9001E
:10EDE0007258094802407250E28D022ABBD02000BE
:10EDF000FFF71CFF236A002BDFD00420616A9847CD
:10EE0000DBE7C04698750100FF8FFFFF724BF7B537
:10EE10009C466246436804009B009A58437A5069B6
:10EE20000121D840084203D099406C48E0855161E7
:10EE30005569591CC9B2CD400120054214D015694D
:10EE4000DD4005420CD180239B00E3852000FFF7C5
:10EE5000EDFE236A002B6DD00420616A984769E0BB
:10EE600088405F4DE585506110690125C840284202
:10EE700039D0A02089005118800008582600019040
:10EE800020003136377830300578002F1DD1012031
:10EE90003070002D27D0302598001018FC304668BF
:10EEA000AE43103D35434560A06901281BD19D004C
:10EEB0005519FC356E682F30864306436E60FC3171
:10EEC0004D688543284348600DE0A669013EA66170
:10EED000002D08D02569019E2E7025690135256118
:10EEE00000780028E0D11169D940C9070DD56046E6
:10EEF0006168890045586069617A00281BD1012149
:10EF00009940106AC9B28843106291690120D940C2
:10EF100001420FD021003231097800292CD09021F4
:10EF20009B00D318C9005A582E4802405A5020005E
:10EF3000FFF77CFEF7BD01386061A031002809D1E0
:10EF40002600353636788900002E01D1FF200006D4
:10EF50004851D4E7200030300078002804D0FF204A
:10EF6000890000064851D0E7E06889000678013042
:10EF70003606E0604E51C8E79840618D013989B28C
:10EF80006185906102290BD1A0209B00D318C0009D
:10EF90003E3419582278C9B212020A431A50C9E7FE
:10EFA000012909D190209B00D318C0000D4A19589F
:10EFB000114080229201F0E70029BBD190209B00F4
:10EFC000D218C0001358074D2B401350E38D022B6D
:10EFD00000D03BE7E18539E79875010001020000A8
:10EFE00002020000FF8FFFFFF0B5B7B00992426840
:10EFF0000893A84B9200D5580122030005911100F7
:10F0000036331B78040099400B0001003731097832
:10F010008A401343EA68DBB21A40934200D0ECE125
:10F02000437A12260793059B002183615A1C022311
:10F03000C38503005643426109983233B71CD87028
:10F04000FF37089819703F0A023B01361870597053
:10F05000F0193900F1F720FEA022079BD2009B0097
:10F06000EB189A589446421E120211006246D2B220
:10F0700011438AB2A021C9005A507A1E4243B61ADF
:10F0800022003E3267851670012F08D19020C00003
:10F090001958814A1140802292010A431A500726CA
:10F0A00002221F1DF96FB1430A43FA67079A013222
:10F0B000D2B20A929200AA18101DC16FB143063E47
:10F0C0003143C1678021C90058588C4603218843C9
:10F0D00061463043585050580321884301436046ED
:10F0E0001150F96F6D4A1140802252020A43FA67AB
:10F0F00022002C321278B24226D0022A2DD0002AC9
:10F100001FD101F03FFA2200238D3032B340127834
:10F110009B18627A3400A0321B0692005351079B61
:10F120000A9A9C4096402B6A2643F6B233432B62E0
:10F1300001F01CFA6B6AE4B233436B62AB6A1C43A6
:10F14000AC62002037B0F0BD228D089952008A18B9
:10F15000A021120689005A50F3E723001F225E33D4
:10F1600093430693089B002B00D08DE0E368129335
:10F17000059B079A13930123A0329200059827005C
:10F18000AA18033224AE24922590337227920222C9
:10F19000099812A9013839370B72387016932893E1
:10F1A000159733750B75607F0292009100220699C6
:10F1B0000196FDF75DFF230030331B78002B03D051
:10F1C0000021607FFDF720FE069BA6699A8B08232D
:10F1D0001343069A938362682E4B9200D358089388
:10F1E000237F0B933A239C46A44463460593637A9A
:10F1F0000C930133DBB20E93A0339B000F930F9A55
:10F20000089B944663440993230030331F780123FD
:10F21000002F45D1F618390003930193099A059BF5
:10F220000B9802960097FDF797FD39000B98FDF7B4
:10F23000FFFD01273E00607FFDF7B2FD207FFDF757
:10F24000AFFD0A9B696A9E40FF2332001A400A43C1
:10F250006A62079A9740AA6A3B401343AB6201F087
:10F2600091F92200238D303212785B009B18627A6C
:10F270001B06A032920053512A6B3E43F3B2134354
:10F280002B6301F073F95CE72300FF2238331A7017
:10F290006DE7C04698750100FF8FFFFFFFFFFCFF81
:10F2A0000020059F099A2497771E0D9727691292CF
:10F2B00012A924AA1393259308721072109705932C
:10F2C000012E3FD90C9B30279E00089B9E19FC36CF
:10F2D000736811962026BB4333431B36B446A444BF
:10F2E00066463370059B159616930C9B089E40331B
:10F2F0009B00F318059E08752896099E279318967B
:10F300000D9E0493199611260EABF618F077109EF9
:10F3100010752A960D9E1DA92B965926F618F07782
:10F32000119E7668BE433E4327003C373E70059EE3
:10F330001B971C960870049B2E962D932FAB18706C
:10F3400004230593069B089A20330C930E9B12A866
:10F3500040339B009A583023134322003D321370F0
:10F360000C239C466146059B01264B431A50002204
:10F37000C1180A724E600F99089A8139FF395118E5
:10F38000002224AFD951FB181A7262465E60059BB9
:10F390009B195343099AC1181A5000220A720D9AF8
:10F3A0004E609446002210996144D951FB181A729C
:10F3B0005E60059B0090023302930C9933000B981A
:10F3C0000197FDF755FE069B069A9B8F3343938763
:10F3D000A369B34208D96032938B33439383069B6E
:10F3E00080339A8B16439E83059B0C9A5B01D3183E
:10F3F0000822998B0A439A831BE70148A2E6C0467C
:10F4000005020000F0B55D4B8BB003900D00185C59
:10F4100009A91400FDF7C2FB0223210003982372FF
:10F42000FFF726FB0490002800D086E0AB78012B84
:10F4300004D001002000333003F0E3FDAB78012756
:10F4400001932300019A2C331A702B880998238585
:10F4500023002E7A36331E706B7A05932300059AAB
:10F4600037331A70EB68002223622B696968636284
:10F47000230034331A70023B1F70E2856268404BF0
:10F480009200D35808180693637AB9400293F1F7B3
:10F490008DFC0238FF2853DDFF20029B069A9B005B
:10F4A0009C46624413003221FC335960029BC02702
:10F4B0000133D9B20791E021BF04C90036021B060F
:10F4C0003B400E401E438023171D3343FB67079BC1
:10F4D000069F9B00FB181F002021FC3779608027C6
:10F4E0003F043E431F1DFE67A026F600905190206A
:10F4F0006146244FC00017504F1CF0210905080039
:10F5000005993F0638400F02E021C9003940C12764
:10F51000014380203F04C0000F4317500F22844650
:10F520009A51194A80301A50184A0A4361465A5073
:10F53000019B002B08D0022B09D004980BB0F0BD22
:10F540000028AADC3800A8E7114B2360F5E7687DA6
:10F55000039A60772B7D920023770E4B9B18079AB6
:10F560009E5C029A995C0022FDF732FC0022310079
:10F57000287DFDF72DFC084BE7E7C0469475010098
:10F580009875010022020201121120008000C000C3
:10F590000DEE0000907501004DED0000030010B568
:10F5A00032331B7804000220002B0BD023002C33B5
:10F5B0001B78012B03D02000333003F02CFD2000FA
:10F5C000FFF7DCFA10BD020032321278030002208D
:10F5D000002A01D000201985704770B50D00110078
:10F5E0001A00030032331B7804000220002B04D0E1
:10F5F00000232000E560FFF7F7FC70BD70B50D003B
:10F6000011001A00030032331B7804000220002B83
:10F6100004D0012320002561FFF7E6FC70BDF8B59A
:10F62000070032373B7804000D008669002B18D1A3
:10F6300003002C331B78012B04D0022B0CD00029A3
:10F6400004D107E0FFF7E2FB002D00D02E603B78ED
:10F65000002B08D10220F8BD007FFDF7F3FB060068
:10F66000F2E70029F2D1E08DF5E70000044B10B578
:10F670008400E05800F046FA0020024BE05010BD34
:10F68000B4750100FC0E002070B55A4B4C78800018
:10F69000C3580A78002C03D18878002800D172E082
:10F6A0000120002A6ED11A0080258C321068ED02EC
:10F6B00028438025106010682D03284380251060A2
:10F6C00010686D032843802510601068AD02284340
:10F6D0001060C87A1568461EB041474E0004354098
:10F6E000284380251060106828431060002C00D14A
:10F6F00074E01022986D02439A65887820220028D1
:10F7000000D16FE0986D02439A65C87840220028C6
:10F7100000D16BE0986D02439A650224986D0A79D6
:10F72000A0435200024301209A659A6D4C798243AE
:10F7300022439A650A7A9C6D551EAA410825D2007B
:10F74000AC4322439A658A798C331C686D19120187
:10F75000AC432A4022431A60CA791C681035520112
:10F76000AC432A4022431A604A7A1C681C3D92002E
:10F770002A40AC4322431A601A68897A82430020E7
:10F780000A431A6070BDC878002800D088E70130AD
:10F79000002AF7D01A0080248C321068E40020433D
:10F7A00080241060106824012043802410601068B9
:10F7B000640120438024802510601068A400204349
:10F7C0001060C87A6D000002146828400B4D2C4070
:10F7D00020438024106010682043106010209A6D30
:10F7E000824389E7986D904398658EE7986D9043C2
:10F7F000986592E7B4750100FFFFFEFFFFFEFFFF73
:10F80000F8B51E4B820005000E00D458CFB28B0510
:10F8100008D580222368520013432360184B1856E2
:10F8200000F08CFEF30507D58022636D13436365FA
:10F83000144B585700F082FE760507D54022236806
:10F8400013432360104B585700F078FE0026002F1A
:10F8500001D13800F8BD01231F420BD04021F30035
:10F86000E318DA680A43DA60084BEA009B189857F5
:10F8700000F064FE0136F6B27F08E8E7B4750100D7
:10F88000A0750100A27501009E750100A47501001C
:10F89000F8B51D4B820005000E00D458CFB28B0581
:10F8A00007D52368194A13402360194B185600F0F6
:10F8B00051FEF30507D58022636D93436365154BB5
:10F8C000585700F047FE760507D54022236893433A
:10F8D0002360114B585700F03DFE0026002F00D149
:10F8E000F8BD01231F420BD04021F300E318DA6872
:10F8F0008A43DA60094BEA009B18985700F02AFE09
:10F900000136F6B27F08E9E7B4750100FFFEFFFF9C
:10F91000A0750100A27501009E750100A47501008B
:10F92000114B8000C15830B508684B6DC005C00F41
:10F9300040021B0602D580235B0018430B685B0660
:10F9400002D58023DB0018430723402401255A1CDD
:10F95000D2008A185268224202D02A009A401043EC
:10F96000013BF4D230BDC046B47501008022154B76
:10F970008000C35892001868596F1040813AFF3ACE
:10F9800070B5114202D08021490008431968114224
:10F9900002D08022D2001043DA6E120602D58022F5
:10F9A00012011043002280250126541CE100591841
:10F9B0004968294202D03100914008432200082CB6
:10F9C000F3D170BDB47501000F4A13B581008A5898
:10F9D000030014680722002014400C4A01908A5842
:10F9E0001278022A08D0032A03D0012A08D101A9DB
:10F9F00004E0074AD05CFAE7182001A9FDF7CEF829
:10FA00000198E04016BDC046B4750100FC0E002010
:10FA10009C750100F7B50D0001211600294A8300ED
:10FA20009F5800900191002F44D1300026490C309E
:10FA30005C58A97B77703170B78039009E5058228E
:10FA400007F0D6FA200000F05DF82000697B00F096
:10FA50004DF80098FFF7B8FFB0602B7B9A1E022A82
:10FA600002D90197082B04D129000098FFF70CFE5A
:10FA700001904021E26E6B7C8A439B01134322007C
:10FA8000FF20E366EB7B0832D16F9B0103403F38D8
:10FA900081430B43D3670D4B009A0D4998562B7C3D
:10FAA000002B09D0802322685B000A4013432360A7
:10FAB00000F044FD0198FEBD23680B40236000F078
:10FAC00049FDF7E7FC0E0020B4750100A0750100A8
:10FAD000FFFEFFFF044B8000C35810B59868F1F794
:10FAE000DBF880B210BDC046FC0E00200122436D41
:10FAF0001343436503680632934311400B4303608D
:10FB000070470000436F0422002343674265026888
:10FB1000036043608360C364026D03658365C365EE
:10FB2000036643668366C26E021DC36630B5036713
:10FB3000043283671049C3679367D36780321360C9
:10FB400053609360D36013615361884202D1802275
:10FB50009200835000231C00DA008218D568D4601C
:10FB60001461884204D11A008032920082185460D5
:10FB70000133082BF0D130BD009003401023012940
:10FB800003D9052908D8012302398B40002A07D060
:10FB9000C26E1343C3667047802306395B00F4E7E7
:10FBA000C26E9A43C266F6E7F8B5294B8000C35887
:10FBB0005A78012A01D0082A36D1264A145804223C
:10FBC0004800C9008A401100656EC0B2421C0D4257
:10FBD0002BD0D2B2C500D2006519A2182F691669C0
:10FBE000BFB2B6B2F11B8C4689B2B74202D3598874
:10FBF000614489B2061D76009E19B1808026E968AD
:10FC0000B143E960D168B143D160A2685A808200F3
:10FC10009A18D46B002C07D01B185C331B78002B70
:10FC200002D00020D169A047F8BDD1006118496811
:10FC3000090600D4D0B2C1006118021D0D6952003E
:10FC40009A1895808025CA68AA43CA60DDE7C04635
:10FC5000FC0E0020B4750100F8B50020FFF786FE09
:10FC600005000020FFF75CFE00240600012733009A
:10FC70002B4018006200511CC840D34003433B4254
:10FC800003D00020E1B2FFF78FFF0134042CEED146
:10FC9000F8BDF8B50120FFF769FE05000120FFF768
:10FCA0003FFE00240600012733002B4018006200AD
:10FCB000511CC840D34003433B4203D03800E1B25B
:10FCC000FFF772FF0134042CEED1F8BDF0B5464ABF
:10FCD00083009A5885B00E0001200092002A36D089
:10FCE0005578002D33D1414A9C58182223689343FC
:10FCF0002360236808329343236023683C4A1340FF
:10FD00002360E36C1B0C1B04E364A3684A881B0C90
:10FD10001B041343A3606368221D1B0C1B04636058
:10FD2000D36F8343D3673378AB4212D88022182134
:10FD30000020A36D1343A3657378009A5370009B52
:10FD400022681B788A43DB000B401343236005B015
:10FD5000F0BD062380206B4372680135D1180191F4
:10FD6000D15C626E4B08DB009840824301209840D2
:10FD70006266626EEDB28243042084469840674614
:10FD80006266626ECB0082436266E318DA680292B2
:10FD9000019A527890003840039002989200B8433C
:10FDA0000700039838430827D860D8683A40B8431A
:10FDB00002431020DA60DA680243DA60DA68001879
:10FDC0008243DA60019A1F3852881A610B0010339F
:10FDD000984003002268200013432360019B1A7996
:10FDE000FFF7CCFE9FE7C046FC0E0020B475010073
:10FDF000FFFDFFFFF0B50F4D8000405905AC47688F
:10FE000024788568002B09D11600ABB2D219BFB295
:10FE100092B2DB1B9E4201DD521B92B20131C9003E
:10FE200041188A608022836DE401934323438365F4
:10FE30000020F0BDB475010010B50424C9004018BD
:10FE4000C1689300A14323400B430821C360C368EA
:10FE500052088B43D2001A43C26010BD01238B406D
:10FE6000002A03D1026F9A4302677047026F13435F
:10FE70000367FAE7F7B518220026364B8000C4580E
:10FE8000354BC35801932368934323600023F70045
:10FE9000E719F5B21A00290020003B61FFF7CCFFFB
:10FEA0001022FB689343FB60FB6892189343FB604E
:10FEB00023689343236001231900B140226F180087
:10FEC0008A433100DD40103188402021ED00A940F7
:10FED00022672268AB4082432260626E01368A4309
:10FEE000626680221000A840616E81436166616E87
:10FEF000994361661021A940636E8B43636640237A
:10FF00001800A840616E81436166082EBED1A16EC3
:10FF100012480140C020A166A16E81430B433F21DE
:10FF2000A366A36E8B430021A366E167636D08009F
:10FF300093436365636D203A93436365A3681B0C29
:10FF40001B04A36063681B0C1B046360019B597056
:10FF5000FEBDC046B4750100FC0E0020FFFFF0FF9F
:10FF6000F0B585B08C460AA90D880BA909788000E8
:10FF70000391354944583549415801910198A16888
:10FF8000467889B2042E46D14900002089B2002A61
:10FF900048D180263602B34248D8B54246D80A0036
:10FFA0004D435A43ED13D21392B2ADB2B3423FD197
:10FFB000013293B200282CD16246666E520800923C
:10FFC0003200009EF7000126BE40324232D0802629
:10FFD000BE40626E0292009A52000092571C029A32
:10FFE000324203D02668F606B60F02D1FF00E719A9
:10FFF000BB60009A0132D2B20132D200A2189560E1
:020000021000EC
:100000008022A36D9343039AD2011343A365019BFE
:10001000998005B0F0BD032E02D00120082EB6D184
:100020000131B2E7994201D3A942C3D20120F0E7DE
:100030001300BFE7624625680132AD0600D55B08B4
:10004000D200A2189360DBE7B4750100FC0E00201B
:10005000F0B5BD4B8200D3588DB006900F00012043
:100060000593002B00D1CBE05B780493002B00D0EC
:10007000C6E0B64BD4581822236893432360236804
:10008000B34A134023600423626D134363658B7886
:10009000059A5370049B0393039A3B78934200D9CB
:1000A000B0E0002307937B78079A934200D953E18D
:1000B0000222636D134363657B69DA780392002A39
:1000C00050D01A78002A00D1F3E18022E16F1202A9
:1000D0000A43F020E2679A7800011202E16F0240C1
:1000E0009C4801400A43E26704220792069A032AC9
:1000F00001D9022207920120250000228446191D01
:1001000088350878002818D060469040E66F029045
:1001100006436046E667161DB0404E78002E00D1BB
:10012000CBE1E66F30430600E6678E78012E00D003
:10013000C6E12E68029886432E600132079ED0B237
:100140000331B042DDD35B78002B03D08022636D96
:10015000134363656021039B626D5B010B408A431F
:1001600013436365BB782268043B59424B4120210D
:100170005B018A4313432360B9680698FFF7AAFC22
:10018000059B9880E36C1B0C1B04E364BB78042B79
:1001900000D09AE1A36840081B0C1B0400251843FB
:1001A000A0600A2628003B78AB4200D993E17B7817
:1001B000049A934200D99DE1002800D0ACE13F2190
:1001C000A26EFB788A430B401343A3663B79A26E71
:1001D000C0319B010B403F398A4313430122A36680
:1001E000636DA83913436365636D07321343636519
:1001F000059B22681B788A43DB000B401343236076
:100200000DB0F0BD0A23039A200053430793079AC9
:10021000FB689A180292079A9E5C029B31005B79F8
:10022000750808935A1E9341DBB21A000A93FFF730
:1002300015FE029B089A5B78934277D10122310028
:100240002000FFF7F9FD0223ED00AB400B93029B6A
:100250009B79002B6FD01022029BAA401B7A002BA7
:1002600066D0636E13436366731CDBB2022219000F
:1002700020000993FFF7E0FD636E0B9A134363665A
:10028000029B0A9ADB79012B03D0089A53425A4108
:10029000D2B220000999FFF7E1FD0422AA40636E63
:1002A000102193430122AA406366636E9343802228
:1002B000AA406366636E9343F2006366A218D36834
:1002C0008B430B43D360D36849180B43D36040235F
:1002D0007A69AB40D278002A32D0626E13436366EB
:1002E0002023AB40626E310013436366029B200003
:1002F0001A79FFF743FC01213300080010339840BE
:100300000300226813432360079AFB689B189B79BC
:10031000002B07D07318DBB2103399400B00226812
:1003200013432360039B0133DBB2B4E6022286E76A
:10033000636E934397E7636E0B9A93436366ACE7F0
:10034000626E9A436266CBE7FC0E0020B475010032
:10035000FFFDFFFFFFF0FFFF079B20001B0108933D
:10036000089A3B699E189B5C02935D08737B029917
:100370001A000993531E9A41D2B2FFF76FFD337AE8
:10038000099A934242D1012202992000FFF754FDBD
:10039000EA00039204220399636E8A40102193437A
:1003A0006366029BDA00A218D3688B430B43D360C9
:1003B000D36849180B43D360012302992268103196
:1003C0008B4013432360737A002B2CD0029B2000B8
:1003D0005D1CB37BEDB21A000A93531E9A412900AB
:1003E000D2B2FFF73BFD022229002000FFF724FDD7
:1003F0000223039A09990A989340B27A814207D15D
:10040000002A07D1626E9A43626606E00222BBE7C9
:10041000002AF7D1626E1343636601231035AB40A7
:100420002268134323604023039A93407A69D27869
:10043000002A33D0626E1343636620230399626EF1
:100440008B401343636601238B40626E13436366E4
:100450008023F2798B40002A24D0626E13436366B6
:100460001022039B9A40B379002B1FD0636E134375
:1004700063660123029DF27A9D4329002000FFF765
:100480007DFB089A3B6901359B181A7B2000E9B275
:10049000FFF774FB079E0136F3B203E6626E9A43E0
:1004A0006266CAE7626E9A436266D9E7636E9343F7
:1004B000DEE7E26F1A490A400BE6E66F864333E651
:1004C0002E6802983043286037E6A36801381B0C79
:1004D0001B0480B262E633006B43FA680698D218B8
:1004E000538811780022013501920092FFF738FD00
:1004F000EDB258E60022049B38691B01C0184388FE
:1005000001780192808800900698FFF729FD049BEE
:100510000133DBB204934AE60023059A53706FE679
:10052000FF7FFFFF044B10308000C018002A01D06D
:10053000036813600160704700FDFF1F1F2243091D
:1005400010401E3A824002499B005A507047C046F4
:1005500000E100E01F22430910401E3A8240024998
:1005600020339B005A50704700E100E0044A1368B2
:10057000002B04DD013B1360002B00D162B67047F5
:10058000040F002072B6024A1368013313607047EB
:10059000040F002070B5FF2489012140002816DADD
:1005A0000F220240100003231825083883429B4184
:1005B0000420D2002A409440914003400D481B186B
:1005C0001868A043186018680143196070BD1826A8
:1005D000094A83089B009B18C022C0003040844019
:1005E000814092009D58A5439D509C5821439950AD
:1005F000ECE7C0461CED00E000E100E030B50D7C0A
:1006000003000C00087885B0002D13D1114A5B005F
:10061000995C2A00FCF7DCFB617820780395E3689D
:1006200000950293012301936368A268FCF794FB91
:1006300005B030BD00222C21FCF7CAFB00236178F5
:1006400020780393E2680093029201220192A3684A
:100650006268EBE7BC75010030B51A4B8200D558D3
:1006600087B02A7F6B6801AC2270002B1ED001225C
:100670006270154A6260EA68A2600022227421005A
:10068000E360FFF7BBFF2478696820004942FCF76C
:10069000C5FB2000FCF784FB6A680C4B002A0ED0D7
:1006A00001211A6A0A431A6207B030BD6370084B11
:1006B00063602B69A36001232374AB68DFE7022129
:1006C0001A6AEFE7080F002060610640FC600640F0
:1006D000706106400E4B0F49DA690A40DA61C27E4A
:1006E000002A06D18268002A0FD002211A6A8A43A2
:1006F0001A6201215A698A435A6100238370036197
:100700008360C3604360C375704701211A6AEEE7D6
:10071000FC600640F8F0FFFF10B5C37E0400002B1C
:1007200002D1007FFCF748FB637D002B09D120003C
:10073000FFF7D0FFA37E002B03D02000193002F07A
:100740004FFC236A002B02D00420616A984710BD39
:1007500070B5C27A0E4C857AE36D616895420BD113
:100760000F2211400E3A07258A402B4092B2816930
:10077000002901D09A4200D870BD436901391E7822
:100780000133266681614361E36D2B40EFE7C0468C
:10079000006006400F2370B50A4CE56D66681E4088
:1007A0000E3BB34007269BB235409D4203D209025F
:1007B0008918216670BD837AC154C11801334A710A
:1007C0008372F7E700600640F8B5431D048CDB7FB9
:1007D00005000E00E7B2002B12D00623E4091C40EE
:1007E0002200103A0421D2B2FFF7D4FF0F3C3A00A6
:1007F00000212800FFF7CEFFE2B2002E03D1F8BDA2
:100800007F00CA19D2B204212800FFF7C3FFF6E720
:100810002D4B8200F0B5D55889B02B0001902833BC
:100820001F78AA6903A9294C0F70002A35D00F231D
:10083000032660681840A36DB3439C4601238340A0
:10084000934200D913006046013B33400343A36544
:10085000012300264B701E4B0E744B606B698B603E
:100860000198CA60FFF7CAFE01213800FCF7F4FACC
:100870001849019A3800FCF79BF93800FCF790FA08
:1008800031002800FFF7A0FFAB69002B12D0012236
:10089000E3691343E36109B0F0BD0126A36D0E487F
:1008A0000340A3650D4B4A704B60EB682A698B606F
:1008B0000E74D5E72A690121013AD2B22800FFF768
:1008C00069FF0222E369E4E70C0F002000600640A4
:1008D0006060064055090100FFFFFCFF70600640A4
:1008E000F8B51A4D1700AB69194A04001340AB6103
:1008F00003000833DB7F0E00002B0BD103002833ED
:100900001878FCF759FA2369002B1CD00222EB69F6
:100910009343EB61002F08D080222B6952001343D0
:100920002B612B69921813432B61002E02D0802378
:100930009B002B6600236361A361E36023610334A2
:100940000133E377F8BD0122EB69E1E7006006407F
:10095000FCE3FFFF194B800070B5C4580D00A3697C
:10096000002B10D001290ED000230321A361144BCA
:100970009A6D8A439A650122D9699143D96199692F
:100980000A439A6170BD231DD97F00222000FFF722
:10099000A7FFE31DDB7F002B03D02000253002F0F2
:1009A0001FFB012D07D1A583E36A002BEAD00420A9
:1009B000216B9847E6E70023A383F5E70C0F00209F
:1009C0000060064070B5094C850028590026253086
:1009D00002F021FB0121064A2E51136918208B4396
:1009E0001361FFF7B7FD300070BDC0460C0F00204B
:1009F00000600640F0B5444B87B00193830002933A
:100A00001600019B029A0391D35802200333DB7F27
:100A1000002B76D001273D4C05A93B30FCF7BEF8F2
:100A200023695F21BB432361002E2FD0059B7143B7
:100A3000581E0093F0F730F9C0190025B84206D9C6
:100A40000135072D03D03B00AB408342F8D3310082
:100A5000A940009B4808C018F0F71EF906005F285F
:100A600017D8012817D9023E03213000F0F714F9F6
:100A7000021E00D10122301A032800D203201100E7
:100A80005308052E0BD80023012107E00E0007258F
:100A9000E9E75F26E7E70023012103200222072779
:100AA000666ABE4335436562A66C194D3540002B1E
:100AB00000D101331B062B43A364A36C154D120414
:100AC0002B401A43A264A36C134A090213403F222D
:100AD0001943A164A36C104093431843029A019BED
:100AE000A0649A580D49636A00200B406362636AF0
:100AF0000B490B406362039B9377012223691343E5
:100B0000236107B0F0BDC0460C0F00200060064016
:100B1000FFFFFFC0FFFFC0FFFFC0FFFFFFFFFFF8A9
:100B2000FFFDFFFFF0B514000D000026012787B080
:100B3000019005A93D20FCF731F8019A214B920064
:100B40000293D450E31CE66026616661A661A68329
:100B5000DF772B8803922384AA78631DDA772A7AB9
:100B60000333DA776A7A20331A70EB682000E36285
:100B70002B6931002363E31DDE776B682530A363A7
:100B8000230034331E7002F03CFA66810E4C1820AC
:100B9000FFF7D4FC200000F0C9FA6A68E9780198F0
:100BA000FFF728FF30000399029BAA78CB582988C9
:100BB00019840533DA772369BB433B43236107B0CC
:100BC000F0BDC0460C0F002000600640134BF7B587
:100BD0001E00002301250C00114F8200915101924B
:100BE000CA1C4B618B61CB600B610090D5773800DC
:100BF0004B8100F09BFAA17FA26B0098FFF7FAFEF1
:100C0000019B218C9B590534E27F19840533DA77E7
:100C10003B69AB431D433D61F7BDC0460C0F00204F
:100C200000600640034B8000C35819840533DA770F
:100C30007047C0460C0F0020F8B5174C85002C59A2
:100C40000225E61CF77F002F14D0A261221D6161EE
:100C5000D37700212300F1770833A583DB7F0F4D85
:100C60008B4209D1E023AA695B011343AB61FFF713
:100C7000CFFD00252800F8BD2000FFF7A5FD2000CE
:100C8000FFF766FD0322AB6D9343AB65AA69044B86
:100C90001343AB61EDE7C0460C0F00200060064037
:100CA000011C0000F8B51700244A8400A558022250
:100CB000EC1CE67F002E15D000222F61E2772A1D62
:100CC000D3770223AB832B00E9600833DB7F1C4E14
:100CD000002B09D1E023B2695B011343B361FFF735
:100CE00097FD00221000F8BD01212800FCB2FFF79B
:100CF0006BFD621ED2B201212800FFF74BFD0122DD
:100D000073681B051B0F9A40974200D394B2B36DD2
:100D10000C4A013C1340C0222404920214401C439C
:100D2000B465AA7AEB7A9A4204D0B269064B1343AF
:100D3000B361D6E7B269054BF9E7C0460C0F002056
:100D400000600640FFFFFCFF031C0000021C0000C7
:100D50000F4B800010B5C05800290DD00300083398
:100D6000DB7F012B08D18269002A08D00724094BB8
:100D7000DB6D23409B180B60808B80B210BD036934
:100D8000002BF8D0034AD26D5203520F9B1AF2E7A0
:100D90000C0F002000600640F8B5794B8200D45853
:100DA0000122784D06006B69134212D0A07AE37AD3
:100DB000834200D187E007210F27EB6D0B40696864
:100DC00039408A4092B2E17A884200D178E09A4272
:100DD00069D86B699B0714D5230034331B7807212E
:100DE000002B00D19DE0E31DDB7F002B03D0200012
:100DF000253002F0F5F8032321003000A383FFF72C
:100E0000E5FE6B690122DB0415D580235B016B6174
:100E100000212000A283FFF763FDE31DDB7F002B91
:100E200003D02000253002F0DBF8E36A002B02D06B
:100E30000420216B98476B691B0517D580231B0184
:100E40006B61012200212000FFF74AFDE31DDB7FDB
:100E5000002B03D02000253002F0C2F84A4BA383B8
:100E6000E36A002B02D00420216B98476B695B0575
:100E700018D5E31DDB7F002B03D02000253002F0C6
:100E8000AFF880239B00A383012200212000FFF7FD
:100E900027FDE36A002B02D00420216B98478023B2
:100EA000DB006B61F8BD67187F79635CBC461B0291
:100EB000634401312B66E1720721EB6D0B4082E741
:100EC0000023638185E76369002B1DD0A269002A96
:100ED00016D1231DD97F2000FFF702FDE31DDB7F24
:100EE000002B03D02000253002F07AF80023A383E2
:100EF000E36A002B00D16CE70420216B984768E778
:100F00002000FFF725FC64E7AB699343AB6160E722
:100F1000E3682A6F1A70E3680133E3602369013BD9
:100F20002361EA6D2369120C0A4219D0002BEFD11C
:100F3000231DD97F00222000FFF7D2FCE31DDB7FB9
:100F4000002B03D02000253002F04AF80023A383B1
:100F5000E36A002B00D154E70420216B984750E747
:100F6000002BE5D0AA6D9203920F9A4200D248E777
:100F7000AA6D0649013B0A401B041343AB6540E7D9
:100F80000C0F00200060064003020000FFFFFCFF82
:100F900070B55B4B5B4D8200D458AB6906000122F3
:100FA0005B0716D5696D236A114200D172E0002BF0
:100FB00005D0627D002A02D00220616A9847E37E54
:100FC000012B5CD1EA691343EB61002323760223F2
:100FD00023800123AA691A4217D0EA691A4214D061
:100FE000237E002B01D0484B23806368002B05D162
:100FF000236A002B02D00120616A98476368002BA6
:1010000059D101332376FE336B66AB699B070BD551
:10101000EB699B0708D5A068002859D1236A002BEB
:1010200051D13A4B23806B6F0121AB69AA695B0AEE
:10103000120A0B400A4255D1002B11D08023012205
:101040009B00AB61013BFF3BAB61EB699343EB6101
:101050002388022B01D1002323802000FFF75CFBB3
:10106000AB6901225B0509D58023DB002280AB61DF
:10107000EB6920009343EB61FFF74EFB70BD00224C
:1010800022769342A3D1637D9342A0D03000FFF734
:10109000E3FA9CE7002B05D0627D002A02D00320F2
:1010A000616A9847E37E002B00D090E7637D002BB8
:1010B00000D18CE7EAE7E268013B1178013269660A
:1010C000E2606360A1E7616A9847A368002BA8D03B
:1010D00023696A6F1A70236901332361A368013B96
:1010E000A360A1E7E27D0132D2B2E275012AA5D167
:1010F000A27D002AA2D080225200AA619CE7C046AD
:10110000080F0020FC6006400102000002020000FF
:10111000054B8200D35810B5002B02D1FFF73CFEDF
:1011200010BDFFF735FFFBE7080F0020022302691F
:101130009A431A4302610200FC32516999430B43FE
:101140005361002303615361704710B50020FFF71E
:10115000DFFF10BD02230361002303617047426972
:101160000121120E10B5140003000C4002200A42A7
:1011700003D120001A698A431A6110BD0122436A13
:1011800093430B43436200207047036952021A43A2
:1011900009020A4302617047FC239B01994204D172
:1011A0004369194341610020704701238B40426924
:1011B00013434361F7E710B5012408318C408A409E
:1011C000436AA3431A434262002010BD30B5456A0A
:1011D000064C9206254001246340DB0613430906B2
:1011E0000B432B434362002030BDC046FFFFFFF09E
:1011F000FF22036C114093431943016400207047A0
:10120000F0B58BB008930023012507000C00029372
:1012100006930493444B07926D420993029B099AEB
:101220009B00D358059380235B0003930023019315
:10123000019B039A07989E18FF2376081E40059B82
:10124000B11C5943EFF728FD2B1BA54200D2631BAD
:10125000A0424DD2221A03969A4200D20500039B67
:10126000019A9B1A012BE3D8059B911C59430798BF
:10127000EFF712FD0600039B0798991C059B594345
:10128000EFF70AFD331BB44200D9A31B021B8442B3
:1012900000D9221A9A4202D20600039B01932B1B0B
:1012A000AC4200D9631BA64229D2A21B9A422FD975
:1012B000A54232D13A6C049B12029B081906120A0D
:1012C0000A433A64396C194A380011401A040A4337
:1012D0003A643A6C16491B020A4013433B64049972
:1012E000FFF786FF2800089B069A1A600BB0F0BD36
:1012F000021B934201D80196B1E70500FBE7321BC0
:101300009A42D5D8029B35000693019B0493CFE700
:101310003500029B0693019B0493029B01330293C9
:10132000082B00D07AE7C5E7C0750100FFFF00FF7A
:10133000FF00FFFFCB680A68DB06013A13434A7CD3
:10134000D20713430A7C92071343CA7A1206134347
:101350008A7AD20513434A7A920513430A7A5205D0
:101360001343CA79120513438A79D20413434A7985
:10137000920413430A79120413430366704710B5AD
:10138000002000F075FA10BDF0B58BB00991022174
:101390001F00674B05928200D458012663690890AC
:1013A0000691DB0160D463691B0E33425CD1614B53
:1013B0003800D5586988EFF7F5FC8BB20693002BFF
:1013C00000D0B3E0320031002000FFF7DEFE320033
:1013D00031002000FFF7D9FE2B79002B04D08023A9
:1013E000226E5B03134323660022FC21EB1DDA7798
:1013F00020008901FFF7D0FE8023A2691B0113435F
:10140000A361059B002B32D16B838023226E1B03CB
:1014100013432366A36D484A1340A3650323A26DBB
:101420009A43013B1343A3656B1DDB7F012B28D13E
:10143000099B2B61059B6B610023AB83EB832B79AD
:101440002F83002B03D02B8B01339BB22B830123E3
:101450002B73059B002B03D00223A2691343A361C6
:101460000123A2691343A36106980BB0F0BD80234A
:10147000A2695B011343A3616F83236E2F4A13405C
:10148000C7E76B880026012B03D0023B5A1E93410D
:101490005E1C01210A00B2402B1DD87FF7402300BB
:1014A0000792099A643303910297002A37D0079A6A
:1014B00000960192099AFBF74FFC059B002B17D071
:1014C000EB1CD87F012322000393079B002101938B
:1014D0007432059B02970096FBF73EFCEB1CD87F0D
:1014E0001749089AFBF764FBEB1CD87FFBF758FC05
:1014F0002E1D1449089AF07FFBF75AFBF07FFBF78B
:101500004FFC01232B73059B002B03D00222E369C0
:101510001343E3610122E3691343E361A4E7079AFC
:10152000032101922A0000963032C4E706969BE719
:1015300098030020100F0020FFFFFCFFFFFFF7FFC4
:10154000A1170100591701001B4B820070B5D55837
:101550001A4BD45800232B736B1DDB7F0222002B08
:1015600021D1E3699343E361E369013A9343E36182
:1015700000F01EFAA369124A0A211340A361200059
:10158000FFF70AFE6B79002B05D02800253001F00B
:1015900027FD00236B71AB6A002B03D000212800CC
:1015A000EA6A984770BDA36993430122A361A369C6
:1015B0009343A361DCE7C046100F0020980300208E
:1015C000FFFBFFFF364BF0B58000C558354B89B0A7
:1015D000C6580C0030000192FFF7C1FD071E03D072
:1015E0000127380009B0F0BD23892F491A00083AB5
:1015F00092B28A42F4D8E2682B80AA60A2790733BB
:101600002A71A17C6A1CD177E17C6A1D9BB2D177DB
:10161000DB0828736871032B3AD0042B3AD89BB2AD
:101620006B80227DEB1CDA77627D2B1DDA77A36954
:101630003000AB62E369EB6262792179FFF7BBFDB1
:10164000E26802AB30002168FFF7DAFD0222736A1C
:101650001343736201233269134333610028BFD0FF
:10166000019B002B00D018602B8803A90393002353
:101670000493A2794B720A72A37C30008B72237997
:10168000CB72029BCB60238A0B82FFF753FEA8E745
:101690000423C5E7013B9B0801339B00C0E7C0461C
:1016A000100F002098030020F80F0000F8B5194B28
:1016B00014008200D658184B07003000D1500D009E
:1016C000FFF748FD01213000FFF758FD00220123FC
:1016D00011003000FFF77AFD01217368AA1CDBB20C
:1016E00099403800D17721000022FFF76BFF041EDC
:1016F0000ED1286328002100253001F082FC074B21
:101700000400D857FEF71AFF0122336913433361EF
:101710002000F8BD98030020100F00209703002040
:1017200010B5002B02D0FFF72FFE0300180010BDEC
:10173000084B10B58200D458FFF706FF01222000A5
:101740001100FFF722FD012220001100FFF71DFD0F
:10175000002010BD980300200E4B820070B5D458B5
:101760000D4B0D00D358012904D10734FFF7E0FFDA
:10177000E57770BD2279002A03D01A6E07490A4026
:101780001A6600222283628380229969D2000A436A
:101790009A61EEE7100F002098030020FFFFEFFF93
:1017A00070B50C00012906D1034B8200D558FFF714
:1017B000BFFF0735EC7770BD100F00202A4B820069
:1017C00070B5D458294B0600D5586B691B050CD54C
:1017D0002369002B09D0FFF7ABFF0B212800FFF78F
:1017E000DBFC01230734E37770BD6B69DB040CD5A8
:1017F0006369002B09D03000FFF79AFF0C21280005
:10180000FFF7CAFC07340223EDE76B699B0705D598
:10181000638B3000002B21D000F08EF86B69DB0762
:1018200005D5238B002B02D0300000F035F8238B38
:10183000002BD9D10122AB699343AB618023A96905
:10184000DB000B43AB61638B002BCDD16B699B0A33
:101850001342C9D03000FFF777FEC5E7FFF768FFF6
:101860000222E31DDA77D9E7100F00209803002049
:1018700010B5002809D1074B1B685A6A01231100D3
:1018800019401A4202D0FFF799FF10BD080000F07E
:10189000E1F8FAE798030020F7B50721234B800011
:1018A000C458234BC758A31CFA6DDB7F0A409B1A10
:1018B000DBB20193019B002B0BD02379002B09D0C5
:1018C000238B012B06D13B6E1A4A13403B66002343
:1018D0002383F7BD6188A28B23698A1A042A04DD59
:1018E00004251E1E17D040CB0EE0A58B1E004D1BFD
:1018F000ADB2002B0FD0012904D00229F3D11E88EC
:10190000023301E01E780133A08B23614019EFF709
:1019100033FB89B2A1837E66238B5B1B9BB223833F
:10192000238B002BD5D0019B013BC1E7100F00207A
:1019300098030020FFFFEFFFF8B51B4B8000C45851
:101940001A4BC758FD6D6D036D0F002D00D1F8BD0A
:101950000426796F6388E28B9A1AB24202DCE28B2A
:101960009B1A9EB200239AB2964210D8E08B6188EF
:101970008019EFF701FB89B2E183638B9B1B9BB25C
:101980006383638B002BE2D0013DEDB2DDE762693A
:10199000D80094460A00C240100062461070626986
:1019A000013301326261DEE7100F0020980300204E
:1019B0000A4B800010B5C458094AA3690B21134093
:1019C000A361A369074A20001340A361FFF7E4FB6A
:1019D0000C212000FFF7E0FB10BDC046980300205B
:1019E000FFF7FFFFFFEFFFFF184B820070B5D458E1
:1019F000174BD5586B1DDA7F012A1ED1A36993437B
:101A0000A361A36901329343A361FFF7D1FF0026CD
:101A10000122200011002E73FFF7B7FB01222000E6
:101A20001100FFF7B2FB6B79B34204D028002530D8
:101A300001F0D6FA6E71002070BD0222E369934373
:101A4000E361E369013A9343E361DEE79803002031
:101A5000100F00202F4B820070B5D5582E4B06007A
:101A6000D4586B691B0508D52369002B05D0FFF7F7
:101A7000BBFF01230734E37770BD6B69DB0408D536
:101A80006369002B05D03000FFF7AEFF0734022357
:101A9000F1E76B699B0705D5638B002B02D0300003
:101AA000FFF74AFF6B69DB0705D5238B002B02D0BC
:101AB0003000FFF7F1FE238B002B03D10122AB692D
:101AC0009343AB61638B002B03D10222AB69934339
:101AD000AB61638B002BCFD1238B99B2002BCBD181
:101AE000AB690E4A1340AB61AB690D4A1340AB6161
:101AF000A36A002B02D02000E26A98476379002B8A
:101B000005D02000253001F06BFA0023637100231B
:101B10002373B1E798030020100F0020FFF7FFFFA9
:101B2000FFEFFFFF07B50138C0B2022806D8054B0A
:101B300001A9185CFBF732F801980EBD0B2001A932
:101B4000F8E7C046E0750100F0B58D68CB7889B044
:101B50000393ABB24C798F790093039B0E00002B5B
:101B600033D10B7B04930879FFF7DCFF049B020061
:101B7000012B2AD1039B2800190002F0BFFA00258F
:101B8000514C002324184D41504A20002900009454
:101B90000195EFF787FA019B049005910F2B00D96F
:101BA00087E004D14A4B009A9A4200D981E0019B18
:101BB000002B04D1474B009A9A4200D87BE00024C6
:101BC0000127049B013B9BB20093434DE400280096
:101BD00000F0CCF82A68414B02211A4033788F403C
:101BE0001B0213432B60C0232A689A4373789B011E
:101BF00013432B6084232A689A43B3789B001343D2
:101C00002B6082232A689A43039B5B000B4013439B
:101C100078222B606B68144093431C436C606B68A4
:101C2000743A93431F436F606A68337901318A4382
:101C30000B4013436B60AB68009A1B0C1B041A43E8
:101C4000B023AA602A682D319A43737B1B010B4095
:101C500013432B6088232A6828399A43B37BDB001F
:101C60000B4013432B6009B0F0BD2200012000217E
:101C7000EFF794F9CB0742081A434B0806920793F3
:101C800006980799049A059B801859412200EFF79E
:101C900079F9631C002903D18022520290420ED9A7
:101CA0001C00112CE1D10E4B013C00270093E4B243
:101CB0008BE70124F5E7019C0127009485E70138B3
:101CC000E4B283B2F0E7C04620A1070040420F0013
:101CD0003F424F423F420F00000004407FFEFFFFA3
:101CE000FFFF000010B51400FFF72EFF002C06D0F8
:101CF000812303490A689A43803B13430B6010BD5C
:101D00000000044001200B4A10B514681368044217
:101D100002D0DB0903420CD00024936803201B0C83
:101D20001B040B439360D460D3689BB2994200D9E3
:101D3000200010BD000004408023024A11680B43BC
:101D40001360704700000440812303490A689A43E6
:101D5000803B13430B607047000004408121024A1E
:101D600013688B43136070470000044081220368AE
:101D70009343036000230360436083607047F8B5BA
:101D800005000E0000241827AC4201D10020F8BD48
:101D900038006043301800F01DF80134F4E710B546
:101DA00000F07AF810BD10B501248C408A404369D8
:101DB000A3431A43426110BD10B501248C408A40F0
:101DC0000368A3431A43026010BDC16070470069F5
:101DD0007047000041680268F0B58C00057A14195C
:101DE0002368012D41D0022D43D0002D01D10235B1
:101DF000AB4310254026E027AB43457AFF002D0179
:101E00001D43837AB5439B0133402B431F4D2B4029
:101E1000C57A2E023E40F02733431D4E3F03334028
:101E2000067BF6031E431B4B1E40437B1B043B40BB
:101E30003343867B002E02D0802676043343236012
:101E40000124C37B8C408B40C0321768E643A74314
:101E50003B431360012D07D10569037D6A69002B9F
:101E600009D0012B09D06A61F0BDAB4302252B4399
:101E7000BFE70325FBE73240F5E7437D22438B4074
:101E80002C68344023432B60EDE7C046FFF8FFFF8A
:101E9000FF7FFFFFFFFFF0FF890040180368044940
:101EA00012020B40E021C9000A401A430260704749
:101EB000FFF8FFFF8A7910B54B89002A0CD00A89F8
:101EC00001249A420BD2074800F022F8041E06D1E2
:101ED0001620FEF733FB02E00124002BF3D1200093
:101EE00010BDC04600200540054B1A68920402D57B
:101EF000044A5A607047044A5A605A68034AF8E72D
:101F00000020054002A680B402A6000080B40000B4
:101F1000F7B5036807680093036804000D00019398
:101F20000126FEF72FFB3F0645D4019B9B0642D5B9
:101F3000254A009BC02013401A00A9798000CB03DA
:101F40001A432B7B1B031A436B799B011A432B7992
:101F50005B011A432B781B0203401343EA78002AE3
:101F600001D0042213436A78002A01D002221343CD
:101F7000AA78002A01D001221343C122D2011343BF
:101F8000226892041BD5114A6260626880221201A5
:101F900020681042FCD023606B89A360002901D027
:101FA0002B89E36023681342FCD18023DB00226885
:101FB0001A42FCD00026FEF7D9FA3000FEBD044AD2
:101FC00062606268034ADFE7986CFFFF20C528D98A
:101FD00020C5000028D90000002070470130C00053
:101FE0008008053070470000F7B514000193050024
:101FF0000E00FFF7F1FF0E4B8200D7580D4B40004B
:10200000C25C002A06D0002C04D01B185878FFF7B9
:10201000E5FF241A012E07D9042E04D10121019BCA
:10202000E2B22800B847F7BD0021019BE2B2F8E711
:10203000140F0020180F0020F0B5037805000C00E5
:10204000012691B0002B52D1436800932B4B1A7894
:10205000002A03D12A4A00991E70116000222368C9
:10206000284E019332700293237902A98B71A379D0
:102070000B72E379CB71E368069323690793636975
:102080000893A3680593A3690993236A0B93636A72
:102090000C93A36A0D93E3690A93E36A0E93637941
:1020A0004B72236B934225D0080001211F784171A8
:1020B000077182863800FFF791FF0121019B317083
:1020C00001331B18029377706B460F49187802AAE8
:1020D000FBF73CFC061E0AD10A4B1B78002B06D0EE
:1020E000236B686859785A68C0B2FBF775FD3000F9
:1020F00011B0F0BD02AA93809386E5E7440F00205B
:10210000480F0020180F00204C0F0020037810B556
:1021100004000120002B0CD16068C0B2FBF790FDD9
:10212000002806D1034B62681B689A4201D1024B1A
:10213000187010BD480F0020440F0020F0B507783C
:1021400003000C001600012087B0002F27D15B6828
:1021500003AD18000193FFF73FFFF378114A2B708E
:1021600008236B6033782B72B3786B727378EF72DD
:10217000AB720A2343431B199B009E500A4B40003D
:10218000C25C002A04D01B185878FFF727FF2418D8
:102190006B462A001879E1B20023FBF79DFC07B0DB
:1021A000F0BDC0461C0F0020180F0020F0B587B00E
:1021B0000193037806000C0015000120002B29D1A3
:1021C000776803AE3800FFF707FFEB7840223370E3
:1021D0002B78002B00D1383A72603372AB780E4AFC
:1021E00073726B78B3722B79F3720A2343431B1912
:1021F0009B009D50094B4000C25C002A04D01B1874
:102200005878FFF7EBFE24183200019BE1B2F8B2D8
:10221000FBF7A6FC07B0F0BD1C0F0020180F002034
:10222000F0B51600027803000C00012087B0002AE8
:1022300029D15F6803AD3800FFF7CEFE0A23434380
:10224000124A1B199B009B584000DA782A70327C96
:102250006A601A782A729A786A725A78AA721B7916
:10226000EB720B4BC25C002A04D01B185878FFF7A6
:10227000B5FE24183300083300932A007368E1B2D6
:10228000F8B2FBF74DFC07B0F0BDC0461C0F0020B4
:10229000180F002070B51500027803000C00012013
:1022A000002A0FD15E683000FFF796FE0B4B40000E
:1022B000C25CF6B2002A0BD0002C04D129003000F9
:1022C000FBF7B8FC70BD1B185878FFF787FE241881
:1022D0002A003000E1B2FBF799FCF3E7180F002069
:1022E000F8B51F0003780E00050014000121002B33
:1022F0000BD14068C0B2FBF789FA686831003B0037
:10230000E2B2C0B2FBF7AAFA01000800F8BD000073
:102310000278030070B501200C00002A13D15D681B
:102320002800FFF759FE084B4000C25C002A06D087
:10233000002C04D01B185878FFF750FE2418E1B287
:10234000E8B2FBF719FE70BD180F002070B515003C
:10235000027803000C000120002A0ED15868C6B292
:1023600000290BD0FFF738FE2A00054B80000549F5
:10237000C4503000FBF718FE002070BD2A00F8E7BB
:10238000140F0020E91F0100034B40681B68181A56
:10239000421E9041C0B27047B40F002052680B68D3
:1023A0009A4201D100230370704710B504780300EE
:1023B0000120002C03D152680A601870200010BD63
:1023C00070B5037806000C00012586B0002B25D1DE
:1023D0006A460B8813808B7893708B7A002B4FD0D2
:1023E000AB424DD0E368039323690493E37A002B57
:1023F00049D0012B47D06A46636827490193237A65
:10240000264853723200FFF7D0FF3C224243244B50
:1024100069467068D218FEF785FB05003378012BFA
:102420002BD16A4623881380A37A002B2ED0012B50
:1024300030D06946636900205A780A721B784B7263
:10244000E3680393236904936368019323895BBA68
:102450008B821449FCF7E6FA051E0ED132001249B0
:102460001248FFF7A2FF902252004243104B28006F
:102470006946D218FCF7C6FF0500280006B070BDFB
:102480006A461372AEE76A46D370B4E702236A461F
:102490009370CEE70023FAE7F0100020EC10002044
:1024A000F4100020B80F0020B40F0020B00F00205F
:1024B000CC0F0020F8B51F00037804000D001600B3
:1024C0000120002B03D13B006068FEF7B5FB2378A9
:1024D000012B0CD12000FFF757FF90235B004343F3
:1024E00003483200181829003B00FDF776F8F8BDC4
:1024F000CC0F0020F8B51F00037804000D00160073
:102500000120002B03D13B006068FEF7CBFB237852
:10251000012B0CD12000FFF737FF90235B004343D2
:1025200003483200181829003B00FDF767F8F8BD92
:10253000CC0F0020037870B505000124002B08D1D2
:102540004068FEF73FFA2A0004000D490D48FFF7E6
:1025500025FF2B78012B10D12800FFF715FF9023C2
:102560005B00434308481818FDF718F8041E04D10F
:102570002A0006490648FFF711FF200070BDC0463B
:10258000F0100020EC100020CC0F0020B40F002031
:10259000B00F002070B5067804000D000120002E59
:1025A00003D16068FEF73EFB30002378012B0AD18F
:1025B0002000FFF7E9FE90235B0043430248290017
:1025C0001818FDF700F870BDCC0F0020037870B527
:1025D00004000D000120002B02D16068FEF7B8FB5B
:1025E0002378012B0AD12000FFF7CEFE90235B0059
:1025F0004343034829001818FDF711F870BDC04681
:10260000CC0F0020F0B50578BFB00600012704917B
:10261000002D00D0BFE00BAC10222900200004F0F8
:10262000E7FC1AAB18932AAB1793049B19941C6808
:102630000FA9636914AA18788873587848739B782F
:10264000137163780F97013B5842434103339370F2
:102650000B73524B0D74109380235B001193CD7359
:102660001580A37BD370049B1A7918235343E31876
:10267000099302950195079506950597099BA34235
:1026800016D1079B002B04D029220AAB9B18029A73
:102690001A70069B002B04D028220AAB9B18019AC3
:1026A0001A703F4901220B78002B5AD015005CE0CC
:1026B000A0686168C003EEF7EFFA83B218002378D0
:1026C000E77B0393237B0893002F1DD12AAB9C4605
:1026D0000A23019A53436246D118488003980F7227
:1026E0009854089A504242414A70D0229B180AAA34
:1026F0009B18503B9F80019B8F710133DBB201938C
:10270000059B06931834B9E70022029B079719012D
:102710001AAB5B185A80002298804020DA71059A23
:102720005A720AAA121803985054089A51424A4100
:1027300000211A7259739973227C0800511E8A4134
:10274000D8729A72627B18739A71029B7268013315
